{
  "transactions": [
    {
      "hash": "0x4dc9bdd00762878ff7251d06e1dc0e5b6ac0d3cc3ab214a5c33d5735239bfacd",
      "transactionType": "CALL",
      "contractName": null,
      "contractAddress": "0x33d63DF28F46dC37efbBA55AF25F734417Dd1Acb",
      "function": "buyToken(address,uint256,uint256)",
      "arguments": [
        "0x3FDF7Fd35F4e16afB548a79AB5eE40E8C344982D",
        "1",
        "2"
      ],
      "transaction": {
        "from": "0x3FDF7Fd35F4e16afB548a79AB5eE40E8C344982D",
        "to": "0x33d63DF28F46dC37efbBA55AF25F734417Dd1Acb",
        "gas": "0x10eac",
        "value": "0x470de4df820000",
        "input": "0xe671499b0000000000000000000000003fdf7fd35f4e16afb548a79ab5ee40e8c344982d00000000000000000000000000000000000000000000000000000000000000010000000000000000000000000000000000000000000000000000000000000002",
        "nonce": "0x20",
        "chainId": "0x13882"
      },
      "additionalContracts": [],
      "isFixedGasLimit": false
    },
    {
      "hash": "0x8674ded57ee64b8ecd0c596488dbd2721993b7e652d7b8bce14114bc454d31e4",
      "transactionType": "CALL",
      "contractName": null,
      "contractAddress": "0x33d63DF28F46dC37efbBA55AF25F734417Dd1Acb",
      "function": "safeTransferFrom(address,address,uint256,uint256,bytes)",
      "arguments": [
        "0x3FDF7Fd35F4e16afB548a79AB5eE40E8C344982D",
        "0x8493a952bfD0EA51f30a2fE93994768e88505b48",
        "1",
        "1",
        "0x"
      ],
      "transaction": {
        "from": "0x3FDF7Fd35F4e16afB548a79AB5eE40E8C344982D",
        "to": "0x33d63DF28F46dC37efbBA55AF25F734417Dd1Acb",
        "gas": "0x1340a",
        "value": "0x0",
        "input": "0xf242432a0000000000000000000000003fdf7fd35f4e16afb548a79ab5ee40e8c344982d0000000000000000000000008493a952bfd0ea51f30a2fe93994768e88505b480000000000000000000000000000000000000000000000000000000000000001000000000000000000000000000000000000000000000000000000000000000100000000000000000000000000000000000000000000000000000000000000a00000000000000000000000000000000000000000000000000000000000000000",
        "nonce": "0x21",
        "chainId": "0x13882"
      },
      "additionalContracts": [],
      "isFixedGasLimit": false
    }
  ],
  "receipts": [
    {
      "status": "0x1",
      "cumulativeGasUsed": "0xc3f7",
      "logs": [
        {
          "address": "0x0000000000000000000000000000000000001010",
          "topics": [
            "0xe6497e3ee548a3372136af2fcb0696db31fc6cf20260707645068bd3fe97f3c4",
            "0x0000000000000000000000000000000000000000000000000000000000001010",
            "0x0000000000000000000000003fdf7fd35f4e16afb548a79ab5ee40e8c344982d",
            "0x00000000000000000000000033d63df28f46dc37efbba55af25f734417dd1acb"
          ],
          "data": "0x00000000000000000000000000000000000000000000000000470de4df820000000000000000000000000000000000000000000000000000041b6af5b2e5fb7c00000000000000000000000000000000000000000000000002c68af0bb14000000000000000000000000000000000000000000000000000003d45d10d363fb7c000000000000000000000000000000000000000000000000030d98d59a960000",
          "blockHash": "0xa6ae6da5e7661ffd8ac1856886e2fdce1fa78640880ebb6b6617526706451db9",
          "blockNumber": "0xc44dc0",
          "transactionHash": "0x4dc9bdd00762878ff7251d06e1dc0e5b6ac0d3cc3ab214a5c33d5735239bfacd",
          "transactionIndex": "0x0",
          "logIndex": "0x0",
          "removed": false
        },
        {
          "address": "0x33d63DF28F46dC37efbBA55AF25F734417Dd1Acb",
          "topics": [
            "0xc3d58168c5ae7397731d063d5bbf3d657854427343f4c083240f7aacaa2d0f62",
            "0x0000000000000000000000003fdf7fd35f4e16afb548a79ab5ee40e8c344982d",
            "0x0000000000000000000000000000000000000000000000000000000000000000",
            "0x0000000000000000000000003fdf7fd35f4e16afb548a79ab5ee40e8c344982d"
          ],
          "data": "0x00000000000000000000000000000000000000000000000000000000000000010000000000000000000000000000000000000000000000000000000000000002",
          "blockHash": "0xa6ae6da5e7661ffd8ac1856886e2fdce1fa78640880ebb6b6617526706451db9",
          "blockNumber": "0xc44dc0",
          "transactionHash": "0x4dc9bdd00762878ff7251d06e1dc0e5b6ac0d3cc3ab214a5c33d5735239bfacd",
          "transactionIndex": "0x0",
          "logIndex": "0x1",
          "removed": false
        },
        {
          "address": "0x0000000000000000000000000000000000001010",
          "topics": [
            "0x4dfe1bbbcf077ddc3e01291eea2d5c70c2b422b415d95645b9adcfd678cb1d63",
            "0x0000000000000000000000000000000000000000000000000000000000001010",
            "0x0000000000000000000000003fdf7fd35f4e16afb548a79ab5ee40e8c344982d",
            "0x000000000000000000000000915a2284d28bd93de7d6f31173b981204bb666e6"
          ],
          "data": "0x00000000000000000000000000000000000000000000000000056f9ca77eeb870000000000000000000000000000000000000000000000000422ed1760cb677c0000000000000000000000000000000000000000000004028a3deff4d36806dd000000000000000000000000000000000000000000000000041d7d7ab94c7bf50000000000000000000000000000000000000000000004028a435f917ae6f264",
          "blockHash": "0xa6ae6da5e7661ffd8ac1856886e2fdce1fa78640880ebb6b6617526706451db9",
          "blockNumber": "0xc44dc0",
          "transactionHash": "0x4dc9bdd00762878ff7251d06e1dc0e5b6ac0d3cc3ab214a5c33d5735239bfacd",
          "transactionIndex": "0x0",
          "logIndex": "0x2",
          "removed": false
        }
      ],
      "logsBloom": "0x00000000000000000010000000000000000000000000000000000000000000000000000000000000000000100000000000008000000000200000000000002000000000008000000000000000000000800000000000000000000100000000000000000000020000000000000000000800080000000000000080040008000000000000000000000000000000000000000000000000004000000400000000000000200000000000000000000000000000000000000000000000000000000000004000000000000000000001000000000000000002000008800002108000000020000000000000000000000000000000000000000000400000002000080000100000",
      "type": "0x2",
      "transactionHash": "0x4dc9bdd00762878ff7251d06e1dc0e5b6ac0d3cc3ab214a5c33d5735239bfacd",
      "transactionIndex": "0x0",
      "blockHash": "0xa6ae6da5e7661ffd8ac1856886e2fdce1fa78640880ebb6b6617526706451db9",
      "blockNumber": "0xc44dc0",
      "gasUsed": "0xc3f7",
      "effectiveGasPrice": "0x719f11100",
      "from": "0x3FDF7Fd35F4e16afB548a79AB5eE40E8C344982D",
      "to": "0x33d63DF28F46dC37efbBA55AF25F734417Dd1Acb",
      "contractAddress": null
    },
    {
      "status": "0x1",
      "cumulativeGasUsed": "0x1a2fb",
      "logs": [
        {
          "address": "0x33d63DF28F46dC37efbBA55AF25F734417Dd1Acb",
          "topics": [
            "0xc3d58168c5ae7397731d063d5bbf3d657854427343f4c083240f7aacaa2d0f62",
            "0x0000000000000000000000003fdf7fd35f4e16afb548a79ab5ee40e8c344982d",
            "0x0000000000000000000000003fdf7fd35f4e16afb548a79ab5ee40e8c344982d",
            "0x0000000000000000000000008493a952bfd0ea51f30a2fe93994768e88505b48"
          ],
          "data": "0x00000000000000000000000000000000000000000000000000000000000000010000000000000000000000000000000000000000000000000000000000000001",
          "blockHash": "0xa6ae6da5e7661ffd8ac1856886e2fdce1fa78640880ebb6b6617526706451db9",
          "blockNumber": "0xc44dc0",
          "transactionHash": "0x8674ded57ee64b8ecd0c596488dbd2721993b7e652d7b8bce14114bc454d31e4",
          "transactionIndex": "0x1",
          "logIndex": "0x3",
          "removed": false
        },
        {
          "address": "0x0000000000000000000000000000000000001010",
          "topics": [
            "0x4dfe1bbbcf077ddc3e01291eea2d5c70c2b422b415d95645b9adcfd678cb1d63",
            "0x0000000000000000000000000000000000000000000000000000000000001010",
            "0x0000000000000000000000003fdf7fd35f4e16afb548a79ab5ee40e8c344982d",
            "0x000000000000000000000000915a2284d28bd93de7d6f31173b981204bb666e6"
          ],
          "data": "0x00000000000000000000000000000000000000000000000000062fb5658632c400000000000000000000000000000000000000000000000003d66f95d9bf007c0000000000000000000000000000000000000000000004028a435f917ae6f26400000000000000000000000000000000000000000000000003d03fe07438cdb80000000000000000000000000000000000000000000004028a498f46e06d2528",
          "blockHash": "0xa6ae6da5e7661ffd8ac1856886e2fdce1fa78640880ebb6b6617526706451db9",
          "blockNumber": "0xc44dc0",
          "transactionHash": "0x8674ded57ee64b8ecd0c596488dbd2721993b7e652d7b8bce14114bc454d31e4",
          "transactionIndex": "0x1",
          "logIndex": "0x4",
          "removed": false
        }
      ],
      "logsBloom": "0x00000000000000000010000000000000000000000000000000000000000000000000000000000000000000000000000000008000000000000000000000002000000000008000000000000000000000800000000000000000000100000000000000000000000000000000000000000000080000000000000080040008000000000000000000000000400000000000000000000000000000000000000000000000200000000400000000000000000000000000000000000000000000000000004000000000000000000001000000000000000002000008000002100020000000000000000000000000000000000000000000000000400000002000080000100000",
      "type": "0x2",
      "transactionHash": "0x8674ded57ee64b8ecd0c596488dbd2721993b7e652d7b8bce14114bc454d31e4",
      "transactionIndex": "0x1",
      "blockHash": "0xa6ae6da5e7661ffd8ac1856886e2fdce1fa78640880ebb6b6617526706451db9",
      "blockNumber": "0xc44dc0",
      "gasUsed": "0xdf04",
      "effectiveGasPrice": "0x719f11100",
      "from": "0x3FDF7Fd35F4e16afB548a79AB5eE40E8C344982D",
      "to": "0x33d63DF28F46dC37efbBA55AF25F734417Dd1Acb",
      "contractAddress": null
    }
  ],
  "libraries": [],
  "pending": [],
  "returns": {},
  "timestamp": 1728251193,
  "chain": 80002,
  "commit": "8f148fa"
}