{
  "transactions": [
    {
      "hash": "0x849d67a41e0cd40500c140b432309c1a2f2e485cc0e8fadedf2ee25c03d95457",
      "transactionType": "CALL",
      "contractName": null,
      "contractAddress": "0x33d63DF28F46dC37efbBA55AF25F734417Dd1Acb",
      "function": "buyToken(address,uint256,uint256)",
      "arguments": [
        "0x1804c8AB1F12E6bbf3894d4083f33e07309d1f38",
        "1",
        "10"
      ],
      "transaction": {
        "from": "0x3FDF7Fd35F4e16afB548a79AB5eE40E8C344982D",
        "to": "0x33d63DF28F46dC37efbBA55AF25F734417Dd1Acb",
        "gas": "0xbfe5",
        "value": "0x16345785d8a0000",
        "input": "0xe671499b0000000000000000000000001804c8ab1f12e6bbf3894d4083f33e07309d1f380000000000000000000000000000000000000000000000000000000000000001000000000000000000000000000000000000000000000000000000000000000a",
        "nonce": "0x1f",
        "chainId": "0x13882"
      },
      "additionalContracts": [],
      "isFixedGasLimit": false
    }
  ],
  "receipts": [
    {
      "status": "0x1",
      "cumulativeGasUsed": "0x8aef",
      "logs": [
        {
          "address": "0x0000000000000000000000000000000000001010",
          "topics": [
            "0xe6497e3ee548a3372136af2fcb0696db31fc6cf20260707645068bd3fe97f3c4",
            "0x0000000000000000000000000000000000000000000000000000000000001010",
            "0x0000000000000000000000003fdf7fd35f4e16afb548a79ab5ee40e8c344982d",
            "0x00000000000000000000000033d63df28f46dc37efbba55af25f734417dd1acb"
          ],
          "data": "0x000000000000000000000000000000000000000000000000016345785d8a000000000000000000000000000000000000000000000000000002bd6a147d16875e000000000000000000000000000000000000000000000000016345785d8a0000000000000000000000000000000000000000000000000000015a249c1f8c875e00000000000000000000000000000000000000000000000002c68af0bb140000",
          "blockHash": "0x20d240745e14730f1adf57097f067d1265be5a6c23ef54c1f785c2a029944553",
          "blockNumber": "0xc448b5",
          "transactionHash": "0x849d67a41e0cd40500c140b432309c1a2f2e485cc0e8fadedf2ee25c03d95457",
          "transactionIndex": "0x0",
          "logIndex": "0x0",
          "removed": false
        },
        {
          "address": "0x33d63DF28F46dC37efbBA55AF25F734417Dd1Acb",
          "topics": [
            "0xc3d58168c5ae7397731d063d5bbf3d657854427343f4c083240f7aacaa2d0f62",
            "0x0000000000000000000000003fdf7fd35f4e16afb548a79ab5ee40e8c344982d",
            "0x0000000000000000000000000000000000000000000000000000000000000000",
            "0x0000000000000000000000001804c8ab1f12e6bbf3894d4083f33e07309d1f38"
          ],
          "data": "0x0000000000000000000000000000000000000000000000000000000000000001000000000000000000000000000000000000000000000000000000000000000a",
          "blockHash": "0x20d240745e14730f1adf57097f067d1265be5a6c23ef54c1f785c2a029944553",
          "blockNumber": "0xc448b5",
          "transactionHash": "0x849d67a41e0cd40500c140b432309c1a2f2e485cc0e8fadedf2ee25c03d95457",
          "transactionIndex": "0x0",
          "logIndex": "0x1",
          "removed": false
        },
        {
          "address": "0x0000000000000000000000000000000000001010",
          "topics": [
            "0x4dfe1bbbcf077ddc3e01291eea2d5c70c2b422b415d95645b9adcfd678cb1d63",
            "0x0000000000000000000000000000000000000000000000000000000000001010",
            "0x0000000000000000000000003fdf7fd35f4e16afb548a79ab5ee40e8c344982d",
            "0x0000000000000000000000006dc2dd54f24979ec26212794c71afefed722280c"
          ],
          "data": "0x0000000000000000000000000000000000000000000000000005e09541146cb200000000000000000000000000000000000000000000000002c58834445df82f0000000000000000000000000000000000000000000003160767521af3ac015400000000000000000000000000000000000000000000000002bfa79f03498b7d000000000000000000000000000000000000000000000316076d32b034c06e06",
          "blockHash": "0x20d240745e14730f1adf57097f067d1265be5a6c23ef54c1f785c2a029944553",
          "blockNumber": "0xc448b5",
          "transactionHash": "0x849d67a41e0cd40500c140b432309c1a2f2e485cc0e8fadedf2ee25c03d95457",
          "transactionIndex": "0x0",
          "logIndex": "0x2",
          "removed": false
        }
      ],
      "logsBloom": "0x00000000000000000000000000000000000000000000000000000000000000000000000000000000000000100000000000008000000000200000000000002000000000008000000000000000000000800000000000000000000100080000000000000000020000000001000000000800080000000000000080040008000000020000000000000000000004000040000000000000004000000400000000000000200000000000000000000000000000000000000000000000000000000000004000000000000004000001000000000000000000000008800002108000000020000000000000000000000000000000000000000000000000002000080000100000",
      "type": "0x2",
      "transactionHash": "0x849d67a41e0cd40500c140b432309c1a2f2e485cc0e8fadedf2ee25c03d95457",
      "transactionIndex": "0x0",
      "blockHash": "0x20d240745e14730f1adf57097f067d1265be5a6c23ef54c1f785c2a029944553",
      "blockNumber": "0xc448b5",
      "gasUsed": "0x8aef",
      "effectiveGasPrice": "0xad45ae67d",
      "from": "0x3FDF7Fd35F4e16afB548a79AB5eE40E8C344982D",
      "to": "0x33d63DF28F46dC37efbBA55AF25F734417Dd1Acb",
      "contractAddress": null
    }
  ],
  "libraries": [],
  "pending": [],
  "returns": {},
  "timestamp": 1728248451,
  "chain": 80002,
  "commit": "8f148fa"
}