{
  "transactions": [
    {
      "hash": "0x19b3d1777518ff35293b79492b6be4aa99307c7539bbe6d06e6f5f41473a2642",
      "transactionType": "CALL",
      "contractName": null,
      "contractAddress": "0xdBdF8c47C566A2656bFAE5c06FbF928174c4F1bf",
      "function": "buyToken()",
      "arguments": [],
      "transaction": {
        "from": "0x3FDF7Fd35F4e16afB548a79AB5eE40E8C344982D",
        "to": "0xdBdF8c47C566A2656bFAE5c06FbF928174c4F1bf",
        "gas": "0xb51b",
        "value": "0x470de4df820000",
        "input": "0xa4821719",
        "nonce": "0x1c",
        "chainId": "0x13882"
      },
      "additionalContracts": [],
      "isFixedGasLimit": false
    },
    {
      "hash": "0x25034f8dde3ab0dd78d925d0ec0f8aac5e27dad0ecdec9ee49147f85d1740f44",
      "transactionType": "CALL",
      "contractName": null,
      "contractAddress": "0xdBdF8c47C566A2656bFAE5c06FbF928174c4F1bf",
      "function": "approve(address,uint256)",
      "arguments": [
        "0x3FDF7Fd35F4e16afB548a79AB5eE40E8C344982D",
        "5000000000000000000"
      ],
      "transaction": {
        "from": "0x3FDF7Fd35F4e16afB548a79AB5eE40E8C344982D",
        "to": "0xdBdF8c47C566A2656bFAE5c06FbF928174c4F1bf",
        "gas": "0x1090c",
        "value": "0x0",
        "input": "0x095ea7b30000000000000000000000003fdf7fd35f4e16afb548a79ab5ee40e8c344982d0000000000000000000000000000000000000000000000004563918244f40000",
        "nonce": "0x1d",
        "chainId": "0x13882"
      },
      "additionalContracts": [],
      "isFixedGasLimit": false
    },
    {
      "hash": "0x3e0bd524af8509befb9c91973c4e9d11f2a0e343cf84fbde7494cbe1f43b8768",
      "transactionType": "CALL",
      "contractName": null,
      "contractAddress": "0xdBdF8c47C566A2656bFAE5c06FbF928174c4F1bf",
      "function": "transferFrom(address,address,uint256)",
      "arguments": [
        "0x3FDF7Fd35F4e16afB548a79AB5eE40E8C344982D",
        "0x8493a952bfD0EA51f30a2fE93994768e88505b48",
        "2000000000000000000"
      ],
      "transaction": {
        "from": "0x3FDF7Fd35F4e16afB548a79AB5eE40E8C344982D",
        "to": "0xdBdF8c47C566A2656bFAE5c06FbF928174c4F1bf",
        "gas": "0x11096",
        "value": "0x0",
        "input": "0x23b872dd0000000000000000000000003fdf7fd35f4e16afb548a79ab5ee40e8c344982d0000000000000000000000008493a952bfd0ea51f30a2fe93994768e88505b480000000000000000000000000000000000000000000000001bc16d674ec80000",
        "nonce": "0x1e",
        "chainId": "0x13882"
      },
      "additionalContracts": [],
      "isFixedGasLimit": false
    }
  ],
  "receipts": [
    {
      "status": "0x1",
      "cumulativeGasUsed": "0x831f",
      "logs": [
        {
          "address": "0x0000000000000000000000000000000000001010",
          "topics": [
            "0xe6497e3ee548a3372136af2fcb0696db31fc6cf20260707645068bd3fe97f3c4",
            "0x0000000000000000000000000000000000000000000000000000000000001010",
            "0x0000000000000000000000003fdf7fd35f4e16afb548a79ab5ee40e8c344982d",
            "0x000000000000000000000000dbdf8c47c566a2656bfae5c06fbf928174c4f1bf"
          ],
          "data": "0x00000000000000000000000000000000000000000000000000470de4df8200000000000000000000000000000000000000000000000000000318b9607a93f08300000000000000000000000000000000000000000000000000d529ae9e86000000000000000000000000000000000000000000000000000002d1ab7b9b11f083000000000000000000000000000000000000000000000000011c37937e080000",
          "blockHash": "0x45f33140e68288b3ff3477bd91fc600fbecf0d390653ae390910d7366f68805b",
          "blockNumber": "0xc447f4",
          "transactionHash": "0x19b3d1777518ff35293b79492b6be4aa99307c7539bbe6d06e6f5f41473a2642",
          "transactionIndex": "0x0",
          "logIndex": "0x0",
          "removed": false
        },
        {
          "address": "0xdBdF8c47C566A2656bFAE5c06FbF928174c4F1bf",
          "topics": [
            "0xddf252ad1be2c89b69c2b068fc378daa952ba7f163c4a11628f55a4df523b3ef",
            "0x0000000000000000000000000000000000000000000000000000000000000000",
            "0x0000000000000000000000003fdf7fd35f4e16afb548a79ab5ee40e8c344982d"
          ],
          "data": "0x0000000000000000000000000000000000000000000000001bc16d674ec80000",
          "blockHash": "0x45f33140e68288b3ff3477bd91fc600fbecf0d390653ae390910d7366f68805b",
          "blockNumber": "0xc447f4",
          "transactionHash": "0x19b3d1777518ff35293b79492b6be4aa99307c7539bbe6d06e6f5f41473a2642",
          "transactionIndex": "0x0",
          "logIndex": "0x1",
          "removed": false
        },
        {
          "address": "0x0000000000000000000000000000000000001010",
          "topics": [
            "0x4dfe1bbbcf077ddc3e01291eea2d5c70c2b422b415d95645b9adcfd678cb1d63",
            "0x0000000000000000000000000000000000000000000000000000000000001010",
            "0x0000000000000000000000003fdf7fd35f4e16afb548a79ab5ee40e8c344982d",
            "0x0000000000000000000000004ad84f7014b7b44f723f284a85b1662337971439"
          ],
          "data": "0x000000000000000000000000000000000000000000000000000502b4f2a52865000000000000000000000000000000000000000000000000031fa50fbbed9b91000000000000000000000000000000000000000000000309b2785e24798bce6f000000000000000000000000000000000000000000000000031aa25ac948732c000000000000000000000000000000000000000000000309b27d60d96c30f6d4",
          "blockHash": "0x45f33140e68288b3ff3477bd91fc600fbecf0d390653ae390910d7366f68805b",
          "blockNumber": "0xc447f4",
          "transactionHash": "0x19b3d1777518ff35293b79492b6be4aa99307c7539bbe6d06e6f5f41473a2642",
          "transactionIndex": "0x0",
          "logIndex": "0x2",
          "removed": false
        }
      ],
      "logsBloom": "0x00000000000000000000000000000000000000000000000000000000000000000000000000000000000000100000000000008000000000000000000000400000000000008000000000000008000004800000400000000000010100001000000000000000020000000000000000000800000000000000000080040010000000000000000000000000000000020000000000000001000000000000000000000000200000000000000000020000000000000000000000000000000000000000004000000002000000000001000000000000000000000000800002108000000020000000000000000000000000000000008000000000000000000000000000100000",
      "type": "0x2",
      "transactionHash": "0x19b3d1777518ff35293b79492b6be4aa99307c7539bbe6d06e6f5f41473a2642",
      "transactionIndex": "0x0",
      "blockHash": "0x45f33140e68288b3ff3477bd91fc600fbecf0d390653ae390910d7366f68805b",
      "blockNumber": "0xc447f4",
      "gasUsed": "0x831f",
      "effectiveGasPrice": "0x9c859480a",
      "from": "0x3FDF7Fd35F4e16afB548a79AB5eE40E8C344982D",
      "to": "0xdBdF8c47C566A2656bFAE5c06FbF928174c4F1bf",
      "contractAddress": null
    },
    {
      "status": "0x1",
      "cumulativeGasUsed": "0x1385a",
      "logs": [
        {
          "address": "0xdBdF8c47C566A2656bFAE5c06FbF928174c4F1bf",
          "topics": [
            "0x8c5be1e5ebec7d5bd14f71427d1e84f3dd0314c0f7b2291e5b200ac8c7c3b925",
            "0x0000000000000000000000003fdf7fd35f4e16afb548a79ab5ee40e8c344982d",
            "0x0000000000000000000000003fdf7fd35f4e16afb548a79ab5ee40e8c344982d"
          ],
          "data": "0x0000000000000000000000000000000000000000000000004563918244f40000",
          "blockHash": "0x45f33140e68288b3ff3477bd91fc600fbecf0d390653ae390910d7366f68805b",
          "blockNumber": "0xc447f4",
          "transactionHash": "0x25034f8dde3ab0dd78d925d0ec0f8aac5e27dad0ecdec9ee49147f85d1740f44",
          "transactionIndex": "0x1",
          "logIndex": "0x3",
          "removed": false
        },
        {
          "address": "0x0000000000000000000000000000000000001010",
          "topics": [
            "0x4dfe1bbbcf077ddc3e01291eea2d5c70c2b422b415d95645b9adcfd678cb1d63",
            "0x0000000000000000000000000000000000000000000000000000000000001010",
            "0x0000000000000000000000003fdf7fd35f4e16afb548a79ab5ee40e8c344982d",
            "0x0000000000000000000000004ad84f7014b7b44f723f284a85b1662337971439"
          ],
          "data": "0x0000000000000000000000000000000000000000000000000006ece84c780dd900000000000000000000000000000000000000000000000002d39475e9bec45b000000000000000000000000000000000000000000000309b27d60d96c30f6d400000000000000000000000000000000000000000000000002cca78d9d46b682000000000000000000000000000000000000000000000309b2844dc1b8a904ad",
          "blockHash": "0x45f33140e68288b3ff3477bd91fc600fbecf0d390653ae390910d7366f68805b",
          "blockNumber": "0xc447f4",
          "transactionHash": "0x25034f8dde3ab0dd78d925d0ec0f8aac5e27dad0ecdec9ee49147f85d1740f44",
          "transactionIndex": "0x1",
          "logIndex": "0x4",
          "removed": false
        }
      ],
      "logsBloom": "0x00000000000000000000000000000000000000000000000000000000000000000000000000000000000000000000000000008000000000000000000000600000000000008000000000000000000004800000000000000000000100001000000000000000000000000000000000000000000000000000000080040000000000000000000000000000000000000000000000000001000000000000000000000000220000000000000000020000000000000000000000000000000000000000004000000000000000000001000000000000000000000000000002100000000000000010000000000000000000000000008000000000000000000000000000100000",
      "type": "0x2",
      "transactionHash": "0x25034f8dde3ab0dd78d925d0ec0f8aac5e27dad0ecdec9ee49147f85d1740f44",
      "transactionIndex": "0x1",
      "blockHash": "0x45f33140e68288b3ff3477bd91fc600fbecf0d390653ae390910d7366f68805b",
      "blockNumber": "0xc447f4",
      "gasUsed": "0xb53b",
      "effectiveGasPrice": "0x9c859480a",
      "from": "0x3FDF7Fd35F4e16afB548a79AB5eE40E8C344982D",
      "to": "0xdBdF8c47C566A2656bFAE5c06FbF928174c4F1bf",
      "contractAddress": null
    },
    {
      "status": "0x1",
      "cumulativeGasUsed": "0x1f2bd",
      "logs": [
        {
          "address": "0xdBdF8c47C566A2656bFAE5c06FbF928174c4F1bf",
          "topics": [
            "0xddf252ad1be2c89b69c2b068fc378daa952ba7f163c4a11628f55a4df523b3ef",
            "0x0000000000000000000000003fdf7fd35f4e16afb548a79ab5ee40e8c344982d",
            "0x0000000000000000000000003fdf7fd35f4e16afb548a79ab5ee40e8c344982d"
          ],
          "data": "0x00000000000000000000000000000000000000000000000000470de4df820000",
          "blockHash": "0x45f33140e68288b3ff3477bd91fc600fbecf0d390653ae390910d7366f68805b",
          "blockNumber": "0xc447f4",
          "transactionHash": "0x3e0bd524af8509befb9c91973c4e9d11f2a0e343cf84fbde7494cbe1f43b8768",
          "transactionIndex": "0x2",
          "logIndex": "0x5",
          "removed": false
        },
        {
          "address": "0xdBdF8c47C566A2656bFAE5c06FbF928174c4F1bf",
          "topics": [
            "0xddf252ad1be2c89b69c2b068fc378daa952ba7f163c4a11628f55a4df523b3ef",
            "0x0000000000000000000000003fdf7fd35f4e16afb548a79ab5ee40e8c344982d",
            "0x0000000000000000000000008493a952bfd0ea51f30a2fe93994768e88505b48"
          ],
          "data": "0x0000000000000000000000000000000000000000000000001b7a5f826f460000",
          "blockHash": "0x45f33140e68288b3ff3477bd91fc600fbecf0d390653ae390910d7366f68805b",
          "blockNumber": "0xc447f4",
          "transactionHash": "0x3e0bd524af8509befb9c91973c4e9d11f2a0e343cf84fbde7494cbe1f43b8768",
          "transactionIndex": "0x2",
          "logIndex": "0x6",
          "removed": false
        },
        {
          "address": "0xdBdF8c47C566A2656bFAE5c06FbF928174c4F1bf",
          "topics": [
            "0x8c5be1e5ebec7d5bd14f71427d1e84f3dd0314c0f7b2291e5b200ac8c7c3b925",
            "0x0000000000000000000000003fdf7fd35f4e16afb548a79ab5ee40e8c344982d",
            "0x0000000000000000000000003fdf7fd35f4e16afb548a79ab5ee40e8c344982d"
          ],
          "data": "0x00000000000000000000000000000000000000000000000029a2241af62c0000",
          "blockHash": "0x45f33140e68288b3ff3477bd91fc600fbecf0d390653ae390910d7366f68805b",
          "blockNumber": "0xc447f4",
          "transactionHash": "0x3e0bd524af8509befb9c91973c4e9d11f2a0e343cf84fbde7494cbe1f43b8768",
          "transactionIndex": "0x2",
          "logIndex": "0x7",
          "removed": false
        },
        {
          "address": "0x0000000000000000000000000000000000001010",
          "topics": [
            "0x4dfe1bbbcf077ddc3e01291eea2d5c70c2b422b415d95645b9adcfd678cb1d63",
            "0x0000000000000000000000000000000000000000000000000000000000001010",
            "0x0000000000000000000000003fdf7fd35f4e16afb548a79ab5ee40e8c344982d",
            "0x0000000000000000000000004ad84f7014b7b44f723f284a85b1662337971439"
          ],
          "data": "0x00000000000000000000000000000000000000000000000000071f5958d3341100000000000000000000000000000000000000000000000002cca78d9d3c180d000000000000000000000000000000000000000000000309b2844dc1b8a904ad00000000000000000000000000000000000000000000000002c588344468e3fc000000000000000000000000000000000000000000000309b28b6d1b117c38be",
          "blockHash": "0x45f33140e68288b3ff3477bd91fc600fbecf0d390653ae390910d7366f68805b",
          "blockNumber": "0xc447f4",
          "transactionHash": "0x3e0bd524af8509befb9c91973c4e9d11f2a0e343cf84fbde7494cbe1f43b8768",
          "transactionIndex": "0x2",
          "logIndex": "0x8",
          "removed": false
        }
      ],
      "logsBloom": "0x00000000000000000000000000000000000000000000000000000000000000000000000000000000000000000000000000008000000000000000000000600000000000008000000000000008000004800000000000000000000100001000000000000000000000000000000000000000000000000000000080040010000000000000000000000000400000000000000000000001000000000000000000000000220000000400000000020000000000000000000000000000000000000000004000000002000000000001000000000000000000000000000002100020000000000010000000000000000000000000008000000000000000000000000000100000",
      "type": "0x2",
      "transactionHash": "0x3e0bd524af8509befb9c91973c4e9d11f2a0e343cf84fbde7494cbe1f43b8768",
      "transactionIndex": "0x2",
      "blockHash": "0x45f33140e68288b3ff3477bd91fc600fbecf0d390653ae390910d7366f68805b",
      "blockNumber": "0xc447f4",
      "gasUsed": "0xba63",
      "effectiveGasPrice": "0x9c859480a",
      "from": "0x3FDF7Fd35F4e16afB548a79AB5eE40E8C344982D",
      "to": "0xdBdF8c47C566A2656bFAE5c06FbF928174c4F1bf",
      "contractAddress": null
    }
  ],
  "libraries": [],
  "pending": [],
  "returns": {},
  "timestamp": 1728248041,
  "chain": 80002,
  "commit": "8f148fa"
}