{
  "transactions": [
    {
      "hash": "0x49176acf855cfc3c7d28bb3312cbfd6d3d0360443efb8bdf4126ccc619a9d8a6",
      "transactionType": "CALL",
      "contractName": null,
      "contractAddress": "0xdBdF8c47C566A2656bFAE5c06FbF928174c4F1bf",
      "function": "buyToken()",
      "arguments": [],
      "transaction": {
        "from": "0x3FDF7Fd35F4e16afB548a79AB5eE40E8C344982D",
        "to": "0xdBdF8c47C566A2656bFAE5c06FbF928174c4F1bf",
        "gas": "0xb51b",
        "value": "0x470de4df820000",
        "input": "0xa4821719",
        "nonce": "0x35",
        "chainId": "0x13882"
      },
      "additionalContracts": [],
      "isFixedGasLimit": false
    },
    {
      "hash": "0xdd40373d0c6eae2544dd6bd9a2fbd79b59f1ba39d0e4973c5235ee1907fa0e41",
      "transactionType": "CALL",
      "contractName": null,
      "contractAddress": "0xdBdF8c47C566A2656bFAE5c06FbF928174c4F1bf",
      "function": "transfer(address,uint256)",
      "arguments": [
        "0x8493a952bfD0EA51f30a2fE93994768e88505b48",
        "5000000000000000000"
      ],
      "transaction": {
        "from": "0x3FDF7Fd35F4e16afB548a79AB5eE40E8C344982D",
        "to": "0xdBdF8c47C566A2656bFAE5c06FbF928174c4F1bf",
        "gas": "0xe299",
        "value": "0x0",
        "input": "0xa9059cbb0000000000000000000000008493a952bfd0ea51f30a2fe93994768e88505b480000000000000000000000000000000000000000000000004563918244f40000",
        "nonce": "0x36",
        "chainId": "0x13882"
      },
      "additionalContracts": [],
      "isFixedGasLimit": false
    },
    {
      "hash": "0xb22b9b3bbd00c29dd19801aca598518eb905515ba641cb8964911abffeb0cc9c",
      "transactionType": "CALL",
      "contractName": null,
      "contractAddress": "0xdBdF8c47C566A2656bFAE5c06FbF928174c4F1bf",
      "function": "approve(address,uint256)",
      "arguments": [
        "0x3FDF7Fd35F4e16afB548a79AB5eE40E8C344982D",
        "5000000000000000000"
      ],
      "transaction": {
        "from": "0x3FDF7Fd35F4e16afB548a79AB5eE40E8C344982D",
        "to": "0xdBdF8c47C566A2656bFAE5c06FbF928174c4F1bf",
        "gas": "0x9e0e",
        "value": "0x0",
        "input": "0x095ea7b30000000000000000000000003fdf7fd35f4e16afb548a79ab5ee40e8c344982d0000000000000000000000000000000000000000000000004563918244f40000",
        "nonce": "0x37",
        "chainId": "0x13882"
      },
      "additionalContracts": [],
      "isFixedGasLimit": false
    },
    {
      "hash": "0xcc82f33ab789a12ee8485124aa477ba4c31880d6f1656a0ebd4d6a8d650a2be3",
      "transactionType": "CALL",
      "contractName": null,
      "contractAddress": "0xdBdF8c47C566A2656bFAE5c06FbF928174c4F1bf",
      "function": "transferFrom(address,address,uint256)",
      "arguments": [
        "0x3FDF7Fd35F4e16afB548a79AB5eE40E8C344982D",
        "0x8493a952bfD0EA51f30a2fE93994768e88505b48",
        "2000000000000000000"
      ],
      "transaction": {
        "from": "0x3FDF7Fd35F4e16afB548a79AB5eE40E8C344982D",
        "to": "0xdBdF8c47C566A2656bFAE5c06FbF928174c4F1bf",
        "gas": "0x11096",
        "value": "0x0",
        "input": "0x23b872dd0000000000000000000000003fdf7fd35f4e16afb548a79ab5ee40e8c344982d0000000000000000000000008493a952bfd0ea51f30a2fe93994768e88505b480000000000000000000000000000000000000000000000001bc16d674ec80000",
        "nonce": "0x38",
        "chainId": "0x13882"
      },
      "additionalContracts": [],
      "isFixedGasLimit": false
    },
    {
      "hash": "0xb7f21dac4e5a058173ac261ce75c72964b3720c206a15a369c1e3e73efdd4e9c",
      "transactionType": "CALL",
      "contractName": null,
      "contractAddress": "0x33d63DF28F46dC37efbBA55AF25F734417Dd1Acb",
      "function": "buyToken(address,uint256,uint256)",
      "arguments": [
        "0x3FDF7Fd35F4e16afB548a79AB5eE40E8C344982D",
        "1",
        "2"
      ],
      "transaction": {
        "from": "0x3FDF7Fd35F4e16afB548a79AB5eE40E8C344982D",
        "to": "0x33d63DF28F46dC37efbBA55AF25F734417Dd1Acb",
        "gas": "0xbce8",
        "value": "0x470de4df820000",
        "input": "0xe671499b0000000000000000000000003fdf7fd35f4e16afb548a79ab5ee40e8c344982d00000000000000000000000000000000000000000000000000000000000000010000000000000000000000000000000000000000000000000000000000000002",
        "nonce": "0x39",
        "chainId": "0x13882"
      },
      "additionalContracts": [],
      "isFixedGasLimit": false
    },
    {
      "hash": "0xbc9ca85ff9479c4478663d217a4467feeed5357585580c87ce4b23e728a08f0b",
      "transactionType": "CALL",
      "contractName": null,
      "contractAddress": "0x33d63DF28F46dC37efbBA55AF25F734417Dd1Acb",
      "function": "safeTransferFrom(address,address,uint256,uint256,bytes)",
      "arguments": [
        "0x3FDF7Fd35F4e16afB548a79AB5eE40E8C344982D",
        "0x8493a952bfD0EA51f30a2fE93994768e88505b48",
        "1",
        "1",
        "0x"
      ],
      "transaction": {
        "from": "0x3FDF7Fd35F4e16afB548a79AB5eE40E8C344982D",
        "to": "0x33d63DF28F46dC37efbBA55AF25F734417Dd1Acb",
        "gas": "0xd7c6",
        "value": "0x0",
        "input": "0xf242432a0000000000000000000000003fdf7fd35f4e16afb548a79ab5ee40e8c344982d0000000000000000000000008493a952bfd0ea51f30a2fe93994768e88505b480000000000000000000000000000000000000000000000000000000000000001000000000000000000000000000000000000000000000000000000000000000100000000000000000000000000000000000000000000000000000000000000a00000000000000000000000000000000000000000000000000000000000000000",
        "nonce": "0x3a",
        "chainId": "0x13882"
      },
      "additionalContracts": [],
      "isFixedGasLimit": false
    },
    {
      "hash": "0x7345edf0ce0e45ba3fcef4b710ce1685e6bd8513d344dceb83b92fa7f149c309",
      "transactionType": "CALL",
      "contractName": null,
      "contractAddress": "0x82AeECCa746271569f06c232c980ad4096a3bD4d",
      "function": "buyNFT(string)",
      "arguments": [
        "https://gold-near-fox-74.mypinata.cloud/ipfs/QmQywF3utJ8apWRTR5YkzYFwpmE5SUZZRQMdrdzTMwJ8Yu"
      ],
      "transaction": {
        "from": "0x3FDF7Fd35F4e16afB548a79AB5eE40E8C344982D",
        "to": "0x82AeECCa746271569f06c232c980ad4096a3bD4d",
        "gas": "0x35ca4",
        "value": "0x2386f26fc10000",
        "input": "0x8d0123000000000000000000000000000000000000000000000000000000000000000020000000000000000000000000000000000000000000000000000000000000005b68747470733a2f2f676f6c642d6e6561722d666f782d37342e6d7970696e6174612e636c6f75642f697066732f516d517977463375744a3861705752545235596b7a594677706d453553555a5a52514d6472647a544d774a3859750000000000",
        "nonce": "0x3b",
        "chainId": "0x13882"
      },
      "additionalContracts": [],
      "isFixedGasLimit": false
    },
    {
      "hash": "0x5db59a9776e5031fd5e7fbdae13ca0777be6d81b96d06cfe6364804f1dce622f",
      "transactionType": "CALL",
      "contractName": null,
      "contractAddress": "0x33d63DF28F46dC37efbBA55AF25F734417Dd1Acb",
      "function": "buyToken(address,uint256,uint256)",
      "arguments": [
        "0x3FDF7Fd35F4e16afB548a79AB5eE40E8C344982D",
        "1",
        "2"
      ],
      "transaction": {
        "from": "0x3FDF7Fd35F4e16afB548a79AB5eE40E8C344982D",
        "to": "0x33d63DF28F46dC37efbBA55AF25F734417Dd1Acb",
        "gas": "0xbce8",
        "value": "0x470de4df820000",
        "input": "0xe671499b0000000000000000000000003fdf7fd35f4e16afb548a79ab5ee40e8c344982d00000000000000000000000000000000000000000000000000000000000000010000000000000000000000000000000000000000000000000000000000000002",
        "nonce": "0x3c",
        "chainId": "0x13882"
      },
      "additionalContracts": [],
      "isFixedGasLimit": false
    },
    {
      "hash": "0x31245eb90c3ce807d6ea9999deb075b23ee4dc4037863a32e4f908ac57db7c31",
      "transactionType": "CALL",
      "contractName": null,
      "contractAddress": "0xdBdF8c47C566A2656bFAE5c06FbF928174c4F1bf",
      "function": "transfer(address,uint256)",
      "arguments": [
        "0x3FDF7Fd35F4e16afB548a79AB5eE40E8C344982D",
        "1000000000000000000"
      ],
      "transaction": {
        "from": "0x3FDF7Fd35F4e16afB548a79AB5eE40E8C344982D",
        "to": "0xdBdF8c47C566A2656bFAE5c06FbF928174c4F1bf",
        "gas": "0xb72e",
        "value": "0x0",
        "input": "0xa9059cbb0000000000000000000000003fdf7fd35f4e16afb548a79ab5ee40e8c344982d0000000000000000000000000000000000000000000000000de0b6b3a7640000",
        "nonce": "0x3d",
        "chainId": "0x13882"
      },
      "additionalContracts": [],
      "isFixedGasLimit": false
    },
    {
      "hash": "0xe4bf673dc0b37618b80580e3416392085721e83f6b0af51e2d4e57549e80ed02",
      "transactionType": "CALL",
      "contractName": null,
      "contractAddress": "0x33d63DF28F46dC37efbBA55AF25F734417Dd1Acb",
      "function": "safeTransferFrom(address,address,uint256,uint256,bytes)",
      "arguments": [
        "0x3FDF7Fd35F4e16afB548a79AB5eE40E8C344982D",
        "0x8493a952bfD0EA51f30a2fE93994768e88505b48",
        "1",
        "1",
        "0x"
      ],
      "transaction": {
        "from": "0x3FDF7Fd35F4e16afB548a79AB5eE40E8C344982D",
        "to": "0x33d63DF28F46dC37efbBA55AF25F734417Dd1Acb",
        "gas": "0xd7c6",
        "value": "0x0",
        "input": "0xf242432a0000000000000000000000003fdf7fd35f4e16afb548a79ab5ee40e8c344982d0000000000000000000000008493a952bfd0ea51f30a2fe93994768e88505b480000000000000000000000000000000000000000000000000000000000000001000000000000000000000000000000000000000000000000000000000000000100000000000000000000000000000000000000000000000000000000000000a00000000000000000000000000000000000000000000000000000000000000000",
        "nonce": "0x3e",
        "chainId": "0x13882"
      },
      "additionalContracts": [],
      "isFixedGasLimit": false
    },
    {
      "hash": "0x82aa63583347552d88262a0d8843564642552b1dc67486249a1107a7df039ebc",
      "transactionType": "CALL",
      "contractName": null,
      "contractAddress": "0x33d63DF28F46dC37efbBA55AF25F734417Dd1Acb",
      "function": "safeBatchTransferFrom(address,address,uint256[],uint256[],bytes)",
      "arguments": [
        "0x3FDF7Fd35F4e16afB548a79AB5eE40E8C344982D",
        "0x8493a952bfD0EA51f30a2fE93994768e88505b48",
        "[1]",
        "[1]",
        "0x"
      ],
      "transaction": {
        "from": "0x3FDF7Fd35F4e16afB548a79AB5eE40E8C344982D",
        "to": "0x33d63DF28F46dC37efbBA55AF25F734417Dd1Acb",
        "gas": "0xdf45",
        "value": "0x0",
        "input": "0x2eb2c2d60000000000000000000000003fdf7fd35f4e16afb548a79ab5ee40e8c344982d0000000000000000000000008493a952bfd0ea51f30a2fe93994768e88505b4800000000000000000000000000000000000000000000000000000000000000a000000000000000000000000000000000000000000000000000000000000000e0000000000000000000000000000000000000000000000000000000000000012000000000000000000000000000000000000000000000000000000000000000010000000000000000000000000000000000000000000000000000000000000001000000000000000000000000000000000000000000000000000000000000000100000000000000000000000000000000000000000000000000000000000000010000000000000000000000000000000000000000000000000000000000000000",
        "nonce": "0x3f",
        "chainId": "0x13882"
      },
      "additionalContracts": [],
      "isFixedGasLimit": false
    },
    {
      "hash": "0x27d47d9ff7bf80f8bc7227359cec06fddc23de2ab55749fedd59a9507c13bf69",
      "transactionType": "CALL",
      "contractName": null,
      "contractAddress": "0xD576865FDF1A7D88168A5B6daA63A7BA51999450",
      "function": "safeMint(address)",
      "arguments": [
        "0x3FDF7Fd35F4e16afB548a79AB5eE40E8C344982D"
      ],
      "transaction": {
        "from": "0x3FDF7Fd35F4e16afB548a79AB5eE40E8C344982D",
        "to": "0xD576865FDF1A7D88168A5B6daA63A7BA51999450",
        "gas": "0x13f27",
        "value": "0x0",
        "input": "0x40d097c30000000000000000000000003fdf7fd35f4e16afb548a79ab5ee40e8c344982d",
        "nonce": "0x40",
        "chainId": "0x13882"
      },
      "additionalContracts": [],
      "isFixedGasLimit": false
    }
  ],
  "receipts": [
    {
      "status": "0x1",
      "cumulativeGasUsed": "0x831f",
      "logs": [
        {
          "address": "0x0000000000000000000000000000000000001010",
          "topics": [
            "0xe6497e3ee548a3372136af2fcb0696db31fc6cf20260707645068bd3fe97f3c4",
            "0x0000000000000000000000000000000000000000000000000000000000001010",
            "0x0000000000000000000000003fdf7fd35f4e16afb548a79ab5ee40e8c344982d",
            "0x000000000000000000000000dbdf8c47c566a2656bfae5c06fbf928174c4f1bf"
          ],
          "data": "0x00000000000000000000000000000000000000000000000000470de4df82000000000000000000000000000000000000000000000000000003a6fc7c47882651000000000000000000000000000000000000000000000000011c37937e080000000000000000000000000000000000000000000000000000035fee9768062651000000000000000000000000000000000000000000000000016345785d8a0000",
          "blockHash": "0x11fa11b684f9e56850162132d2c54f4610beb1df5afc821c07af7486e601b2bc",
          "blockNumber": "0xc4c616",
          "transactionHash": "0x49176acf855cfc3c7d28bb3312cbfd6d3d0360443efb8bdf4126ccc619a9d8a6",
          "transactionIndex": "0x0",
          "logIndex": "0x0",
          "removed": false
        },
        {
          "address": "0xdBdF8c47C566A2656bFAE5c06FbF928174c4F1bf",
          "topics": [
            "0xddf252ad1be2c89b69c2b068fc378daa952ba7f163c4a11628f55a4df523b3ef",
            "0x0000000000000000000000000000000000000000000000000000000000000000",
            "0x0000000000000000000000003fdf7fd35f4e16afb548a79ab5ee40e8c344982d"
          ],
          "data": "0x0000000000000000000000000000000000000000000000001bc16d674ec80000",
          "blockHash": "0x11fa11b684f9e56850162132d2c54f4610beb1df5afc821c07af7486e601b2bc",
          "blockNumber": "0xc4c616",
          "transactionHash": "0x49176acf855cfc3c7d28bb3312cbfd6d3d0360443efb8bdf4126ccc619a9d8a6",
          "transactionIndex": "0x0",
          "logIndex": "0x1",
          "removed": false
        },
        {
          "address": "0x0000000000000000000000000000000000001010",
          "topics": [
            "0x4dfe1bbbcf077ddc3e01291eea2d5c70c2b422b415d95645b9adcfd678cb1d63",
            "0x0000000000000000000000000000000000000000000000000000000000001010",
            "0x0000000000000000000000003fdf7fd35f4e16afb548a79ab5ee40e8c344982d",
            "0x0000000000000000000000004631753190f2f5a15a7ba172bbac102b7d95fa22"
          ],
          "data": "0x000000000000000000000000000000000000000000000000000393dec955d40000000000000000000000000000000000000000000000000003abed7e17f1e6e6000000000000000000000000000000000000000000000222ffff8160f36f828a00000000000000000000000000000000000000000000000003a8599f4e9c12e60000000000000000000000000000000000000000000002230003153fbcc5568a",
          "blockHash": "0x11fa11b684f9e56850162132d2c54f4610beb1df5afc821c07af7486e601b2bc",
          "blockNumber": "0xc4c616",
          "transactionHash": "0x49176acf855cfc3c7d28bb3312cbfd6d3d0360443efb8bdf4126ccc619a9d8a6",
          "transactionIndex": "0x0",
          "logIndex": "0x2",
          "removed": false
        }
      ],
      "logsBloom": "0x00000000000000000000000000000000000000002000000000000000000000000000000000000000000000100000000000008000000000000000000040000000000000008000000000000008000004800000400000000000010100000000000000000000020000100000000000000800000000000000000080040010000000000000000000000000000000020000000000000001000000000000000000000000200000000000000000020000000000000000000000000000000000000000004000000002000000000001000000000000000000000000800002108000000020000000000000000000000000000000000000000000000000000000000000100000",
      "type": "0x2",
      "transactionHash": "0x49176acf855cfc3c7d28bb3312cbfd6d3d0360443efb8bdf4126ccc619a9d8a6",
      "transactionIndex": "0x0",
      "blockHash": "0x11fa11b684f9e56850162132d2c54f4610beb1df5afc821c07af7486e601b2bc",
      "blockNumber": "0xc4c616",
      "gasUsed": "0x831f",
      "effectiveGasPrice": "0x6fc23ac0f",
      "from": "0x3FDF7Fd35F4e16afB548a79AB5eE40E8C344982D",
      "to": "0xdBdF8c47C566A2656bFAE5c06FbF928174c4F1bf",
      "contractAddress": null
    },
    {
      "status": "0x1",
      "cumulativeGasUsed": "0x11e10",
      "logs": [
        {
          "address": "0xdBdF8c47C566A2656bFAE5c06FbF928174c4F1bf",
          "topics": [
            "0xddf252ad1be2c89b69c2b068fc378daa952ba7f163c4a11628f55a4df523b3ef",
            "0x0000000000000000000000003fdf7fd35f4e16afb548a79ab5ee40e8c344982d",
            "0x0000000000000000000000003fdf7fd35f4e16afb548a79ab5ee40e8c344982d"
          ],
          "data": "0x00000000000000000000000000000000000000000000000000b1a2bc2ec50000",
          "blockHash": "0x11fa11b684f9e56850162132d2c54f4610beb1df5afc821c07af7486e601b2bc",
          "blockNumber": "0xc4c616",
          "transactionHash": "0xdd40373d0c6eae2544dd6bd9a2fbd79b59f1ba39d0e4973c5235ee1907fa0e41",
          "transactionIndex": "0x1",
          "logIndex": "0x3",
          "removed": false
        },
        {
          "address": "0xdBdF8c47C566A2656bFAE5c06FbF928174c4F1bf",
          "topics": [
            "0xddf252ad1be2c89b69c2b068fc378daa952ba7f163c4a11628f55a4df523b3ef",
            "0x0000000000000000000000003fdf7fd35f4e16afb548a79ab5ee40e8c344982d",
            "0x0000000000000000000000008493a952bfd0ea51f30a2fe93994768e88505b48"
          ],
          "data": "0x00000000000000000000000000000000000000000000000044b1eec6162f0000",
          "blockHash": "0x11fa11b684f9e56850162132d2c54f4610beb1df5afc821c07af7486e601b2bc",
          "blockNumber": "0xc4c616",
          "transactionHash": "0xdd40373d0c6eae2544dd6bd9a2fbd79b59f1ba39d0e4973c5235ee1907fa0e41",
          "transactionIndex": "0x1",
          "logIndex": "0x4",
          "removed": false
        },
        {
          "address": "0x0000000000000000000000000000000000001010",
          "topics": [
            "0x4dfe1bbbcf077ddc3e01291eea2d5c70c2b422b415d95645b9adcfd678cb1d63",
            "0x0000000000000000000000000000000000000000000000000000000000001010",
            "0x0000000000000000000000003fdf7fd35f4e16afb548a79ab5ee40e8c344982d",
            "0x0000000000000000000000004631753190f2f5a15a7ba172bbac102b7d95fa22"
          ],
          "data": "0x00000000000000000000000000000000000000000000000000043a40d30cec0000000000000000000000000000000000000000000000000003614bba6f1264150000000000000000000000000000000000000000000002230003153fbcc5568a000000000000000000000000000000000000000000000000035d11799c05781500000000000000000000000000000000000000000000022300074f808fd2428a",
          "blockHash": "0x11fa11b684f9e56850162132d2c54f4610beb1df5afc821c07af7486e601b2bc",
          "blockNumber": "0xc4c616",
          "transactionHash": "0xdd40373d0c6eae2544dd6bd9a2fbd79b59f1ba39d0e4973c5235ee1907fa0e41",
          "transactionIndex": "0x1",
          "logIndex": "0x5",
          "removed": false
        }
      ],
      "logsBloom": "0x00000000000000000000000000000000000000002000000000000000000000000000000000000000000000000000000000008000000000000000000040000000000000008000000000000008000004800000000000000000000100000000000000000000000000100000000000000000000000000000000080040010000000000000000000000000400000000000000000000001000000000000000000000000200000000400000000020000000000000000000000000000000000000000004000000002000000000001000000000000000000000000000002100020000000000000000000000000000000000000000000000000000000000000000000100000",
      "type": "0x2",
      "transactionHash": "0xdd40373d0c6eae2544dd6bd9a2fbd79b59f1ba39d0e4973c5235ee1907fa0e41",
      "transactionIndex": "0x1",
      "blockHash": "0x11fa11b684f9e56850162132d2c54f4610beb1df5afc821c07af7486e601b2bc",
      "blockNumber": "0xc4c616",
      "gasUsed": "0x9af1",
      "effectiveGasPrice": "0x6fc23ac0f",
      "from": "0x3FDF7Fd35F4e16afB548a79AB5eE40E8C344982D",
      "to": "0xdBdF8c47C566A2656bFAE5c06FbF928174c4F1bf",
      "contractAddress": null
    },
    {
      "status": "0x1",
      "cumulativeGasUsed": "0x1907f",
      "logs": [
        {
          "address": "0xdBdF8c47C566A2656bFAE5c06FbF928174c4F1bf",
          "topics": [
            "0x8c5be1e5ebec7d5bd14f71427d1e84f3dd0314c0f7b2291e5b200ac8c7c3b925",
            "0x0000000000000000000000003fdf7fd35f4e16afb548a79ab5ee40e8c344982d",
            "0x0000000000000000000000003fdf7fd35f4e16afb548a79ab5ee40e8c344982d"
          ],
          "data": "0x0000000000000000000000000000000000000000000000004563918244f40000",
          "blockHash": "0x11fa11b684f9e56850162132d2c54f4610beb1df5afc821c07af7486e601b2bc",
          "blockNumber": "0xc4c616",
          "transactionHash": "0xb22b9b3bbd00c29dd19801aca598518eb905515ba641cb8964911abffeb0cc9c",
          "transactionIndex": "0x2",
          "logIndex": "0x6",
          "removed": false
        },
        {
          "address": "0x0000000000000000000000000000000000001010",
          "topics": [
            "0x4dfe1bbbcf077ddc3e01291eea2d5c70c2b422b415d95645b9adcfd678cb1d63",
            "0x0000000000000000000000000000000000000000000000000000000000001010",
            "0x0000000000000000000000003fdf7fd35f4e16afb548a79ab5ee40e8c344982d",
            "0x0000000000000000000000004631753190f2f5a15a7ba172bbac102b7d95fa22"
          ],
          "data": "0x00000000000000000000000000000000000000000000000000031f4f360f9400000000000000000000000000000000000000000000000000035d11799bfc63f600000000000000000000000000000000000000000000022300074f808fd2428a0000000000000000000000000000000000000000000000000359f22a65eccff6000000000000000000000000000000000000000000000223000a6ecfc5e1d68a",
          "blockHash": "0x11fa11b684f9e56850162132d2c54f4610beb1df5afc821c07af7486e601b2bc",
          "blockNumber": "0xc4c616",
          "transactionHash": "0xb22b9b3bbd00c29dd19801aca598518eb905515ba641cb8964911abffeb0cc9c",
          "transactionIndex": "0x2",
          "logIndex": "0x7",
          "removed": false
        }
      ],
      "logsBloom": "0x00000000000000000000000000000000000000002000000000000000000000000000000000000000000000000000000000008000000000000000000040200000000000008000000000000000000004800000000000000000000100000000000000000000000000100000000000000000000000000000000080040000000000000000000000000000000000000000000000000001000000000000000000000000220000000000000000020000000000000000000000000000000000000000004000000000000000000001000000000000000000000000000002100000000000000010000000000000000000000000000000000000000000000000000000100000",
      "type": "0x2",
      "transactionHash": "0xb22b9b3bbd00c29dd19801aca598518eb905515ba641cb8964911abffeb0cc9c",
      "transactionIndex": "0x2",
      "blockHash": "0x11fa11b684f9e56850162132d2c54f4610beb1df5afc821c07af7486e601b2bc",
      "blockNumber": "0xc4c616",
      "gasUsed": "0x726f",
      "effectiveGasPrice": "0x6fc23ac0f",
      "from": "0x3FDF7Fd35F4e16afB548a79AB5eE40E8C344982D",
      "to": "0xdBdF8c47C566A2656bFAE5c06FbF928174c4F1bf",
      "contractAddress": null
    },
    {
      "status": "0x1",
      "cumulativeGasUsed": "0x24ae2",
      "logs": [
        {
          "address": "0xdBdF8c47C566A2656bFAE5c06FbF928174c4F1bf",
          "topics": [
            "0xddf252ad1be2c89b69c2b068fc378daa952ba7f163c4a11628f55a4df523b3ef",
            "0x0000000000000000000000003fdf7fd35f4e16afb548a79ab5ee40e8c344982d",
            "0x0000000000000000000000003fdf7fd35f4e16afb548a79ab5ee40e8c344982d"
          ],
          "data": "0x00000000000000000000000000000000000000000000000000470de4df820000",
          "blockHash": "0x11fa11b684f9e56850162132d2c54f4610beb1df5afc821c07af7486e601b2bc",
          "blockNumber": "0xc4c616",
          "transactionHash": "0xcc82f33ab789a12ee8485124aa477ba4c31880d6f1656a0ebd4d6a8d650a2be3",
          "transactionIndex": "0x3",
          "logIndex": "0x8",
          "removed": false
        },
        {
          "address": "0xdBdF8c47C566A2656bFAE5c06FbF928174c4F1bf",
          "topics": [
            "0xddf252ad1be2c89b69c2b068fc378daa952ba7f163c4a11628f55a4df523b3ef",
            "0x0000000000000000000000003fdf7fd35f4e16afb548a79ab5ee40e8c344982d",
            "0x0000000000000000000000008493a952bfd0ea51f30a2fe93994768e88505b48"
          ],
          "data": "0x0000000000000000000000000000000000000000000000001b7a5f826f460000",
          "blockHash": "0x11fa11b684f9e56850162132d2c54f4610beb1df5afc821c07af7486e601b2bc",
          "blockNumber": "0xc4c616",
          "transactionHash": "0xcc82f33ab789a12ee8485124aa477ba4c31880d6f1656a0ebd4d6a8d650a2be3",
          "transactionIndex": "0x3",
          "logIndex": "0x9",
          "removed": false
        },
        {
          "address": "0xdBdF8c47C566A2656bFAE5c06FbF928174c4F1bf",
          "topics": [
            "0x8c5be1e5ebec7d5bd14f71427d1e84f3dd0314c0f7b2291e5b200ac8c7c3b925",
            "0x0000000000000000000000003fdf7fd35f4e16afb548a79ab5ee40e8c344982d",
            "0x0000000000000000000000003fdf7fd35f4e16afb548a79ab5ee40e8c344982d"
          ],
          "data": "0x00000000000000000000000000000000000000000000000029a2241af62c0000",
          "blockHash": "0x11fa11b684f9e56850162132d2c54f4610beb1df5afc821c07af7486e601b2bc",
          "blockNumber": "0xc4c616",
          "transactionHash": "0xcc82f33ab789a12ee8485124aa477ba4c31880d6f1656a0ebd4d6a8d650a2be3",
          "transactionIndex": "0x3",
          "logIndex": "0xa",
          "removed": false
        },
        {
          "address": "0x0000000000000000000000000000000000001010",
          "topics": [
            "0x4dfe1bbbcf077ddc3e01291eea2d5c70c2b422b415d95645b9adcfd678cb1d63",
            "0x0000000000000000000000000000000000000000000000000000000000001010",
            "0x0000000000000000000000003fdf7fd35f4e16afb548a79ab5ee40e8c344982d",
            "0x0000000000000000000000004631753190f2f5a15a7ba172bbac102b7d95fa22"
          ],
          "data": "0x000000000000000000000000000000000000000000000000000515e56cc384000000000000000000000000000000000000000000000000000359f22a65e61b75000000000000000000000000000000000000000000000223000a6ecfc5e1d68a0000000000000000000000000000000000000000000000000354dc44f9229775000000000000000000000000000000000000000000000223000f84b532a55a8a",
          "blockHash": "0x11fa11b684f9e56850162132d2c54f4610beb1df5afc821c07af7486e601b2bc",
          "blockNumber": "0xc4c616",
          "transactionHash": "0xcc82f33ab789a12ee8485124aa477ba4c31880d6f1656a0ebd4d6a8d650a2be3",
          "transactionIndex": "0x3",
          "logIndex": "0xb",
          "removed": false
        }
      ],
      "logsBloom": "0x00000000000000000000000000000000000000002000000000000000000000000000000000000000000000000000000000008000000000000000000040200000000000008000000000000008000004800000000000000000000100000000000000000000000000100000000000000000000000000000000080040010000000000000000000000000400000000000000000000001000000000000000000000000220000000400000000020000000000000000000000000000000000000000004000000002000000000001000000000000000000000000000002100020000000000010000000000000000000000000000000000000000000000000000000100000",
      "type": "0x2",
      "transactionHash": "0xcc82f33ab789a12ee8485124aa477ba4c31880d6f1656a0ebd4d6a8d650a2be3",
      "transactionIndex": "0x3",
      "blockHash": "0x11fa11b684f9e56850162132d2c54f4610beb1df5afc821c07af7486e601b2bc",
      "blockNumber": "0xc4c616",
      "gasUsed": "0xba63",
      "effectiveGasPrice": "0x6fc23ac0f",
      "from": "0x3FDF7Fd35F4e16afB548a79AB5eE40E8C344982D",
      "to": "0xdBdF8c47C566A2656bFAE5c06FbF928174c4F1bf",
      "contractAddress": null
    },
    {
      "status": "0x1",
      "cumulativeGasUsed": "0x2cc0d",
      "logs": [
        {
          "address": "0x0000000000000000000000000000000000001010",
          "topics": [
            "0xe6497e3ee548a3372136af2fcb0696db31fc6cf20260707645068bd3fe97f3c4",
            "0x0000000000000000000000000000000000000000000000000000000000001010",
            "0x0000000000000000000000003fdf7fd35f4e16afb548a79ab5ee40e8c344982d",
            "0x00000000000000000000000033d63df28f46dc37efbba55af25f734417dd1acb"
          ],
          "data": "0x00000000000000000000000000000000000000000000000000470de4df820000000000000000000000000000000000000000000000000000034fb4c64668ba10000000000000000000000000000000000000000000000000039bb49f599a00000000000000000000000000000000000000000000000000000308a6e166e6ba1000000000000000000000000000000000000000000000000003e2c284391c0000",
          "blockHash": "0x11fa11b684f9e56850162132d2c54f4610beb1df5afc821c07af7486e601b2bc",
          "blockNumber": "0xc4c616",
          "transactionHash": "0xb7f21dac4e5a058173ac261ce75c72964b3720c206a15a369c1e3e73efdd4e9c",
          "transactionIndex": "0x4",
          "logIndex": "0xc",
          "removed": false
        },
        {
          "address": "0x33d63DF28F46dC37efbBA55AF25F734417Dd1Acb",
          "topics": [
            "0xc3d58168c5ae7397731d063d5bbf3d657854427343f4c083240f7aacaa2d0f62",
            "0x0000000000000000000000003fdf7fd35f4e16afb548a79ab5ee40e8c344982d",
            "0x0000000000000000000000000000000000000000000000000000000000000000",
            "0x0000000000000000000000003fdf7fd35f4e16afb548a79ab5ee40e8c344982d"
          ],
          "data": "0x00000000000000000000000000000000000000000000000000000000000000010000000000000000000000000000000000000000000000000000000000000002",
          "blockHash": "0x11fa11b684f9e56850162132d2c54f4610beb1df5afc821c07af7486e601b2bc",
          "blockNumber": "0xc4c616",
          "transactionHash": "0xb7f21dac4e5a058173ac261ce75c72964b3720c206a15a369c1e3e73efdd4e9c",
          "transactionIndex": "0x4",
          "logIndex": "0xd",
          "removed": false
        },
        {
          "address": "0x0000000000000000000000000000000000001010",
          "topics": [
            "0x4dfe1bbbcf077ddc3e01291eea2d5c70c2b422b415d95645b9adcfd678cb1d63",
            "0x0000000000000000000000000000000000000000000000000000000000001010",
            "0x0000000000000000000000003fdf7fd35f4e16afb548a79ab5ee40e8c344982d",
            "0x0000000000000000000000004631753190f2f5a15a7ba172bbac102b7d95fa22"
          ],
          "data": "0x0000000000000000000000000000000000000000000000000003863a53a9e4000000000000000000000000000000000000000000000000000354dc44f917aba8000000000000000000000000000000000000000000000223000f84b532a55a8a0000000000000000000000000000000000000000000000000351560aa56dc7a800000000000000000000000000000000000000000000022300130aef864f3e8a",
          "blockHash": "0x11fa11b684f9e56850162132d2c54f4610beb1df5afc821c07af7486e601b2bc",
          "blockNumber": "0xc4c616",
          "transactionHash": "0xb7f21dac4e5a058173ac261ce75c72964b3720c206a15a369c1e3e73efdd4e9c",
          "transactionIndex": "0x4",
          "logIndex": "0xe",
          "removed": false
        }
      ],
      "logsBloom": "0x00000000000000000000000000000000000000002000000000000000000000000000000000000000000000100000000000008000000000200000000040002000000000008000000000000000000000800000000000000000000100000000000000000000020000100000000000000800080000000000000080040008000000000000000000000000000000000000000000000000004000000400000000000000200000000000000000000000000000000000000000000000000000000000004000000000000000000001000000000000000000000008800002108000000020000000000000000000000000000000000000000000000000002000080000100000",
      "type": "0x2",
      "transactionHash": "0xb7f21dac4e5a058173ac261ce75c72964b3720c206a15a369c1e3e73efdd4e9c",
      "transactionIndex": "0x4",
      "blockHash": "0x11fa11b684f9e56850162132d2c54f4610beb1df5afc821c07af7486e601b2bc",
      "blockNumber": "0xc4c616",
      "gasUsed": "0x812b",
      "effectiveGasPrice": "0x6fc23ac0f",
      "from": "0x3FDF7Fd35F4e16afB548a79AB5eE40E8C344982D",
      "to": "0x33d63DF28F46dC37efbBA55AF25F734417Dd1Acb",
      "contractAddress": null
    },
    {
      "status": "0x1",
      "cumulativeGasUsed": "0x36845",
      "logs": [
        {
          "address": "0x33d63DF28F46dC37efbBA55AF25F734417Dd1Acb",
          "topics": [
            "0xc3d58168c5ae7397731d063d5bbf3d657854427343f4c083240f7aacaa2d0f62",
            "0x0000000000000000000000003fdf7fd35f4e16afb548a79ab5ee40e8c344982d",
            "0x0000000000000000000000003fdf7fd35f4e16afb548a79ab5ee40e8c344982d",
            "0x0000000000000000000000008493a952bfd0ea51f30a2fe93994768e88505b48"
          ],
          "data": "0x00000000000000000000000000000000000000000000000000000000000000010000000000000000000000000000000000000000000000000000000000000001",
          "blockHash": "0x11fa11b684f9e56850162132d2c54f4610beb1df5afc821c07af7486e601b2bc",
          "blockNumber": "0xc4c616",
          "transactionHash": "0xbc9ca85ff9479c4478663d217a4467feeed5357585580c87ce4b23e728a08f0b",
          "transactionIndex": "0x5",
          "logIndex": "0xf",
          "removed": false
        },
        {
          "address": "0x0000000000000000000000000000000000001010",
          "topics": [
            "0x4dfe1bbbcf077ddc3e01291eea2d5c70c2b422b415d95645b9adcfd678cb1d63",
            "0x0000000000000000000000000000000000000000000000000000000000001010",
            "0x0000000000000000000000003fdf7fd35f4e16afb548a79ab5ee40e8c344982d",
            "0x0000000000000000000000004631753190f2f5a15a7ba172bbac102b7d95fa22"
          ],
          "data": "0x0000000000000000000000000000000000000000000000000004432ce49da000000000000000000000000000000000000000000000000000030a4825c5e4362300000000000000000000000000000000000000000000022300130aef864f3e8a000000000000000000000000000000000000000000000000030604f8e146962300000000000000000000000000000000000000000000022300174e1c6aecde8a",
          "blockHash": "0x11fa11b684f9e56850162132d2c54f4610beb1df5afc821c07af7486e601b2bc",
          "blockNumber": "0xc4c616",
          "transactionHash": "0xbc9ca85ff9479c4478663d217a4467feeed5357585580c87ce4b23e728a08f0b",
          "transactionIndex": "0x5",
          "logIndex": "0x10",
          "removed": false
        }
      ],
      "logsBloom": "0x00000000000000000000000000000000000000002000000000000000000000000000000000000000000000000000000000008000000000000000000040002000000000008000000000000000000000800000000000000000000100000000000000000000000000100000000000000000080000000000000080040008000000000000000000000000400000000000000000000000000000000000000000000000200000000400000000000000000000000000000000000000000000000000004000000000000000000001000000000000000000000008000002100020000000000000000000000000000000000000000000000000000000002000080000100000",
      "type": "0x2",
      "transactionHash": "0xbc9ca85ff9479c4478663d217a4467feeed5357585580c87ce4b23e728a08f0b",
      "transactionIndex": "0x5",
      "blockHash": "0x11fa11b684f9e56850162132d2c54f4610beb1df5afc821c07af7486e601b2bc",
      "blockNumber": "0xc4c616",
      "gasUsed": "0x9c38",
      "effectiveGasPrice": "0x6fc23ac0f",
      "from": "0x3FDF7Fd35F4e16afB548a79AB5eE40E8C344982D",
      "to": "0x33d63DF28F46dC37efbBA55AF25F734417Dd1Acb",
      "contractAddress": null
    },
    {
      "status": "0x1",
      "cumulativeGasUsed": "0x5b4be",
      "logs": [
        {
          "address": "0x0000000000000000000000000000000000001010",
          "topics": [
            "0xe6497e3ee548a3372136af2fcb0696db31fc6cf20260707645068bd3fe97f3c4",
            "0x0000000000000000000000000000000000000000000000000000000000001010",
            "0x0000000000000000000000003fdf7fd35f4e16afb548a79ab5ee40e8c344982d",
            "0x00000000000000000000000082aeecca746271569f06c232c980ad4096a3bd4d"
          ],
          "data": "0x000000000000000000000000000000000000000000000000002386f26fc1000000000000000000000000000000000000000000000000000002ee89778460d13f000000000000000000000000000000000000000000000000011c37937e08000000000000000000000000000000000000000000000000000002cb0285149fd13f000000000000000000000000000000000000000000000000013fbe85edc90000",
          "blockHash": "0x11fa11b684f9e56850162132d2c54f4610beb1df5afc821c07af7486e601b2bc",
          "blockNumber": "0xc4c616",
          "transactionHash": "0x7345edf0ce0e45ba3fcef4b710ce1685e6bd8513d344dceb83b92fa7f149c309",
          "transactionIndex": "0x6",
          "logIndex": "0x11",
          "removed": false
        },
        {
          "address": "0x82AeECCa746271569f06c232c980ad4096a3bD4d",
          "topics": [
            "0xddf252ad1be2c89b69c2b068fc378daa952ba7f163c4a11628f55a4df523b3ef",
            "0x0000000000000000000000000000000000000000000000000000000000000000",
            "0x0000000000000000000000003fdf7fd35f4e16afb548a79ab5ee40e8c344982d",
            "0x0000000000000000000000000000000000000000000000000000000000000009"
          ],
          "data": "0x",
          "blockHash": "0x11fa11b684f9e56850162132d2c54f4610beb1df5afc821c07af7486e601b2bc",
          "blockNumber": "0xc4c616",
          "transactionHash": "0x7345edf0ce0e45ba3fcef4b710ce1685e6bd8513d344dceb83b92fa7f149c309",
          "transactionIndex": "0x6",
          "logIndex": "0x12",
          "removed": false
        },
        {
          "address": "0x82AeECCa746271569f06c232c980ad4096a3bD4d",
          "topics": [
            "0xf8e1a15aba9398e019f0b49df1a4fde98ee17ae345cb5f6b5e2c27f5033e8ce7"
          ],
          "data": "0x0000000000000000000000000000000000000000000000000000000000000009",
          "blockHash": "0x11fa11b684f9e56850162132d2c54f4610beb1df5afc821c07af7486e601b2bc",
          "blockNumber": "0xc4c616",
          "transactionHash": "0x7345edf0ce0e45ba3fcef4b710ce1685e6bd8513d344dceb83b92fa7f149c309",
          "transactionIndex": "0x6",
          "logIndex": "0x13",
          "removed": false
        },
        {
          "address": "0x0000000000000000000000000000000000001010",
          "topics": [
            "0x4dfe1bbbcf077ddc3e01291eea2d5c70c2b422b415d95645b9adcfd678cb1d63",
            "0x0000000000000000000000000000000000000000000000000000000000001010",
            "0x0000000000000000000000003fdf7fd35f4e16afb548a79ab5ee40e8c344982d",
            "0x0000000000000000000000004631753190f2f5a15a7ba172bbac102b7d95fa22"
          ],
          "data": "0x00000000000000000000000000000000000000000000000000100e6f1bec4c00000000000000000000000000000000000000000000000000030604f8e13d6edb00000000000000000000000000000000000000000000022300174e1c6aecde8a00000000000000000000000000000000000000000000000002f5f689c55122db00000000000000000000000000000000000000000000022300275c8b86d92a8a",
          "blockHash": "0x11fa11b684f9e56850162132d2c54f4610beb1df5afc821c07af7486e601b2bc",
          "blockNumber": "0xc4c616",
          "transactionHash": "0x7345edf0ce0e45ba3fcef4b710ce1685e6bd8513d344dceb83b92fa7f149c309",
          "transactionIndex": "0x6",
          "logIndex": "0x14",
          "removed": false
        }
      ],
      "logsBloom": "0x00000000000000000000000000000000000000002000000000000000000000000000000000000000000000100200000000008000000000000000000040a00000000000008000000000000008000000a0000000000000000000010000000000000000000002000010000000000000080000000000000000008004001000008000000000000100000000000000000000000000100000000000000000000000000020000000000000000000000000000000200000000000000000000000000000c000000002000000000001000000000000000000000000800002108000000020000080000000000000200000000000000000000000000000000000000000900000",
      "type": "0x2",
      "transactionHash": "0x7345edf0ce0e45ba3fcef4b710ce1685e6bd8513d344dceb83b92fa7f149c309",
      "transactionIndex": "0x6",
      "blockHash": "0x11fa11b684f9e56850162132d2c54f4610beb1df5afc821c07af7486e601b2bc",
      "blockNumber": "0xc4c616",
      "gasUsed": "0x24c79",
      "effectiveGasPrice": "0x6fc23ac0f",
      "from": "0x3FDF7Fd35F4e16afB548a79AB5eE40E8C344982D",
      "to": "0x82AeECCa746271569f06c232c980ad4096a3bD4d",
      "contractAddress": null
    },
    {
      "status": "0x1",
      "cumulativeGasUsed": "0x635e9",
      "logs": [
        {
          "address": "0x0000000000000000000000000000000000001010",
          "topics": [
            "0xe6497e3ee548a3372136af2fcb0696db31fc6cf20260707645068bd3fe97f3c4",
            "0x0000000000000000000000000000000000000000000000000000000000001010",
            "0x0000000000000000000000003fdf7fd35f4e16afb548a79ab5ee40e8c344982d",
            "0x00000000000000000000000033d63df28f46dc37efbba55af25f734417dd1acb"
          ],
          "data": "0x00000000000000000000000000000000000000000000000000470de4df82000000000000000000000000000000000000000000000000000002cd4818a2beb62c00000000000000000000000000000000000000000000000003e2c284391c000000000000000000000000000000000000000000000000000002863a33c33cb62c0000000000000000000000000000000000000000000000000429d069189e0000",
          "blockHash": "0x11fa11b684f9e56850162132d2c54f4610beb1df5afc821c07af7486e601b2bc",
          "blockNumber": "0xc4c616",
          "transactionHash": "0x5db59a9776e5031fd5e7fbdae13ca0777be6d81b96d06cfe6364804f1dce622f",
          "transactionIndex": "0x7",
          "logIndex": "0x15",
          "removed": false
        },
        {
          "address": "0x33d63DF28F46dC37efbBA55AF25F734417Dd1Acb",
          "topics": [
            "0xc3d58168c5ae7397731d063d5bbf3d657854427343f4c083240f7aacaa2d0f62",
            "0x0000000000000000000000003fdf7fd35f4e16afb548a79ab5ee40e8c344982d",
            "0x0000000000000000000000000000000000000000000000000000000000000000",
            "0x0000000000000000000000003fdf7fd35f4e16afb548a79ab5ee40e8c344982d"
          ],
          "data": "0x00000000000000000000000000000000000000000000000000000000000000010000000000000000000000000000000000000000000000000000000000000002",
          "blockHash": "0x11fa11b684f9e56850162132d2c54f4610beb1df5afc821c07af7486e601b2bc",
          "blockNumber": "0xc4c616",
          "transactionHash": "0x5db59a9776e5031fd5e7fbdae13ca0777be6d81b96d06cfe6364804f1dce622f",
          "transactionIndex": "0x7",
          "logIndex": "0x16",
          "removed": false
        },
        {
          "address": "0x0000000000000000000000000000000000001010",
          "topics": [
            "0x4dfe1bbbcf077ddc3e01291eea2d5c70c2b422b415d95645b9adcfd678cb1d63",
            "0x0000000000000000000000000000000000000000000000000000000000001010",
            "0x0000000000000000000000003fdf7fd35f4e16afb548a79ab5ee40e8c344982d",
            "0x0000000000000000000000004631753190f2f5a15a7ba172bbac102b7d95fa22"
          ],
          "data": "0x0000000000000000000000000000000000000000000000000003863a53a9e40000000000000000000000000000000000000000000000000002d26f97556da7c400000000000000000000000000000000000000000000022300275c8b86d92a8a00000000000000000000000000000000000000000000000002cee95d01c3c3c4000000000000000000000000000000000000000000000223002ae2c5da830e8a",
          "blockHash": "0x11fa11b684f9e56850162132d2c54f4610beb1df5afc821c07af7486e601b2bc",
          "blockNumber": "0xc4c616",
          "transactionHash": "0x5db59a9776e5031fd5e7fbdae13ca0777be6d81b96d06cfe6364804f1dce622f",
          "transactionIndex": "0x7",
          "logIndex": "0x17",
          "removed": false
        }
      ],
      "logsBloom": "0x00000000000000000000000000000000000000002000000000000000000000000000000000000000000000100000000000008000000000200000000040002000000000008000000000000000000000800000000000000000000100000000000000000000020000100000000000000800080000000000000080040008000000000000000000000000000000000000000000000000004000000400000000000000200000000000000000000000000000000000000000000000000000000000004000000000000000000001000000000000000000000008800002108000000020000000000000000000000000000000000000000000000000002000080000100000",
      "type": "0x2",
      "transactionHash": "0x5db59a9776e5031fd5e7fbdae13ca0777be6d81b96d06cfe6364804f1dce622f",
      "transactionIndex": "0x7",
      "blockHash": "0x11fa11b684f9e56850162132d2c54f4610beb1df5afc821c07af7486e601b2bc",
      "blockNumber": "0xc4c616",
      "gasUsed": "0x812b",
      "effectiveGasPrice": "0x6fc23ac0f",
      "from": "0x3FDF7Fd35F4e16afB548a79AB5eE40E8C344982D",
      "to": "0x33d63DF28F46dC37efbBA55AF25F734417Dd1Acb",
      "contractAddress": null
    },
    {
      "status": "0x1",
      "cumulativeGasUsed": "0x6b32a",
      "logs": [
        {
          "address": "0xdBdF8c47C566A2656bFAE5c06FbF928174c4F1bf",
          "topics": [
            "0xddf252ad1be2c89b69c2b068fc378daa952ba7f163c4a11628f55a4df523b3ef",
            "0x0000000000000000000000003fdf7fd35f4e16afb548a79ab5ee40e8c344982d",
            "0x0000000000000000000000003fdf7fd35f4e16afb548a79ab5ee40e8c344982d"
          ],
          "data": "0x000000000000000000000000000000000000000000000000002386f26fc10000",
          "blockHash": "0x11fa11b684f9e56850162132d2c54f4610beb1df5afc821c07af7486e601b2bc",
          "blockNumber": "0xc4c616",
          "transactionHash": "0x31245eb90c3ce807d6ea9999deb075b23ee4dc4037863a32e4f908ac57db7c31",
          "transactionIndex": "0x8",
          "logIndex": "0x18",
          "removed": false
        },
        {
          "address": "0xdBdF8c47C566A2656bFAE5c06FbF928174c4F1bf",
          "topics": [
            "0xddf252ad1be2c89b69c2b068fc378daa952ba7f163c4a11628f55a4df523b3ef",
            "0x0000000000000000000000003fdf7fd35f4e16afb548a79ab5ee40e8c344982d",
            "0x0000000000000000000000003fdf7fd35f4e16afb548a79ab5ee40e8c344982d"
          ],
          "data": "0x0000000000000000000000000000000000000000000000000dbd2fc137a30000",
          "blockHash": "0x11fa11b684f9e56850162132d2c54f4610beb1df5afc821c07af7486e601b2bc",
          "blockNumber": "0xc4c616",
          "transactionHash": "0x31245eb90c3ce807d6ea9999deb075b23ee4dc4037863a32e4f908ac57db7c31",
          "transactionIndex": "0x8",
          "logIndex": "0x19",
          "removed": false
        },
        {
          "address": "0x0000000000000000000000000000000000001010",
          "topics": [
            "0x4dfe1bbbcf077ddc3e01291eea2d5c70c2b422b415d95645b9adcfd678cb1d63",
            "0x0000000000000000000000000000000000000000000000000000000000001010",
            "0x0000000000000000000000003fdf7fd35f4e16afb548a79ab5ee40e8c344982d",
            "0x0000000000000000000000004631753190f2f5a15a7ba172bbac102b7d95fa22"
          ],
          "data": "0x00000000000000000000000000000000000000000000000000036ae3700aac000000000000000000000000000000000000000000000000000287db78223a323f000000000000000000000000000000000000000000000223002ae2c5da830e8a00000000000000000000000000000000000000000000000002847094b22f863f000000000000000000000000000000000000000000000223002e4da94a8dba8a",
          "blockHash": "0x11fa11b684f9e56850162132d2c54f4610beb1df5afc821c07af7486e601b2bc",
          "blockNumber": "0xc4c616",
          "transactionHash": "0x31245eb90c3ce807d6ea9999deb075b23ee4dc4037863a32e4f908ac57db7c31",
          "transactionIndex": "0x8",
          "logIndex": "0x1a",
          "removed": false
        }
      ],
      "logsBloom": "0x00000000000000000000000000000000000000002000000000000000000000000000000000000000000000000000000000008000000000000000000040000000000000008000000000000008000004800000000000000000000100000000000000000000000000100000000000000000000000000000000080040010000000000000000000000000000000000000000000000001000000000000000000000000200000000000000000020000000000000000000000000000000000000000004000000002000000000001000000000000000000000000000002100000000000000000000000000000000000000000000000000000000000000000000000100000",
      "type": "0x2",
      "transactionHash": "0x31245eb90c3ce807d6ea9999deb075b23ee4dc4037863a32e4f908ac57db7c31",
      "transactionIndex": "0x8",
      "blockHash": "0x11fa11b684f9e56850162132d2c54f4610beb1df5afc821c07af7486e601b2bc",
      "blockNumber": "0xc4c616",
      "gasUsed": "0x7d41",
      "effectiveGasPrice": "0x6fc23ac0f",
      "from": "0x3FDF7Fd35F4e16afB548a79AB5eE40E8C344982D",
      "to": "0xdBdF8c47C566A2656bFAE5c06FbF928174c4F1bf",
      "contractAddress": null
    },
    {
      "status": "0x1",
      "cumulativeGasUsed": "0x74f62",
      "logs": [
        {
          "address": "0x33d63DF28F46dC37efbBA55AF25F734417Dd1Acb",
          "topics": [
            "0xc3d58168c5ae7397731d063d5bbf3d657854427343f4c083240f7aacaa2d0f62",
            "0x0000000000000000000000003fdf7fd35f4e16afb548a79ab5ee40e8c344982d",
            "0x0000000000000000000000003fdf7fd35f4e16afb548a79ab5ee40e8c344982d",
            "0x0000000000000000000000008493a952bfd0ea51f30a2fe93994768e88505b48"
          ],
          "data": "0x00000000000000000000000000000000000000000000000000000000000000010000000000000000000000000000000000000000000000000000000000000001",
          "blockHash": "0x11fa11b684f9e56850162132d2c54f4610beb1df5afc821c07af7486e601b2bc",
          "blockNumber": "0xc4c616",
          "transactionHash": "0xe4bf673dc0b37618b80580e3416392085721e83f6b0af51e2d4e57549e80ed02",
          "transactionIndex": "0x9",
          "logIndex": "0x1b",
          "removed": false
        },
        {
          "address": "0x0000000000000000000000000000000000001010",
          "topics": [
            "0x4dfe1bbbcf077ddc3e01291eea2d5c70c2b422b415d95645b9adcfd678cb1d63",
            "0x0000000000000000000000000000000000000000000000000000000000001010",
            "0x0000000000000000000000003fdf7fd35f4e16afb548a79ab5ee40e8c344982d",
            "0x0000000000000000000000004631753190f2f5a15a7ba172bbac102b7d95fa22"
          ],
          "data": "0x0000000000000000000000000000000000000000000000000004432ce49da00000000000000000000000000000000000000000000000000002847094b2282f70000000000000000000000000000000000000000000000223002e4da94a8dba8a00000000000000000000000000000000000000000000000002802d67cd8a8f70000000000000000000000000000000000000000000000223003290d62f2b5a8a",
          "blockHash": "0x11fa11b684f9e56850162132d2c54f4610beb1df5afc821c07af7486e601b2bc",
          "blockNumber": "0xc4c616",
          "transactionHash": "0xe4bf673dc0b37618b80580e3416392085721e83f6b0af51e2d4e57549e80ed02",
          "transactionIndex": "0x9",
          "logIndex": "0x1c",
          "removed": false
        }
      ],
      "logsBloom": "0x00000000000000000000000000000000000000002000000000000000000000000000000000000000000000000000000000008000000000000000000040002000000000008000000000000000000000800000000000000000000100000000000000000000000000100000000000000000080000000000000080040008000000000000000000000000400000000000000000000000000000000000000000000000200000000400000000000000000000000000000000000000000000000000004000000000000000000001000000000000000000000008000002100020000000000000000000000000000000000000000000000000000000002000080000100000",
      "type": "0x2",
      "transactionHash": "0xe4bf673dc0b37618b80580e3416392085721e83f6b0af51e2d4e57549e80ed02",
      "transactionIndex": "0x9",
      "blockHash": "0x11fa11b684f9e56850162132d2c54f4610beb1df5afc821c07af7486e601b2bc",
      "blockNumber": "0xc4c616",
      "gasUsed": "0x9c38",
      "effectiveGasPrice": "0x6fc23ac0f",
      "from": "0x3FDF7Fd35F4e16afB548a79AB5eE40E8C344982D",
      "to": "0x33d63DF28F46dC37efbBA55AF25F734417Dd1Acb",
      "contractAddress": null
    },
    {
      "status": "0x1",
      "cumulativeGasUsed": "0x7f107",
      "logs": [
        {
          "address": "0x33d63DF28F46dC37efbBA55AF25F734417Dd1Acb",
          "topics": [
            "0xc3d58168c5ae7397731d063d5bbf3d657854427343f4c083240f7aacaa2d0f62",
            "0x0000000000000000000000003fdf7fd35f4e16afb548a79ab5ee40e8c344982d",
            "0x0000000000000000000000003fdf7fd35f4e16afb548a79ab5ee40e8c344982d",
            "0x0000000000000000000000008493a952bfd0ea51f30a2fe93994768e88505b48"
          ],
          "data": "0x00000000000000000000000000000000000000000000000000000000000000010000000000000000000000000000000000000000000000000000000000000001",
          "blockHash": "0x11fa11b684f9e56850162132d2c54f4610beb1df5afc821c07af7486e601b2bc",
          "blockNumber": "0xc4c616",
          "transactionHash": "0x82aa63583347552d88262a0d8843564642552b1dc67486249a1107a7df039ebc",
          "transactionIndex": "0xa",
          "logIndex": "0x1d",
          "removed": false
        },
        {
          "address": "0x0000000000000000000000000000000000001010",
          "topics": [
            "0x4dfe1bbbcf077ddc3e01291eea2d5c70c2b422b415d95645b9adcfd678cb1d63",
            "0x0000000000000000000000000000000000000000000000000000000000001010",
            "0x0000000000000000000000003fdf7fd35f4e16afb548a79ab5ee40e8c344982d",
            "0x0000000000000000000000004631753190f2f5a15a7ba172bbac102b7d95fa22"
          ],
          "data": "0x00000000000000000000000000000000000000000000000000046912f229dc0000000000000000000000000000000000000000000000000002802d67cd816828000000000000000000000000000000000000000000000223003290d62f2b5a8a000000000000000000000000000000000000000000000000027bc454db578c280000000000000000000000000000000000000000000002230036f9e92155368a",
          "blockHash": "0x11fa11b684f9e56850162132d2c54f4610beb1df5afc821c07af7486e601b2bc",
          "blockNumber": "0xc4c616",
          "transactionHash": "0x82aa63583347552d88262a0d8843564642552b1dc67486249a1107a7df039ebc",
          "transactionIndex": "0xa",
          "logIndex": "0x1e",
          "removed": false
        }
      ],
      "logsBloom": "0x00000000000000000000000000000000000000002000000000000000000000000000000000000000000000000000000000008000000000000000000040002000000000008000000000000000000000800000000000000000000100000000000000000000000000100000000000000000080000000000000080040008000000000000000000000000400000000000000000000000000000000000000000000000200000000400000000000000000000000000000000000000000000000000004000000000000000000001000000000000000000000008000002100020000000000000000000000000000000000000000000000000000000002000080000100000",
      "type": "0x2",
      "transactionHash": "0x82aa63583347552d88262a0d8843564642552b1dc67486249a1107a7df039ebc",
      "transactionIndex": "0xa",
      "blockHash": "0x11fa11b684f9e56850162132d2c54f4610beb1df5afc821c07af7486e601b2bc",
      "blockNumber": "0xc4c616",
      "gasUsed": "0xa1a5",
      "effectiveGasPrice": "0x6fc23ac0f",
      "from": "0x3FDF7Fd35F4e16afB548a79AB5eE40E8C344982D",
      "to": "0x33d63DF28F46dC37efbBA55AF25F734417Dd1Acb",
      "contractAddress": null
    },
    {
      "status": "0x1",
      "cumulativeGasUsed": "0x36c49",
      "logs": [
        {
          "address": "0xD576865FDF1A7D88168A5B6daA63A7BA51999450",
          "topics": [
            "0xddf252ad1be2c89b69c2b068fc378daa952ba7f163c4a11628f55a4df523b3ef",
            "0x0000000000000000000000000000000000000000000000000000000000000000",
            "0x0000000000000000000000003fdf7fd35f4e16afb548a79ab5ee40e8c344982d",
            "0x0000000000000000000000000000000000000000000000000000000000000002"
          ],
          "data": "0x",
          "blockHash": "0x660a38773f9c47f3b69ecedd2520b6735a92db4d0d70b0e8dc2e5454d0e7ebcd",
          "blockNumber": "0xc4c617",
          "transactionHash": "0x27d47d9ff7bf80f8bc7227359cec06fddc23de2ab55749fedd59a9507c13bf69",
          "transactionIndex": "0x2",
          "logIndex": "0x6",
          "removed": false
        },
        {
          "address": "0x0000000000000000000000000000000000001010",
          "topics": [
            "0x4dfe1bbbcf077ddc3e01291eea2d5c70c2b422b415d95645b9adcfd678cb1d63",
            "0x0000000000000000000000000000000000000000000000000000000000001010",
            "0x0000000000000000000000003fdf7fd35f4e16afb548a79ab5ee40e8c344982d",
            "0x0000000000000000000000004631753190f2f5a15a7ba172bbac102b7d95fa22"
          ],
          "data": "0x00000000000000000000000000000000000000000000000000064df3f26ec000000000000000000000000000000000000000000000000000027bc454db4e137d000000000000000000000000000000000000000000000223005772b5dea2c99f00000000000000000000000000000000000000000000000002757660e8df537d000000000000000000000000000000000000000000000223005dc0a9d111899f",
          "blockHash": "0x660a38773f9c47f3b69ecedd2520b6735a92db4d0d70b0e8dc2e5454d0e7ebcd",
          "blockNumber": "0xc4c617",
          "transactionHash": "0x27d47d9ff7bf80f8bc7227359cec06fddc23de2ab55749fedd59a9507c13bf69",
          "transactionIndex": "0x2",
          "logIndex": "0x7",
          "removed": false
        }
      ],
      "logsBloom": "0x04000000000000000000000000000000000000002000000000000000000000000000000000000000000000000000000000008000000000000000000040000000000000008000000000000008000000800000000000000000000100000000000000000000020000100000000000000800000000000000000080040010000000000000000000000000000000080000000000000000000000000000000000000000200000000000000000000100000000000000000000000000000000000000004000000002000000000001000000000000000000010000000002100000000020000000000000000000000000000000000000000100008000000000000000100000",
      "type": "0x2",
      "transactionHash": "0x27d47d9ff7bf80f8bc7227359cec06fddc23de2ab55749fedd59a9507c13bf69",
      "transactionIndex": "0x2",
      "blockHash": "0x660a38773f9c47f3b69ecedd2520b6735a92db4d0d70b0e8dc2e5454d0e7ebcd",
      "blockNumber": "0xc4c617",
      "gasUsed": "0xe710",
      "effectiveGasPrice": "0x6fc23ac0f",
      "from": "0x3FDF7Fd35F4e16afB548a79AB5eE40E8C344982D",
      "to": "0xD576865FDF1A7D88168A5B6daA63A7BA51999450",
      "contractAddress": null
    }
  ],
  "libraries": [],
  "pending": [],
  "returns": {},
  "timestamp": 1728318253,
  "chain": 80002,
  "commit": "442bd26"
}