{
  "transactions": [
    {
      "hash": "0xcd6871b6aec9833369d20215a08245e836019b2f1b39c9d737472645ba898c9d",
      "transactionType": "CALL",
      "contractName": null,
      "contractAddress": "0xD576865FDF1A7D88168A5B6daA63A7BA51999450",
      "function": "safeMint(address)",
      "arguments": [
        "0x3FDF7Fd35F4e16afB548a79AB5eE40E8C344982D"
      ],
      "transaction": {
        "from": "0x3FDF7Fd35F4e16afB548a79AB5eE40E8C344982D",
        "to": "0xD576865FDF1A7D88168A5B6daA63A7BA51999450",
        "gas": "0x1f7ad",
        "value": "0x0",
        "input": "0x40d097c30000000000000000000000003fdf7fd35f4e16afb548a79ab5ee40e8c344982d",
        "nonce": "0x33",
        "chainId": "0x13882"
      },
      "additionalContracts": [],
      "isFixedGasLimit": false
    }
  ],
  "receipts": [
    {
      "status": "0x1",
      "cumulativeGasUsed": "0x52696",
      "logs": [
        {
          "address": "0xD576865FDF1A7D88168A5B6daA63A7BA51999450",
          "topics": [
            "0xddf252ad1be2c89b69c2b068fc378daa952ba7f163c4a11628f55a4df523b3ef",
            "0x0000000000000000000000000000000000000000000000000000000000000000",
            "0x0000000000000000000000003fdf7fd35f4e16afb548a79ab5ee40e8c344982d",
            "0x0000000000000000000000000000000000000000000000000000000000000001"
          ],
          "data": "0x",
          "blockHash": "0x7051c919762c749de55dccc357cca7a09caf1342a3e4964d0b591f8502e2d140",
          "blockNumber": "0xc4bbdb",
          "transactionHash": "0xcd6871b6aec9833369d20215a08245e836019b2f1b39c9d737472645ba898c9d",
          "transactionIndex": "0x2",
          "logIndex": "0x3",
          "removed": false
        },
        {
          "address": "0x0000000000000000000000000000000000001010",
          "topics": [
            "0x4dfe1bbbcf077ddc3e01291eea2d5c70c2b422b415d95645b9adcfd678cb1d63",
            "0x0000000000000000000000000000000000000000000000000000000000001010",
            "0x0000000000000000000000003fdf7fd35f4e16afb548a79ab5ee40e8c344982d",
            "0x00000000000000000000000009207a6efee346cb3e4a54ac18523e3715d38b3f"
          ],
          "data": "0x000000000000000000000000000000000000000000000000005b345db7b34ac0000000000000000000000000000000000000000000000000043d644fe031b8950000000000000000000000000000000000000000000002e626fa9140be96878200000000000000000000000000000000000000000000000003e22ff2287e6dd50000000000000000000000000000000000000000000002e62755c59e7649d242",
          "blockHash": "0x7051c919762c749de55dccc357cca7a09caf1342a3e4964d0b591f8502e2d140",
          "blockNumber": "0xc4bbdb",
          "transactionHash": "0xcd6871b6aec9833369d20215a08245e836019b2f1b39c9d737472645ba898c9d",
          "transactionIndex": "0x2",
          "logIndex": "0x4",
          "removed": false
        }
      ],
      "logsBloom": "0x00000000000000000000000000000000000000000000000000000000000000000000000000000000000000000000000000008000000000000000010000040000000000008000000000000008000000800000000000040000000100000000000000000000020000000000000000000800000000000000000080040010000000000000000000000000000000080000000000004000000000000000000000000000200000000000000000000000000000000000000000000000000000000000004000000002000000000001000000000000000000010000000002100000000060000000000000000000000000010000000000000100000000000000000000100000",
      "type": "0x2",
      "transactionHash": "0xcd6871b6aec9833369d20215a08245e836019b2f1b39c9d737472645ba898c9d",
      "transactionIndex": "0x2",
      "blockHash": "0x7051c919762c749de55dccc357cca7a09caf1342a3e4964d0b591f8502e2d140",
      "blockNumber": "0xc4bbdb",
      "gasUsed": "0x16ca8",
      "effectiveGasPrice": "0x400746fe07",
      "from": "0x3FDF7Fd35F4e16afB548a79AB5eE40E8C344982D",
      "to": "0xD576865FDF1A7D88168A5B6daA63A7BA51999450",
      "contractAddress": null
    }
  ],
  "libraries": [],
  "pending": [],
  "returns": {},
  "timestamp": 1728312206,
  "chain": 80002,
  "commit": "8f148fa"
}