{
  "transactions": [
    {
      "hash": "0xd5ef3ce1a4f8a11e14a06f0d0f4556f53be91cdced0f47012b52a05e802bd155",
      "transactionType": "CALL",
      "contractName": null,
      "contractAddress": "0x82AeECCa746271569f06c232c980ad4096a3bD4d",
      "function": "buyNFT(string)",
      "arguments": [
        "https://gold-near-fox-74.mypinata.cloud/ipfs/QmX2Dj64sJPnWoj72twx8WRRLWin9M21rhahVcdPdoYeTj"
      ],
      "transaction": {
        "from": "0x3FDF7Fd35F4e16afB548a79AB5eE40E8C344982D",
        "to": "0x82AeECCa746271569f06c232c980ad4096a3bD4d",
        "gas": "0x35ca4",
        "value": "0x2386f26fc10000",
        "input": "0x8d0123000000000000000000000000000000000000000000000000000000000000000020000000000000000000000000000000000000000000000000000000000000005b68747470733a2f2f676f6c642d6e6561722d666f782d37342e6d7970696e6174612e636c6f75642f697066732f516d5832446a3634734a506e576f6a3732747778385752524c57696e394d32317268616856636450646f5965546a0000000000",
        "nonce": "0x23",
        "chainId": "0x13882"
      },
      "additionalContracts": [],
      "isFixedGasLimit": false
    }
  ],
  "receipts": [
    {
      "status": "0x1",
      "cumulativeGasUsed": "0x24c79",
      "logs": [
        {
          "address": "0x0000000000000000000000000000000000001010",
          "topics": [
            "0xe6497e3ee548a3372136af2fcb0696db31fc6cf20260707645068bd3fe97f3c4",
            "0x0000000000000000000000000000000000000000000000000000000000001010",
            "0x0000000000000000000000003fdf7fd35f4e16afb548a79ab5ee40e8c344982d",
            "0x00000000000000000000000082aeecca746271569f06c232c980ad4096a3bd4d"
          ],
          "data": "0x000000000000000000000000000000000000000000000000002386f26fc100000000000000000000000000000000000000000000000000000376ec535a60123c00000000000000000000000000000000000000000000000000b1a2bc2ec5000000000000000000000000000000000000000000000000000003536560ea9f123c00000000000000000000000000000000000000000000000000d529ae9e860000",
          "blockHash": "0xa45e0062fa58ef24080510b5cc397775b552393df141a684ffb8b0ad4053ef65",
          "blockNumber": "0xc44f6f",
          "transactionHash": "0xd5ef3ce1a4f8a11e14a06f0d0f4556f53be91cdced0f47012b52a05e802bd155",
          "transactionIndex": "0x0",
          "logIndex": "0x0",
          "removed": false
        },
        {
          "address": "0x82AeECCa746271569f06c232c980ad4096a3bD4d",
          "topics": [
            "0xddf252ad1be2c89b69c2b068fc378daa952ba7f163c4a11628f55a4df523b3ef",
            "0x0000000000000000000000000000000000000000000000000000000000000000",
            "0x0000000000000000000000003fdf7fd35f4e16afb548a79ab5ee40e8c344982d",
            "0x0000000000000000000000000000000000000000000000000000000000000006"
          ],
          "data": "0x",
          "blockHash": "0xa45e0062fa58ef24080510b5cc397775b552393df141a684ffb8b0ad4053ef65",
          "blockNumber": "0xc44f6f",
          "transactionHash": "0xd5ef3ce1a4f8a11e14a06f0d0f4556f53be91cdced0f47012b52a05e802bd155",
          "transactionIndex": "0x0",
          "logIndex": "0x1",
          "removed": false
        },
        {
          "address": "0x82AeECCa746271569f06c232c980ad4096a3bD4d",
          "topics": [
            "0xf8e1a15aba9398e019f0b49df1a4fde98ee17ae345cb5f6b5e2c27f5033e8ce7"
          ],
          "data": "0x0000000000000000000000000000000000000000000000000000000000000006",
          "blockHash": "0xa45e0062fa58ef24080510b5cc397775b552393df141a684ffb8b0ad4053ef65",
          "blockNumber": "0xc44f6f",
          "transactionHash": "0xd5ef3ce1a4f8a11e14a06f0d0f4556f53be91cdced0f47012b52a05e802bd155",
          "transactionIndex": "0x0",
          "logIndex": "0x2",
          "removed": false
        },
        {
          "address": "0x0000000000000000000000000000000000001010",
          "topics": [
            "0x4dfe1bbbcf077ddc3e01291eea2d5c70c2b422b415d95645b9adcfd678cb1d63",
            "0x0000000000000000000000000000000000000000000000000000000000001010",
            "0x0000000000000000000000003fdf7fd35f4e16afb548a79ab5ee40e8c344982d",
            "0x0000000000000000000000006ab3d36c46ecfb9b9c0bd51cb1c3da5a2c81cea6"
          ],
          "data": "0x00000000000000000000000000000000000000000000000000156894253b100000000000000000000000000000000000000000000000000003963baa80cabfd80000000000000000000000000000000000000000000002ebb53b3cabd4aeaec70000000000000000000000000000000000000000000000000380d3165b8fafd80000000000000000000000000000000000000000000002ebb550a53ff9e9bec7",
          "blockHash": "0xa45e0062fa58ef24080510b5cc397775b552393df141a684ffb8b0ad4053ef65",
          "blockNumber": "0xc44f6f",
          "transactionHash": "0xd5ef3ce1a4f8a11e14a06f0d0f4556f53be91cdced0f47012b52a05e802bd155",
          "transactionIndex": "0x0",
          "logIndex": "0x3",
          "removed": false
        }
      ],
      "logsBloom": "0x00000000080000000000000000000000000000000000000000000000000000000000000000000000000000100200000000008000000400000000000000800000000000088000000000000008000000a0000000000000000000010000000000000000000002000000000000000000080000000000000000008004001000008000000000040100000000000000000000000000000000000000000000000000000020000000000000000000000000000000200000000000000000000008000000c000000002000000000001000000000000000000010000800002108000000020000080000000000000200000000000000000000000000000000000000000100000",
      "type": "0x2",
      "transactionHash": "0xd5ef3ce1a4f8a11e14a06f0d0f4556f53be91cdced0f47012b52a05e802bd155",
      "transactionIndex": "0x0",
      "blockHash": "0xa45e0062fa58ef24080510b5cc397775b552393df141a684ffb8b0ad4053ef65",
      "blockNumber": "0xc44f6f",
      "gasUsed": "0x24c79",
      "effectiveGasPrice": "0x9502f900f",
      "from": "0x3FDF7Fd35F4e16afB548a79AB5eE40E8C344982D",
      "to": "0x82AeECCa746271569f06c232c980ad4096a3bD4d",
      "contractAddress": null
    }
  ],
  "libraries": [],
  "pending": [],
  "returns": {},
  "timestamp": 1728252108,
  "chain": 80002,
  "commit": "8f148fa"
}