{
  "transactions": [
    {
      "hash": "0x9860d6fc9795e1f622ccd0eb4f91445dd94f4f592560078fc6352fe832265192",
      "transactionType": "CALL",
      "contractName": null,
      "contractAddress": "0x82AeECCa746271569f06c232c980ad4096a3bD4d",
      "function": "buyNFT(string)",
      "arguments": [
        "https://gold-near-fox-74.mypinata.cloud/ipfs/QmX2Dj64sJPnWoj72twx8WRRLWin9M21rhahVcdPdoYeTj"
      ],
      "transaction": {
        "from": "0x3FDF7Fd35F4e16afB548a79AB5eE40E8C344982D",
        "to": "0x82AeECCa746271569f06c232c980ad4096a3bD4d",
        "gas": "0x35ca4",
        "value": "0x2386f26fc10000",
        "input": "0x8d0123000000000000000000000000000000000000000000000000000000000000000020000000000000000000000000000000000000000000000000000000000000005b68747470733a2f2f676f6c642d6e6561722d666f782d37342e6d7970696e6174612e636c6f75642f697066732f516d5832446a3634734a506e576f6a3732747778385752524c57696e394d32317268616856636450646f5965546a0000000000",
        "nonce": "0x22",
        "chainId": "0x13882"
      },
      "additionalContracts": [],
      "isFixedGasLimit": false
    }
  ],
  "receipts": [
    {
      "status": "0x1",
      "cumulativeGasUsed": "0x43059",
      "logs": [
        {
          "address": "0x0000000000000000000000000000000000001010",
          "topics": [
            "0xe6497e3ee548a3372136af2fcb0696db31fc6cf20260707645068bd3fe97f3c4",
            "0x0000000000000000000000000000000000000000000000000000000000001010",
            "0x0000000000000000000000003fdf7fd35f4e16afb548a79ab5ee40e8c344982d",
            "0x00000000000000000000000082aeecca746271569f06c232c980ad4096a3bd4d"
          ],
          "data": "0x000000000000000000000000000000000000000000000000002386f26fc1000000000000000000000000000000000000000000000000000003af5be2810f0eec000000000000000000000000000000000000000000000000008e1bc9bf040000000000000000000000000000000000000000000000000000038bd4f0114e0eec00000000000000000000000000000000000000000000000000b1a2bc2ec50000",
          "blockHash": "0x02015adf2ac3f537ddcd308c9ed17b5481600431f8033a0182737cbb62ddcbe7",
          "blockNumber": "0xc44f39",
          "transactionHash": "0x9860d6fc9795e1f622ccd0eb4f91445dd94f4f592560078fc6352fe832265192",
          "transactionIndex": "0x1",
          "logIndex": "0x4",
          "removed": false
        },
        {
          "address": "0x82AeECCa746271569f06c232c980ad4096a3bD4d",
          "topics": [
            "0xddf252ad1be2c89b69c2b068fc378daa952ba7f163c4a11628f55a4df523b3ef",
            "0x0000000000000000000000000000000000000000000000000000000000000000",
            "0x0000000000000000000000003fdf7fd35f4e16afb548a79ab5ee40e8c344982d",
            "0x0000000000000000000000000000000000000000000000000000000000000005"
          ],
          "data": "0x",
          "blockHash": "0x02015adf2ac3f537ddcd308c9ed17b5481600431f8033a0182737cbb62ddcbe7",
          "blockNumber": "0xc44f39",
          "transactionHash": "0x9860d6fc9795e1f622ccd0eb4f91445dd94f4f592560078fc6352fe832265192",
          "transactionIndex": "0x1",
          "logIndex": "0x5",
          "removed": false
        },
        {
          "address": "0x82AeECCa746271569f06c232c980ad4096a3bD4d",
          "topics": [
            "0xf8e1a15aba9398e019f0b49df1a4fde98ee17ae345cb5f6b5e2c27f5033e8ce7"
          ],
          "data": "0x0000000000000000000000000000000000000000000000000000000000000005",
          "blockHash": "0x02015adf2ac3f537ddcd308c9ed17b5481600431f8033a0182737cbb62ddcbe7",
          "blockNumber": "0xc44f39",
          "transactionHash": "0x9860d6fc9795e1f622ccd0eb4f91445dd94f4f592560078fc6352fe832265192",
          "transactionIndex": "0x1",
          "logIndex": "0x6",
          "removed": false
        },
        {
          "address": "0x0000000000000000000000000000000000001010",
          "topics": [
            "0x4dfe1bbbcf077ddc3e01291eea2d5c70c2b422b415d95645b9adcfd678cb1d63",
            "0x0000000000000000000000000000000000000000000000000000000000001010",
            "0x0000000000000000000000003fdf7fd35f4e16afb548a79ab5ee40e8c344982d",
            "0x0000000000000000000000004631753190f2f5a15a7ba172bbac102b7d95fa22"
          ],
          "data": "0x00000000000000000000000000000000000000000000000000167d43837d818d00000000000000000000000000000000000000000000000003d03fe0742bbc7c000000000000000000000000000000000000000000000217162c5b0b8696cb0200000000000000000000000000000000000000000000000003b9c29cf0ae3aef0000000000000000000000000000000000000000000002171642d84f0a144c8f",
          "blockHash": "0x02015adf2ac3f537ddcd308c9ed17b5481600431f8033a0182737cbb62ddcbe7",
          "blockNumber": "0xc44f39",
          "transactionHash": "0x9860d6fc9795e1f622ccd0eb4f91445dd94f4f592560078fc6352fe832265192",
          "transactionIndex": "0x1",
          "logIndex": "0x7",
          "removed": false
        }
      ],
      "logsBloom": "0x00000000000000000000000000000000000000002000000000000000000000000000000000000000000000100200000000008000000000000000000040800000000010008000000000000008000000a0000000000000000000010000000000000000000002000010000000000000080000000000000000008004001000008000000000000100000000000000000000100000080000000000000000000000000020000000000000000000000000000000200000000000000000000000000000c000000002000000000001000000000000000000000000800002108000000020000080000000000000200000000000000000000000000000000000000000100000",
      "type": "0x2",
      "transactionHash": "0x9860d6fc9795e1f622ccd0eb4f91445dd94f4f592560078fc6352fe832265192",
      "transactionIndex": "0x1",
      "blockHash": "0x02015adf2ac3f537ddcd308c9ed17b5481600431f8033a0182737cbb62ddcbe7",
      "blockNumber": "0xc44f39",
      "gasUsed": "0x24c79",
      "effectiveGasPrice": "0x9c88cf0c4",
      "from": "0x3FDF7Fd35F4e16afB548a79AB5eE40E8C344982D",
      "to": "0x82AeECCa746271569f06c232c980ad4096a3bD4d",
      "contractAddress": null
    }
  ],
  "libraries": [],
  "pending": [],
  "returns": {},
  "timestamp": 1728251995,
  "chain": 80002,
  "commit": "8f148fa"
}