{
  "transactions": [
    {
      "hash": "0xf2f891457a7bec792e5102193c8028e1eb3ef8be90b3144a9fd881fac6cc4ed5",
      "transactionType": "CALL",
      "contractName": null,
      "contractAddress": "0x33d63DF28F46dC37efbBA55AF25F734417Dd1Acb",
      "function": "buyToken(address,uint256,uint256)",
      "arguments": [
        "0x3FDF7Fd35F4e16afB548a79AB5eE40E8C344982D",
        "1",
        "2"
      ],
      "transaction": {
        "from": "0x3FDF7Fd35F4e16afB548a79AB5eE40E8C344982D",
        "to": "0x33d63DF28F46dC37efbBA55AF25F734417Dd1Acb",
        "gas": "0x10eac",
        "value": "0x470de4df820000",
        "input": "0xe671499b0000000000000000000000003fdf7fd35f4e16afb548a79ab5ee40e8c344982d00000000000000000000000000000000000000000000000000000000000000010000000000000000000000000000000000000000000000000000000000000002",
        "nonce": "0x2f",
        "chainId": "0x13882"
      },
      "additionalContracts": [],
      "isFixedGasLimit": false
    },
    {
      "hash": "0x51596e1cdf622cff4d88a8f39d629cf816308b71b5c63e2cb5f1788e4c769690",
      "transactionType": "CALL",
      "contractName": null,
      "contractAddress": "0xdBdF8c47C566A2656bFAE5c06FbF928174c4F1bf",
      "function": "transfer(address,uint256)",
      "arguments": [
        "0x3FDF7Fd35F4e16afB548a79AB5eE40E8C344982D",
        "1000000000000000000"
      ],
      "transaction": {
        "from": "0x3FDF7Fd35F4e16afB548a79AB5eE40E8C344982D",
        "to": "0xdBdF8c47C566A2656bFAE5c06FbF928174c4F1bf",
        "gas": "0xb72e",
        "value": "0x0",
        "input": "0xa9059cbb0000000000000000000000003fdf7fd35f4e16afb548a79ab5ee40e8c344982d0000000000000000000000000000000000000000000000000de0b6b3a7640000",
        "nonce": "0x30",
        "chainId": "0x13882"
      },
      "additionalContracts": [],
      "isFixedGasLimit": false
    }
  ],
  "receipts": [
    {
      "status": "0x1",
      "cumulativeGasUsed": "0xc3f7",
      "logs": [
        {
          "address": "0x0000000000000000000000000000000000001010",
          "topics": [
            "0xe6497e3ee548a3372136af2fcb0696db31fc6cf20260707645068bd3fe97f3c4",
            "0x0000000000000000000000000000000000000000000000000000000000001010",
            "0x0000000000000000000000003fdf7fd35f4e16afb548a79ab5ee40e8c344982d",
            "0x00000000000000000000000033d63df28f46dc37efbba55af25f734417dd1acb"
          ],
          "data": "0x00000000000000000000000000000000000000000000000000470de4df82000000000000000000000000000000000000000000000000000005618fff3ff5192d0000000000000000000000000000000000000000000000000354a6ba7a180000000000000000000000000000000000000000000000000000051a821a6073192d000000000000000000000000000000000000000000000000039bb49f599a0000",
          "blockHash": "0xee99d2d67544860f9612a78b8f724b45598cd144e8ca9734103c9d7ae1980e05",
          "blockNumber": "0xc45ba4",
          "transactionHash": "0xf2f891457a7bec792e5102193c8028e1eb3ef8be90b3144a9fd881fac6cc4ed5",
          "transactionIndex": "0x0",
          "logIndex": "0x0",
          "removed": false
        },
        {
          "address": "0x33d63DF28F46dC37efbBA55AF25F734417Dd1Acb",
          "topics": [
            "0xc3d58168c5ae7397731d063d5bbf3d657854427343f4c083240f7aacaa2d0f62",
            "0x0000000000000000000000003fdf7fd35f4e16afb548a79ab5ee40e8c344982d",
            "0x0000000000000000000000000000000000000000000000000000000000000000",
            "0x0000000000000000000000003fdf7fd35f4e16afb548a79ab5ee40e8c344982d"
          ],
          "data": "0x00000000000000000000000000000000000000000000000000000000000000010000000000000000000000000000000000000000000000000000000000000002",
          "blockHash": "0xee99d2d67544860f9612a78b8f724b45598cd144e8ca9734103c9d7ae1980e05",
          "blockNumber": "0xc45ba4",
          "transactionHash": "0xf2f891457a7bec792e5102193c8028e1eb3ef8be90b3144a9fd881fac6cc4ed5",
          "transactionIndex": "0x0",
          "logIndex": "0x1",
          "removed": false
        },
        {
          "address": "0x0000000000000000000000000000000000001010",
          "topics": [
            "0x4dfe1bbbcf077ddc3e01291eea2d5c70c2b422b415d95645b9adcfd678cb1d63",
            "0x0000000000000000000000000000000000000000000000000000000000001010",
            "0x0000000000000000000000003fdf7fd35f4e16afb548a79ab5ee40e8c344982d",
            "0x0000000000000000000000006dc2dd54f24979ec26212794c71afefed722280c"
          ],
          "data": "0x00000000000000000000000000000000000000000000000000088e13ea538b9d000000000000000000000000000000000000000000000000056d60fdb24316a50000000000000000000000000000000000000000000003162e1b248d919267780000000000000000000000000000000000000000000000000564d2e9c7ef8b080000000000000000000000000000000000000000000003162e23b2a17be5f315",
          "blockHash": "0xee99d2d67544860f9612a78b8f724b45598cd144e8ca9734103c9d7ae1980e05",
          "blockNumber": "0xc45ba4",
          "transactionHash": "0xf2f891457a7bec792e5102193c8028e1eb3ef8be90b3144a9fd881fac6cc4ed5",
          "transactionIndex": "0x0",
          "logIndex": "0x2",
          "removed": false
        }
      ],
      "logsBloom": "0x00000000000000000000000000000000000000000000000000000000000000000000000000000000000000100000000000008000000000200000000000002000000000008000000000000000000000800000000000000000000100080000000000000000020000000000000000000800080000000000000080040008000000020000000000000000000000000040000000000000004000000400000000000000200000000000000000000000000000000000000000000000000000000000004000000000000000000001000000000000000000000008800002108000000020000000000000000000000000000000000000000000000000002000080000100000",
      "type": "0x2",
      "transactionHash": "0xf2f891457a7bec792e5102193c8028e1eb3ef8be90b3144a9fd881fac6cc4ed5",
      "transactionIndex": "0x0",
      "blockHash": "0xee99d2d67544860f9612a78b8f724b45598cd144e8ca9734103c9d7ae1980e05",
      "blockNumber": "0xc45ba4",
      "gasUsed": "0xc3f7",
      "effectiveGasPrice": "0xb2d05e01a",
      "from": "0x3FDF7Fd35F4e16afB548a79AB5eE40E8C344982D",
      "to": "0x33d63DF28F46dC37efbBA55AF25F734417Dd1Acb",
      "contractAddress": null
    },
    {
      "status": "0x1",
      "cumulativeGasUsed": "0x14138",
      "logs": [
        {
          "address": "0xdBdF8c47C566A2656bFAE5c06FbF928174c4F1bf",
          "topics": [
            "0xddf252ad1be2c89b69c2b068fc378daa952ba7f163c4a11628f55a4df523b3ef",
            "0x0000000000000000000000003fdf7fd35f4e16afb548a79ab5ee40e8c344982d",
            "0x0000000000000000000000003fdf7fd35f4e16afb548a79ab5ee40e8c344982d"
          ],
          "data": "0x000000000000000000000000000000000000000000000000002386f26fc10000",
          "blockHash": "0xee99d2d67544860f9612a78b8f724b45598cd144e8ca9734103c9d7ae1980e05",
          "blockNumber": "0xc45ba4",
          "transactionHash": "0x51596e1cdf622cff4d88a8f39d629cf816308b71b5c63e2cb5f1788e4c769690",
          "transactionIndex": "0x1",
          "logIndex": "0x3",
          "removed": false
        },
        {
          "address": "0xdBdF8c47C566A2656bFAE5c06FbF928174c4F1bf",
          "topics": [
            "0xddf252ad1be2c89b69c2b068fc378daa952ba7f163c4a11628f55a4df523b3ef",
            "0x0000000000000000000000003fdf7fd35f4e16afb548a79ab5ee40e8c344982d",
            "0x0000000000000000000000003fdf7fd35f4e16afb548a79ab5ee40e8c344982d"
          ],
          "data": "0x0000000000000000000000000000000000000000000000000dbd2fc137a30000",
          "blockHash": "0xee99d2d67544860f9612a78b8f724b45598cd144e8ca9734103c9d7ae1980e05",
          "blockNumber": "0xc45ba4",
          "transactionHash": "0x51596e1cdf622cff4d88a8f39d629cf816308b71b5c63e2cb5f1788e4c769690",
          "transactionIndex": "0x1",
          "logIndex": "0x4",
          "removed": false
        },
        {
          "address": "0x0000000000000000000000000000000000001010",
          "topics": [
            "0x4dfe1bbbcf077ddc3e01291eea2d5c70c2b422b415d95645b9adcfd678cb1d63",
            "0x0000000000000000000000000000000000000000000000000000000000001010",
            "0x0000000000000000000000003fdf7fd35f4e16afb548a79ab5ee40e8c344982d",
            "0x0000000000000000000000006dc2dd54f24979ec26212794c71afefed722280c"
          ],
          "data": "0x000000000000000000000000000000000000000000000000000577d24ce341cb000000000000000000000000000000000000000000000000051dc504e8620f8f0000000000000000000000000000000000000000000003162e23b2a17be5f31500000000000000000000000000000000000000000000000005184d329b7ecdc40000000000000000000000000000000000000000000003162e292a73c8c934e0",
          "blockHash": "0xee99d2d67544860f9612a78b8f724b45598cd144e8ca9734103c9d7ae1980e05",
          "blockNumber": "0xc45ba4",
          "transactionHash": "0x51596e1cdf622cff4d88a8f39d629cf816308b71b5c63e2cb5f1788e4c769690",
          "transactionIndex": "0x1",
          "logIndex": "0x5",
          "removed": false
        }
      ],
      "logsBloom": "0x00000000000000000000000000000000000000000000000000000000000000000000000000000000000000000000000000008000000000000000000000000000000000008000000000000008000004800000000000000000000100080000000000000000000000000000000000000000000000000000000080040010000000020000000000000000000000000040000000000001000000000000000000000000200000000000000000020000000000000000000000000000000000000000004000000002000000000001000000000000000000000000000002100000000000000000000000000000000000000000000000000000000000000000000000100000",
      "type": "0x2",
      "transactionHash": "0x51596e1cdf622cff4d88a8f39d629cf816308b71b5c63e2cb5f1788e4c769690",
      "transactionIndex": "0x1",
      "blockHash": "0xee99d2d67544860f9612a78b8f724b45598cd144e8ca9734103c9d7ae1980e05",
      "blockNumber": "0xc45ba4",
      "gasUsed": "0x7d41",
      "effectiveGasPrice": "0xb2d05e01a",
      "from": "0x3FDF7Fd35F4e16afB548a79AB5eE40E8C344982D",
      "to": "0xdBdF8c47C566A2656bFAE5c06FbF928174c4F1bf",
      "contractAddress": null
    }
  ],
  "libraries": [],
  "pending": [],
  "returns": {},
  "timestamp": 1728258804,
  "chain": 80002,
  "commit": "8f148fa"
}