{
  "transactions": [
    {
      "hash": "0xfbd345cc5f18dabaf6aaa64f1d88c35094367eb3430488cdd3f40f541d9a977e",
      "transactionType": "CALL",
      "contractName": null,
      "contractAddress": "0xdBdF8c47C566A2656bFAE5c06FbF928174c4F1bf",
      "function": "buyToken()",
      "arguments": [],
      "transaction": {
        "from": "0x3FDF7Fd35F4e16afB548a79AB5eE40E8C344982D",
        "to": "0xdBdF8c47C566A2656bFAE5c06FbF928174c4F1bf",
        "gas": "0xb51b",
        "value": "0x470de4df820000",
        "input": "0xa4821719",
        "nonce": "0x1a",
        "chainId": "0x13882"
      },
      "additionalContracts": [],
      "isFixedGasLimit": false
    },
    {
      "hash": "0x7863e9d0151ef456faec42e83794abce3ef93f132f0324807014c19689c3a2c9",
      "transactionType": "CALL",
      "contractName": null,
      "contractAddress": "0xdBdF8c47C566A2656bFAE5c06FbF928174c4F1bf",
      "function": "transfer(address,uint256)",
      "arguments": [
        "0x8493a952bfD0EA51f30a2fE93994768e88505b48",
        "5000000000000000000"
      ],
      "transaction": {
        "from": "0x3FDF7Fd35F4e16afB548a79AB5eE40E8C344982D",
        "to": "0xdBdF8c47C566A2656bFAE5c06FbF928174c4F1bf",
        "gas": "0xe299",
        "value": "0x0",
        "input": "0xa9059cbb0000000000000000000000008493a952bfd0ea51f30a2fe93994768e88505b480000000000000000000000000000000000000000000000004563918244f40000",
        "nonce": "0x1b",
        "chainId": "0x13882"
      },
      "additionalContracts": [],
      "isFixedGasLimit": false
    }
  ],
  "receipts": [
    {
      "status": "0x1",
      "cumulativeGasUsed": "0x831f",
      "logs": [
        {
          "address": "0x0000000000000000000000000000000000001010",
          "topics": [
            "0xe6497e3ee548a3372136af2fcb0696db31fc6cf20260707645068bd3fe97f3c4",
            "0x0000000000000000000000000000000000000000000000000000000000001010",
            "0x0000000000000000000000003fdf7fd35f4e16afb548a79ab5ee40e8c344982d",
            "0x000000000000000000000000dbdf8c47c566a2656bfae5c06fbf928174c4f1bf"
          ],
          "data": "0x00000000000000000000000000000000000000000000000000470de4df820000000000000000000000000000000000000000000000000000036ae6f990d1114f000000000000000000000000000000000000000000000000008e1bc9bf0400000000000000000000000000000000000000000000000000000323d914b14f114f00000000000000000000000000000000000000000000000000d529ae9e860000",
          "blockHash": "0x26bb9f6f0caa23a7bfb20ee713e494aa0b885a14dac0e8984d252d52ed45c8fe",
          "blockNumber": "0xc44704",
          "transactionHash": "0xfbd345cc5f18dabaf6aaa64f1d88c35094367eb3430488cdd3f40f541d9a977e",
          "transactionIndex": "0x0",
          "logIndex": "0x0",
          "removed": false
        },
        {
          "address": "0xdBdF8c47C566A2656bFAE5c06FbF928174c4F1bf",
          "topics": [
            "0xddf252ad1be2c89b69c2b068fc378daa952ba7f163c4a11628f55a4df523b3ef",
            "0x0000000000000000000000000000000000000000000000000000000000000000",
            "0x0000000000000000000000003fdf7fd35f4e16afb548a79ab5ee40e8c344982d"
          ],
          "data": "0x0000000000000000000000000000000000000000000000001bc16d674ec80000",
          "blockHash": "0x26bb9f6f0caa23a7bfb20ee713e494aa0b885a14dac0e8984d252d52ed45c8fe",
          "blockNumber": "0xc44704",
          "transactionHash": "0xfbd345cc5f18dabaf6aaa64f1d88c35094367eb3430488cdd3f40f541d9a977e",
          "transactionIndex": "0x0",
          "logIndex": "0x1",
          "removed": false
        },
        {
          "address": "0x0000000000000000000000000000000000001010",
          "topics": [
            "0x4dfe1bbbcf077ddc3e01291eea2d5c70c2b422b415d95645b9adcfd678cb1d63",
            "0x0000000000000000000000000000000000000000000000000000000000001010",
            "0x0000000000000000000000003fdf7fd35f4e16afb548a79ab5ee40e8c344982d",
            "0x0000000000000000000000006dc2dd54f24979ec26212794c71afefed722280c"
          ],
          "data": "0x00000000000000000000000000000000000000000000000000054040d8d863e9000000000000000000000000000000000000000000000000037227aafda64ff1000000000000000000000000000000000000000000000315f91d06e9b8f0ae5c000000000000000000000000000000000000000000000000036ce76a24cdec08000000000000000000000000000000000000000000000315f922472a91c91245",
          "blockHash": "0x26bb9f6f0caa23a7bfb20ee713e494aa0b885a14dac0e8984d252d52ed45c8fe",
          "blockNumber": "0xc44704",
          "transactionHash": "0xfbd345cc5f18dabaf6aaa64f1d88c35094367eb3430488cdd3f40f541d9a977e",
          "transactionIndex": "0x0",
          "logIndex": "0x2",
          "removed": false
        }
      ],
      "logsBloom": "0x00000000000000000000000000000000000000000000000000000000000000000000000000000000000000100000000000008000000000000000000000000000000000008000000000000008000004800000400000000000010100080000000000000000020000000000000000000800000000000000000080040010000000020000000000000000000000020040000000000001000000000000000000000000200000000000000000020000000000000000000000000000000000000000004000000002000000000001000000000000000000000000800002108000000020000000000000000000000000000000000000000000000000000000000000100000",
      "type": "0x2",
      "transactionHash": "0xfbd345cc5f18dabaf6aaa64f1d88c35094367eb3430488cdd3f40f541d9a977e",
      "transactionIndex": "0x0",
      "blockHash": "0x26bb9f6f0caa23a7bfb20ee713e494aa0b885a14dac0e8984d252d52ed45c8fe",
      "blockNumber": "0xc44704",
      "gasUsed": "0x831f",
      "effectiveGasPrice": "0xa40830006",
      "from": "0x3FDF7Fd35F4e16afB548a79AB5eE40E8C344982D",
      "to": "0xdBdF8c47C566A2656bFAE5c06FbF928174c4F1bf",
      "contractAddress": null
    },
    {
      "status": "0x1",
      "cumulativeGasUsed": "0x11e10",
      "logs": [
        {
          "address": "0xdBdF8c47C566A2656bFAE5c06FbF928174c4F1bf",
          "topics": [
            "0xddf252ad1be2c89b69c2b068fc378daa952ba7f163c4a11628f55a4df523b3ef",
            "0x0000000000000000000000003fdf7fd35f4e16afb548a79ab5ee40e8c344982d",
            "0x0000000000000000000000003fdf7fd35f4e16afb548a79ab5ee40e8c344982d"
          ],
          "data": "0x00000000000000000000000000000000000000000000000000b1a2bc2ec50000",
          "blockHash": "0x26bb9f6f0caa23a7bfb20ee713e494aa0b885a14dac0e8984d252d52ed45c8fe",
          "blockNumber": "0xc44704",
          "transactionHash": "0x7863e9d0151ef456faec42e83794abce3ef93f132f0324807014c19689c3a2c9",
          "transactionIndex": "0x1",
          "logIndex": "0x3",
          "removed": false
        },
        {
          "address": "0xdBdF8c47C566A2656bFAE5c06FbF928174c4F1bf",
          "topics": [
            "0xddf252ad1be2c89b69c2b068fc378daa952ba7f163c4a11628f55a4df523b3ef",
            "0x0000000000000000000000003fdf7fd35f4e16afb548a79ab5ee40e8c344982d",
            "0x0000000000000000000000008493a952bfd0ea51f30a2fe93994768e88505b48"
          ],
          "data": "0x00000000000000000000000000000000000000000000000044b1eec6162f0000",
          "blockHash": "0x26bb9f6f0caa23a7bfb20ee713e494aa0b885a14dac0e8984d252d52ed45c8fe",
          "blockNumber": "0xc44704",
          "transactionHash": "0x7863e9d0151ef456faec42e83794abce3ef93f132f0324807014c19689c3a2c9",
          "transactionIndex": "0x1",
          "logIndex": "0x4",
          "removed": false
        },
        {
          "address": "0x0000000000000000000000000000000000001010",
          "topics": [
            "0x4dfe1bbbcf077ddc3e01291eea2d5c70c2b422b415d95645b9adcfd678cb1d63",
            "0x0000000000000000000000000000000000000000000000000000000000001010",
            "0x0000000000000000000000003fdf7fd35f4e16afb548a79ab5ee40e8c344982d",
            "0x0000000000000000000000006dc2dd54f24979ec26212794c71afefed722280c"
          ],
          "data": "0x00000000000000000000000000000000000000000000000000063475894d8d870000000000000000000000000000000000000000000000000325d98545443d37000000000000000000000000000000000000000000000315f922472a91c91245000000000000000000000000000000000000000000000000031fa50fbbf6afb0000000000000000000000000000000000000000000000315f9287ba01b169fcc",
          "blockHash": "0x26bb9f6f0caa23a7bfb20ee713e494aa0b885a14dac0e8984d252d52ed45c8fe",
          "blockNumber": "0xc44704",
          "transactionHash": "0x7863e9d0151ef456faec42e83794abce3ef93f132f0324807014c19689c3a2c9",
          "transactionIndex": "0x1",
          "logIndex": "0x5",
          "removed": false
        }
      ],
      "logsBloom": "0x00000000000000000000000000000000000000000000000000000000000000000000000000000000000000000000000000008000000000000000000000000000000000008000000000000008000004800000000000000000000100080000000000000000000000000000000000000000000000000000000080040010000000020000000000000000400000000040000000000001000000000000000000000000200000000400000000020000000000000000000000000000000000000000004000000002000000000001000000000000000000000000000002100020000000000000000000000000000000000000000000000000000000000000000000100000",
      "type": "0x2",
      "transactionHash": "0x7863e9d0151ef456faec42e83794abce3ef93f132f0324807014c19689c3a2c9",
      "transactionIndex": "0x1",
      "blockHash": "0x26bb9f6f0caa23a7bfb20ee713e494aa0b885a14dac0e8984d252d52ed45c8fe",
      "blockNumber": "0xc44704",
      "gasUsed": "0x9af1",
      "effectiveGasPrice": "0xa40830006",
      "from": "0x3FDF7Fd35F4e16afB548a79AB5eE40E8C344982D",
      "to": "0xdBdF8c47C566A2656bFAE5c06FbF928174c4F1bf",
      "contractAddress": null
    }
  ],
  "libraries": [],
  "pending": [],
  "returns": {},
  "timestamp": 1728247532,
  "chain": 80002,
  "commit": "8f148fa"
}