{
  "transactions": [
    {
      "hash": "0x8664b78e3faec51314a8575d0569affaf43d393b25cba7b312649c6211571524",
      "transactionType": "CALL",
      "contractName": null,
      "contractAddress": "0xdBdF8c47C566A2656bFAE5c06FbF928174c4F1bf",
      "function": "transfer(address,uint256)",
      "arguments": [
        "0x3FDF7Fd35F4e16afB548a79AB5eE40E8C344982D",
        "1000000000000000000"
      ],
      "transaction": {
        "from": "0x3FDF7Fd35F4e16afB548a79AB5eE40E8C344982D",
        "to": "0xdBdF8c47C566A2656bFAE5c06FbF928174c4F1bf",
        "gas": "0xb72e",
        "value": "0x0",
        "input": "0xa9059cbb0000000000000000000000003fdf7fd35f4e16afb548a79ab5ee40e8c344982d0000000000000000000000000000000000000000000000000de0b6b3a7640000",
        "nonce": "0x28",
        "chainId": "0x13882"
      },
      "additionalContracts": [],
      "isFixedGasLimit": false
    },
    {
      "hash": "0x823cfb4d3184912b28f14bf4a9ed6d881f0d6e1d41d13a8aed70f962b018bbeb",
      "transactionType": "CALL",
      "contractName": null,
      "contractAddress": "0x33d63DF28F46dC37efbBA55AF25F734417Dd1Acb",
      "function": "safeTransferFrom(address,address,uint256,uint256,bytes)",
      "arguments": [
        "0x3FDF7Fd35F4e16afB548a79AB5eE40E8C344982D",
        "0x8493a952bfD0EA51f30a2fE93994768e88505b48",
        "1",
        "1",
        "0x"
      ],
      "transaction": {
        "from": "0x3FDF7Fd35F4e16afB548a79AB5eE40E8C344982D",
        "to": "0x33d63DF28F46dC37efbBA55AF25F734417Dd1Acb",
        "gas": "0xbde0",
        "value": "0x0",
        "input": "0xf242432a0000000000000000000000003fdf7fd35f4e16afb548a79ab5ee40e8c344982d0000000000000000000000008493a952bfd0ea51f30a2fe93994768e88505b480000000000000000000000000000000000000000000000000000000000000001000000000000000000000000000000000000000000000000000000000000000100000000000000000000000000000000000000000000000000000000000000a00000000000000000000000000000000000000000000000000000000000000000",
        "nonce": "0x29",
        "chainId": "0x13882"
      },
      "additionalContracts": [],
      "isFixedGasLimit": false
    }
  ],
  "receipts": [
    {
      "status": "0x1",
      "cumulativeGasUsed": "0x7d41",
      "logs": [
        {
          "address": "0xdBdF8c47C566A2656bFAE5c06FbF928174c4F1bf",
          "topics": [
            "0xddf252ad1be2c89b69c2b068fc378daa952ba7f163c4a11628f55a4df523b3ef",
            "0x0000000000000000000000003fdf7fd35f4e16afb548a79ab5ee40e8c344982d",
            "0x0000000000000000000000003fdf7fd35f4e16afb548a79ab5ee40e8c344982d"
          ],
          "data": "0x000000000000000000000000000000000000000000000000002386f26fc10000",
          "blockHash": "0x5d4bec5527f11743b1f21082675206a695e7a78315b8b695f87946d14d7ba35b",
          "blockNumber": "0xc455b1",
          "transactionHash": "0x8664b78e3faec51314a8575d0569affaf43d393b25cba7b312649c6211571524",
          "transactionIndex": "0x0",
          "logIndex": "0x0",
          "removed": false
        },
        {
          "address": "0xdBdF8c47C566A2656bFAE5c06FbF928174c4F1bf",
          "topics": [
            "0xddf252ad1be2c89b69c2b068fc378daa952ba7f163c4a11628f55a4df523b3ef",
            "0x0000000000000000000000003fdf7fd35f4e16afb548a79ab5ee40e8c344982d",
            "0x0000000000000000000000003fdf7fd35f4e16afb548a79ab5ee40e8c344982d"
          ],
          "data": "0x0000000000000000000000000000000000000000000000000dbd2fc137a30000",
          "blockHash": "0x5d4bec5527f11743b1f21082675206a695e7a78315b8b695f87946d14d7ba35b",
          "blockNumber": "0xc455b1",
          "transactionHash": "0x8664b78e3faec51314a8575d0569affaf43d393b25cba7b312649c6211571524",
          "transactionIndex": "0x0",
          "logIndex": "0x1",
          "removed": false
        },
        {
          "address": "0x0000000000000000000000000000000000001010",
          "topics": [
            "0x4dfe1bbbcf077ddc3e01291eea2d5c70c2b422b415d95645b9adcfd678cb1d63",
            "0x0000000000000000000000000000000000000000000000000000000000001010",
            "0x0000000000000000000000003fdf7fd35f4e16afb548a79ab5ee40e8c344982d",
            "0x000000000000000000000000915a2284d28bd93de7d6f31173b981204bb666e6"
          ],
          "data": "0x0000000000000000000000000000000000000000000000000003fcb402afc73100000000000000000000000000000000000000000000000005d709ae139aeb45000000000000000000000000000000000000000000000402cca2a6b4eff418fb00000000000000000000000000000000000000000000000005d30cfa10eb2414000000000000000000000000000000000000000000000402cca6a368f2a3e02c",
          "blockHash": "0x5d4bec5527f11743b1f21082675206a695e7a78315b8b695f87946d14d7ba35b",
          "blockNumber": "0xc455b1",
          "transactionHash": "0x8664b78e3faec51314a8575d0569affaf43d393b25cba7b312649c6211571524",
          "transactionIndex": "0x0",
          "logIndex": "0x2",
          "removed": false
        }
      ],
      "logsBloom": "0x00000000000000000010000000000000000000000000000000000000000000000000000000000000000000000000000000008000000000000000000000000000000000008000000000000008000004800000000000000000000100000000000000000000000000000000000000000000000000000000000080040010000000000000000000000000000000000000000000000001000000000000000000000000200000000000000000020000000000000000000000000000000000000000004000000002000000000001000000000000000002000000000002100000000000000000000000000000000000000000000000000000400000000000000000100000",
      "type": "0x2",
      "transactionHash": "0x8664b78e3faec51314a8575d0569affaf43d393b25cba7b312649c6211571524",
      "transactionIndex": "0x0",
      "blockHash": "0x5d4bec5527f11743b1f21082675206a695e7a78315b8b695f87946d14d7ba35b",
      "blockNumber": "0xc455b1",
      "gasUsed": "0x7d41",
      "effectiveGasPrice": "0x826299e00",
      "from": "0x3FDF7Fd35F4e16afB548a79AB5eE40E8C344982D",
      "to": "0xdBdF8c47C566A2656bFAE5c06FbF928174c4F1bf",
      "contractAddress": null
    },
    {
      "status": "0x1",
      "cumulativeGasUsed": "0x106b9",
      "logs": [
        {
          "address": "0x33d63DF28F46dC37efbBA55AF25F734417Dd1Acb",
          "topics": [
            "0xc3d58168c5ae7397731d063d5bbf3d657854427343f4c083240f7aacaa2d0f62",
            "0x0000000000000000000000003fdf7fd35f4e16afb548a79ab5ee40e8c344982d",
            "0x0000000000000000000000003fdf7fd35f4e16afb548a79ab5ee40e8c344982d",
            "0x0000000000000000000000008493a952bfd0ea51f30a2fe93994768e88505b48"
          ],
          "data": "0x00000000000000000000000000000000000000000000000000000000000000010000000000000000000000000000000000000000000000000000000000000001",
          "blockHash": "0x5d4bec5527f11743b1f21082675206a695e7a78315b8b695f87946d14d7ba35b",
          "blockNumber": "0xc455b1",
          "transactionHash": "0x823cfb4d3184912b28f14bf4a9ed6d881f0d6e1d41d13a8aed70f962b018bbeb",
          "transactionIndex": "0x1",
          "logIndex": "0x3",
          "removed": false
        },
        {
          "address": "0x0000000000000000000000000000000000001010",
          "topics": [
            "0x4dfe1bbbcf077ddc3e01291eea2d5c70c2b422b415d95645b9adcfd678cb1d63",
            "0x0000000000000000000000000000000000000000000000000000000000001010",
            "0x0000000000000000000000003fdf7fd35f4e16afb548a79ab5ee40e8c344982d",
            "0x000000000000000000000000915a2284d28bd93de7d6f31173b981204bb666e6"
          ],
          "data": "0x0000000000000000000000000000000000000000000000000004603e290801f800000000000000000000000000000000000000000000000005d30cfa10e3cd45000000000000000000000000000000000000000000000402cca6a368f2a3e02c00000000000000000000000000000000000000000000000005ceacbbe7dbcb4d000000000000000000000000000000000000000000000402ccab03a71babe224",
          "blockHash": "0x5d4bec5527f11743b1f21082675206a695e7a78315b8b695f87946d14d7ba35b",
          "blockNumber": "0xc455b1",
          "transactionHash": "0x823cfb4d3184912b28f14bf4a9ed6d881f0d6e1d41d13a8aed70f962b018bbeb",
          "transactionIndex": "0x1",
          "logIndex": "0x4",
          "removed": false
        }
      ],
      "logsBloom": "0x00000000000000000010000000000000000000000000000000000000000000000000000000000000000000000000000000008000000000000000000000002000000000008000000000000000000000800000000000000000000100000000000000000000000000000000000000000000080000000000000080040008000000000000000000000000400000000000000000000000000000000000000000000000200000000400000000000000000000000000000000000000000000000000004000000000000000000001000000000000000002000008000002100020000000000000000000000000000000000000000000000000400000002000080000100000",
      "type": "0x2",
      "transactionHash": "0x823cfb4d3184912b28f14bf4a9ed6d881f0d6e1d41d13a8aed70f962b018bbeb",
      "transactionIndex": "0x1",
      "blockHash": "0x5d4bec5527f11743b1f21082675206a695e7a78315b8b695f87946d14d7ba35b",
      "blockNumber": "0xc455b1",
      "gasUsed": "0x8978",
      "effectiveGasPrice": "0x826299e00",
      "from": "0x3FDF7Fd35F4e16afB548a79AB5eE40E8C344982D",
      "to": "0x33d63DF28F46dC37efbBA55AF25F734417Dd1Acb",
      "contractAddress": null
    }
  ],
  "libraries": [],
  "pending": [],
  "returns": {},
  "timestamp": 1728255515,
  "chain": 80002,
  "commit": "8f148fa"
}