{
  "transactions": [
    {
      "hash": "0x8e62cdcca57acc049e24152ae89f1b9c30dfcc7a561c9ee17febd40aa32021c8",
      "transactionType": "CALL",
      "contractName": null,
      "contractAddress": "0x33d63DF28F46dC37efbBA55AF25F734417Dd1Acb",
      "function": "buyToken(address,uint256,uint256)",
      "arguments": [
        "0x3FDF7Fd35F4e16afB548a79AB5eE40E8C344982D",
        "1",
        "2"
      ],
      "transaction": {
        "from": "0x3FDF7Fd35F4e16afB548a79AB5eE40E8C344982D",
        "to": "0x33d63DF28F46dC37efbBA55AF25F734417Dd1Acb",
        "gas": "0x10eac",
        "value": "0x470de4df820000",
        "input": "0xe671499b0000000000000000000000003fdf7fd35f4e16afb548a79ab5ee40e8c344982d00000000000000000000000000000000000000000000000000000000000000010000000000000000000000000000000000000000000000000000000000000002",
        "nonce": "0x2a",
        "chainId": "0x13882"
      },
      "additionalContracts": [],
      "isFixedGasLimit": false
    },
    {
      "hash": "0x1c22c32012a24d6eaa3a02fba5783fb2eedcf9d496ed77fd615d05e686148c6c",
      "transactionType": "CALL",
      "contractName": null,
      "contractAddress": "0xdBdF8c47C566A2656bFAE5c06FbF928174c4F1bf",
      "function": "transfer(address,uint256)",
      "arguments": [
        "0x3FDF7Fd35F4e16afB548a79AB5eE40E8C344982D",
        "1000000000000000000"
      ],
      "transaction": {
        "from": "0x3FDF7Fd35F4e16afB548a79AB5eE40E8C344982D",
        "to": "0xdBdF8c47C566A2656bFAE5c06FbF928174c4F1bf",
        "gas": "0xb72e",
        "value": "0x0",
        "input": "0xa9059cbb0000000000000000000000003fdf7fd35f4e16afb548a79ab5ee40e8c344982d0000000000000000000000000000000000000000000000000de0b6b3a7640000",
        "nonce": "0x2b",
        "chainId": "0x13882"
      },
      "additionalContracts": [],
      "isFixedGasLimit": false
    },
    {
      "hash": "0x880b398d0f343d016d7f9b93922a45c560470a1a314218878ce95a2d6a2575f1",
      "transactionType": "CALL",
      "contractName": null,
      "contractAddress": "0x33d63DF28F46dC37efbBA55AF25F734417Dd1Acb",
      "function": "safeTransferFrom(address,address,uint256,uint256,bytes)",
      "arguments": [
        "0x3FDF7Fd35F4e16afB548a79AB5eE40E8C344982D",
        "0x8493a952bfD0EA51f30a2fE93994768e88505b48",
        "1",
        "1",
        "0x"
      ],
      "transaction": {
        "from": "0x3FDF7Fd35F4e16afB548a79AB5eE40E8C344982D",
        "to": "0x33d63DF28F46dC37efbBA55AF25F734417Dd1Acb",
        "gas": "0xd7c6",
        "value": "0x0",
        "input": "0xf242432a0000000000000000000000003fdf7fd35f4e16afb548a79ab5ee40e8c344982d0000000000000000000000008493a952bfd0ea51f30a2fe93994768e88505b480000000000000000000000000000000000000000000000000000000000000001000000000000000000000000000000000000000000000000000000000000000100000000000000000000000000000000000000000000000000000000000000a00000000000000000000000000000000000000000000000000000000000000000",
        "nonce": "0x2c",
        "chainId": "0x13882"
      },
      "additionalContracts": [],
      "isFixedGasLimit": false
    },
    {
      "hash": "0x26d31627e9782c5b53c3dcf369c96dfaa9b9280176d010c00962f163584ef3ba",
      "transactionType": "CALL",
      "contractName": null,
      "contractAddress": "0x33d63DF28F46dC37efbBA55AF25F734417Dd1Acb",
      "function": "safeBatchTransferFrom(address,address,uint256[],uint256[],bytes)",
      "arguments": [
        "0x3FDF7Fd35F4e16afB548a79AB5eE40E8C344982D",
        "0x8493a952bfD0EA51f30a2fE93994768e88505b48",
        "[1]",
        "[1]",
        "0x"
      ],
      "transaction": {
        "from": "0x3FDF7Fd35F4e16afB548a79AB5eE40E8C344982D",
        "to": "0x33d63DF28F46dC37efbBA55AF25F734417Dd1Acb",
        "gas": "0xc55f",
        "value": "0x0",
        "input": "0x2eb2c2d60000000000000000000000003fdf7fd35f4e16afb548a79ab5ee40e8c344982d0000000000000000000000008493a952bfd0ea51f30a2fe93994768e88505b4800000000000000000000000000000000000000000000000000000000000000a000000000000000000000000000000000000000000000000000000000000000e0000000000000000000000000000000000000000000000000000000000000012000000000000000000000000000000000000000000000000000000000000000010000000000000000000000000000000000000000000000000000000000000001000000000000000000000000000000000000000000000000000000000000000100000000000000000000000000000000000000000000000000000000000000010000000000000000000000000000000000000000000000000000000000000000",
        "nonce": "0x2d",
        "chainId": "0x13882"
      },
      "additionalContracts": [],
      "isFixedGasLimit": false
    }
  ],
  "receipts": [
    {
      "status": "0x1",
      "cumulativeGasUsed": "0xc3f7",
      "logs": [
        {
          "address": "0x0000000000000000000000000000000000001010",
          "topics": [
            "0xe6497e3ee548a3372136af2fcb0696db31fc6cf20260707645068bd3fe97f3c4",
            "0x0000000000000000000000000000000000000000000000000000000000001010",
            "0x0000000000000000000000003fdf7fd35f4e16afb548a79ab5ee40e8c344982d",
            "0x00000000000000000000000033d63df28f46dc37efbba55af25f734417dd1acb"
          ],
          "data": "0x00000000000000000000000000000000000000000000000000470de4df82000000000000000000000000000000000000000000000000000005c5dbce1098a911000000000000000000000000000000000000000000000000030d98d59a960000000000000000000000000000000000000000000000000000057ecde93116a9110000000000000000000000000000000000000000000000000354a6ba7a180000",
          "blockHash": "0x532c5f546658c2076338842f48be84aa07da9afa467ec11e665f280e8f29a2e3",
          "blockNumber": "0xc45882",
          "transactionHash": "0x8e62cdcca57acc049e24152ae89f1b9c30dfcc7a561c9ee17febd40aa32021c8",
          "transactionIndex": "0x0",
          "logIndex": "0x0",
          "removed": false
        },
        {
          "address": "0x33d63DF28F46dC37efbBA55AF25F734417Dd1Acb",
          "topics": [
            "0xc3d58168c5ae7397731d063d5bbf3d657854427343f4c083240f7aacaa2d0f62",
            "0x0000000000000000000000003fdf7fd35f4e16afb548a79ab5ee40e8c344982d",
            "0x0000000000000000000000000000000000000000000000000000000000000000",
            "0x0000000000000000000000003fdf7fd35f4e16afb548a79ab5ee40e8c344982d"
          ],
          "data": "0x00000000000000000000000000000000000000000000000000000000000000010000000000000000000000000000000000000000000000000000000000000002",
          "blockHash": "0x532c5f546658c2076338842f48be84aa07da9afa467ec11e665f280e8f29a2e3",
          "blockNumber": "0xc45882",
          "transactionHash": "0x8e62cdcca57acc049e24152ae89f1b9c30dfcc7a561c9ee17febd40aa32021c8",
          "transactionIndex": "0x0",
          "logIndex": "0x1",
          "removed": false
        },
        {
          "address": "0x0000000000000000000000000000000000001010",
          "topics": [
            "0x4dfe1bbbcf077ddc3e01291eea2d5c70c2b422b415d95645b9adcfd678cb1d63",
            "0x0000000000000000000000000000000000000000000000000000000000001010",
            "0x0000000000000000000000003fdf7fd35f4e16afb548a79ab5ee40e8c344982d",
            "0x00000000000000000000000009207a6efee346cb3e4a54ac18523e3715d38b3f"
          ],
          "data": "0x00000000000000000000000000000000000000000000000000066200dbc7ed2800000000000000000000000000000000000000000000000005ceacbbe7d3bd450000000000000000000000000000000000000000000002d8bd08a6f5ac1d75b700000000000000000000000000000000000000000000000005c84abb0c0bd01d0000000000000000000000000000000000000000000002d8bd0f08f687e562df",
          "blockHash": "0x532c5f546658c2076338842f48be84aa07da9afa467ec11e665f280e8f29a2e3",
          "blockNumber": "0xc45882",
          "transactionHash": "0x8e62cdcca57acc049e24152ae89f1b9c30dfcc7a561c9ee17febd40aa32021c8",
          "transactionIndex": "0x0",
          "logIndex": "0x2",
          "removed": false
        }
      ],
      "logsBloom": "0x00000000000000000000000000000000000000000000000000000000000000000000000000000000000000100000000000008000000000200000010000002000000000008000000000000000000000800000000000000000000100000000000000000000020000000000000000000800080000000000000080040008000000000000000000000000000000000000000000004000004000000400000000000000200000000000000000000000000000000000000000000000000000000000004000000000000000000001000000000000000000000008800002108000000020000000000000000000000000010000000000000000000000002000080000100000",
      "type": "0x2",
      "transactionHash": "0x8e62cdcca57acc049e24152ae89f1b9c30dfcc7a561c9ee17febd40aa32021c8",
      "transactionIndex": "0x0",
      "blockHash": "0x532c5f546658c2076338842f48be84aa07da9afa467ec11e665f280e8f29a2e3",
      "blockNumber": "0xc45882",
      "gasUsed": "0xc3f7",
      "effectiveGasPrice": "0x856976227",
      "from": "0x3FDF7Fd35F4e16afB548a79AB5eE40E8C344982D",
      "to": "0x33d63DF28F46dC37efbBA55AF25F734417Dd1Acb",
      "contractAddress": null
    },
    {
      "status": "0x1",
      "cumulativeGasUsed": "0x14138",
      "logs": [
        {
          "address": "0xdBdF8c47C566A2656bFAE5c06FbF928174c4F1bf",
          "topics": [
            "0xddf252ad1be2c89b69c2b068fc378daa952ba7f163c4a11628f55a4df523b3ef",
            "0x0000000000000000000000003fdf7fd35f4e16afb548a79ab5ee40e8c344982d",
            "0x0000000000000000000000003fdf7fd35f4e16afb548a79ab5ee40e8c344982d"
          ],
          "data": "0x000000000000000000000000000000000000000000000000002386f26fc10000",
          "blockHash": "0x532c5f546658c2076338842f48be84aa07da9afa467ec11e665f280e8f29a2e3",
          "blockNumber": "0xc45882",
          "transactionHash": "0x1c22c32012a24d6eaa3a02fba5783fb2eedcf9d496ed77fd615d05e686148c6c",
          "transactionIndex": "0x1",
          "logIndex": "0x3",
          "removed": false
        },
        {
          "address": "0xdBdF8c47C566A2656bFAE5c06FbF928174c4F1bf",
          "topics": [
            "0xddf252ad1be2c89b69c2b068fc378daa952ba7f163c4a11628f55a4df523b3ef",
            "0x0000000000000000000000003fdf7fd35f4e16afb548a79ab5ee40e8c344982d",
            "0x0000000000000000000000003fdf7fd35f4e16afb548a79ab5ee40e8c344982d"
          ],
          "data": "0x0000000000000000000000000000000000000000000000000dbd2fc137a30000",
          "blockHash": "0x532c5f546658c2076338842f48be84aa07da9afa467ec11e665f280e8f29a2e3",
          "blockNumber": "0xc45882",
          "transactionHash": "0x1c22c32012a24d6eaa3a02fba5783fb2eedcf9d496ed77fd615d05e686148c6c",
          "transactionIndex": "0x1",
          "logIndex": "0x4",
          "removed": false
        },
        {
          "address": "0x0000000000000000000000000000000000001010",
          "topics": [
            "0x4dfe1bbbcf077ddc3e01291eea2d5c70c2b422b415d95645b9adcfd678cb1d63",
            "0x0000000000000000000000000000000000000000000000000000000000001010",
            "0x0000000000000000000000003fdf7fd35f4e16afb548a79ab5ee40e8c344982d",
            "0x00000000000000000000000009207a6efee346cb3e4a54ac18523e3715d38b3f"
          ],
          "data": "0x00000000000000000000000000000000000000000000000000041465e755a01800000000000000000000000000000000000000000000000005813cd62c7e54a40000000000000000000000000000000000000000000002d8bd0f08f687e562df000000000000000000000000000000000000000000000000057d28704528b48c0000000000000000000000000000000000000000000002d8bd131d5c6f3b02f7",
          "blockHash": "0x532c5f546658c2076338842f48be84aa07da9afa467ec11e665f280e8f29a2e3",
          "blockNumber": "0xc45882",
          "transactionHash": "0x1c22c32012a24d6eaa3a02fba5783fb2eedcf9d496ed77fd615d05e686148c6c",
          "transactionIndex": "0x1",
          "logIndex": "0x5",
          "removed": false
        }
      ],
      "logsBloom": "0x00000000000000000000000000000000000000000000000000000000000000000000000000000000000000000000000000008000000000000000010000000000000000008000000000000008000004800000000000000000000100000000000000000000000000000000000000000000000000000000000080040010000000000000000000000000000000000000000000004001000000000000000000000000200000000000000000020000000000000000000000000000000000000000004000000002000000000001000000000000000000000000000002100000000000000000000000000000000000010000000000000000000000000000000000100000",
      "type": "0x2",
      "transactionHash": "0x1c22c32012a24d6eaa3a02fba5783fb2eedcf9d496ed77fd615d05e686148c6c",
      "transactionIndex": "0x1",
      "blockHash": "0x532c5f546658c2076338842f48be84aa07da9afa467ec11e665f280e8f29a2e3",
      "blockNumber": "0xc45882",
      "gasUsed": "0x7d41",
      "effectiveGasPrice": "0x856976227",
      "from": "0x3FDF7Fd35F4e16afB548a79AB5eE40E8C344982D",
      "to": "0xdBdF8c47C566A2656bFAE5c06FbF928174c4F1bf",
      "contractAddress": null
    },
    {
      "status": "0x1",
      "cumulativeGasUsed": "0x1dd70",
      "logs": [
        {
          "address": "0x33d63DF28F46dC37efbBA55AF25F734417Dd1Acb",
          "topics": [
            "0xc3d58168c5ae7397731d063d5bbf3d657854427343f4c083240f7aacaa2d0f62",
            "0x0000000000000000000000003fdf7fd35f4e16afb548a79ab5ee40e8c344982d",
            "0x0000000000000000000000003fdf7fd35f4e16afb548a79ab5ee40e8c344982d",
            "0x0000000000000000000000008493a952bfd0ea51f30a2fe93994768e88505b48"
          ],
          "data": "0x00000000000000000000000000000000000000000000000000000000000000010000000000000000000000000000000000000000000000000000000000000001",
          "blockHash": "0x532c5f546658c2076338842f48be84aa07da9afa467ec11e665f280e8f29a2e3",
          "blockNumber": "0xc45882",
          "transactionHash": "0x880b398d0f343d016d7f9b93922a45c560470a1a314218878ce95a2d6a2575f1",
          "transactionIndex": "0x2",
          "logIndex": "0x6",
          "removed": false
        },
        {
          "address": "0x0000000000000000000000000000000000001010",
          "topics": [
            "0x4dfe1bbbcf077ddc3e01291eea2d5c70c2b422b415d95645b9adcfd678cb1d63",
            "0x0000000000000000000000000000000000000000000000000000000000001010",
            "0x0000000000000000000000003fdf7fd35f4e16afb548a79ab5ee40e8c344982d",
            "0x00000000000000000000000009207a6efee346cb3e4a54ac18523e3715d38b3f"
          ],
          "data": "0x0000000000000000000000000000000000000000000000000005169730e41540000000000000000000000000000000000000000000000000057d287045215dbd0000000000000000000000000000000000000000000002d8bd131d5c6f3b02f7000000000000000000000000000000000000000000000000057811d9143d487d0000000000000000000000000000000000000000000002d8bd1833f3a01f1837",
          "blockHash": "0x532c5f546658c2076338842f48be84aa07da9afa467ec11e665f280e8f29a2e3",
          "blockNumber": "0xc45882",
          "transactionHash": "0x880b398d0f343d016d7f9b93922a45c560470a1a314218878ce95a2d6a2575f1",
          "transactionIndex": "0x2",
          "logIndex": "0x7",
          "removed": false
        }
      ],
      "logsBloom": "0x00000000000000000000000000000000000000000000000000000000000000000000000000000000000000000000000000008000000000000000010000002000000000008000000000000000000000800000000000000000000100000000000000000000000000000000000000000000080000000000000080040008000000000000000000000000400000000000000000004000000000000000000000000000200000000400000000000000000000000000000000000000000000000000004000000000000000000001000000000000000000000008000002100020000000000000000000000000000000010000000000000000000000002000080000100000",
      "type": "0x2",
      "transactionHash": "0x880b398d0f343d016d7f9b93922a45c560470a1a314218878ce95a2d6a2575f1",
      "transactionIndex": "0x2",
      "blockHash": "0x532c5f546658c2076338842f48be84aa07da9afa467ec11e665f280e8f29a2e3",
      "blockNumber": "0xc45882",
      "gasUsed": "0x9c38",
      "effectiveGasPrice": "0x856976227",
      "from": "0x3FDF7Fd35F4e16afB548a79AB5eE40E8C344982D",
      "to": "0x33d63DF28F46dC37efbBA55AF25F734417Dd1Acb",
      "contractAddress": null
    },
    {
      "status": "0x1",
      "cumulativeGasUsed": "0x26c55",
      "logs": [
        {
          "address": "0x33d63DF28F46dC37efbBA55AF25F734417Dd1Acb",
          "topics": [
            "0xc3d58168c5ae7397731d063d5bbf3d657854427343f4c083240f7aacaa2d0f62",
            "0x0000000000000000000000003fdf7fd35f4e16afb548a79ab5ee40e8c344982d",
            "0x0000000000000000000000003fdf7fd35f4e16afb548a79ab5ee40e8c344982d",
            "0x0000000000000000000000008493a952bfd0ea51f30a2fe93994768e88505b48"
          ],
          "data": "0x00000000000000000000000000000000000000000000000000000000000000010000000000000000000000000000000000000000000000000000000000000001",
          "blockHash": "0x532c5f546658c2076338842f48be84aa07da9afa467ec11e665f280e8f29a2e3",
          "blockNumber": "0xc45882",
          "transactionHash": "0x26d31627e9782c5b53c3dcf369c96dfaa9b9280176d010c00962f163584ef3ba",
          "transactionIndex": "0x3",
          "logIndex": "0x8",
          "removed": false
        },
        {
          "address": "0x0000000000000000000000000000000000001010",
          "topics": [
            "0x4dfe1bbbcf077ddc3e01291eea2d5c70c2b422b415d95645b9adcfd678cb1d63",
            "0x0000000000000000000000000000000000000000000000000000000000001010",
            "0x0000000000000000000000003fdf7fd35f4e16afb548a79ab5ee40e8c344982d",
            "0x00000000000000000000000009207a6efee346cb3e4a54ac18523e3715d38b3f"
          ],
          "data": "0x0000000000000000000000000000000000000000000000000004a77d6dd40f78000000000000000000000000000000000000000000000000057811d9143421350000000000000000000000000000000000000000000002d8bd1833f3a01f183700000000000000000000000000000000000000000000000005736a5ba66011bd0000000000000000000000000000000000000000000002d8bd1cdb710df327af",
          "blockHash": "0x532c5f546658c2076338842f48be84aa07da9afa467ec11e665f280e8f29a2e3",
          "blockNumber": "0xc45882",
          "transactionHash": "0x26d31627e9782c5b53c3dcf369c96dfaa9b9280176d010c00962f163584ef3ba",
          "transactionIndex": "0x3",
          "logIndex": "0x9",
          "removed": false
        }
      ],
      "logsBloom": "0x00000000000000000000000000000000000000000000000000000000000000000000000000000000000000000000000000008000000000000000010000002000000000008000000000000000000000800000000000000000000100000000000000000000000000000000000000000000080000000000000080040008000000000000000000000000400000000000000000004000000000000000000000000000200000000400000000000000000000000000000000000000000000000000004000000000000000000001000000000000000000000008000002100020000000000000000000000000000000010000000000000000000000002000080000100000",
      "type": "0x2",
      "transactionHash": "0x26d31627e9782c5b53c3dcf369c96dfaa9b9280176d010c00962f163584ef3ba",
      "transactionIndex": "0x3",
      "blockHash": "0x532c5f546658c2076338842f48be84aa07da9afa467ec11e665f280e8f29a2e3",
      "blockNumber": "0xc45882",
      "gasUsed": "0x8ee5",
      "effectiveGasPrice": "0x856976227",
      "from": "0x3FDF7Fd35F4e16afB548a79AB5eE40E8C344982D",
      "to": "0x33d63DF28F46dC37efbBA55AF25F734417Dd1Acb",
      "contractAddress": null
    }
  ],
  "libraries": [],
  "pending": [],
  "returns": {},
  "timestamp": 1728257046,
  "chain": 80002,
  "commit": "8f148fa"
}