{
  "transactions": [
    {
      "hash": "0x360cc1960fe96f0d57a9008b08dae371d0a87ec3799ec80b8c87e4530f854581",
      "transactionType": "CALL",
      "contractName": null,
      "contractAddress": "0x993a574175C8834e8838e85c30DD60633163EDB4",
      "function": "buyToken()",
      "arguments": [],
      "transaction": {
        "from": "0x3FDF7Fd35F4e16afB548a79AB5eE40E8C344982D",
        "to": "0x993a574175C8834e8838e85c30DD60633163EDB4",
        "gas": "0xb51b",
        "value": "0x2386f26fc10000",
        "input": "0xa4821719",
        "nonce": "0xd",
        "chainId": "0x13882"
      },
      "additionalContracts": [],
      "isFixedGasLimit": false
    },
    {
      "hash": "0x8ef6ad3cadf5981a963b81800d03f849be7a379ff1ddc1781c7e5b62724b082c",
      "transactionType": "CALL",
      "contractName": null,
      "contractAddress": "0x82AeECCa746271569f06c232c980ad4096a3bD4d",
      "function": "buyNFT(string)",
      "arguments": [
        "ipfs://metadata-uri"
      ],
      "transaction": {
        "from": "0x3FDF7Fd35F4e16afB548a79AB5eE40E8C344982D",
        "to": "0x82AeECCa746271569f06c232c980ad4096a3bD4d",
        "gas": "0x1bf8e",
        "value": "0x2386f26fc10000",
        "input": "0x8d01230000000000000000000000000000000000000000000000000000000000000000200000000000000000000000000000000000000000000000000000000000000013697066733a2f2f6d657461646174612d75726900000000000000000000000000",
        "nonce": "0xe",
        "chainId": "0x13882"
      },
      "additionalContracts": [],
      "isFixedGasLimit": false
    },
    {
      "hash": "0x07d52e7b3b1c45377c72d3260ba0a372618c28fb33db8b21509f188e14f961b3",
      "transactionType": "CALL",
      "contractName": null,
      "contractAddress": "0x33d63DF28F46dC37efbBA55AF25F734417Dd1Acb",
      "function": "buyToken(address,uint256,uint256)",
      "arguments": [
        "0x1804c8AB1F12E6bbf3894d4083f33e07309d1f38",
        "1",
        "10"
      ],
      "transaction": {
        "from": "0x3FDF7Fd35F4e16afB548a79AB5eE40E8C344982D",
        "to": "0x33d63DF28F46dC37efbBA55AF25F734417Dd1Acb",
        "gas": "0x12ce1",
        "value": "0x16345785d8a0000",
        "input": "0xe671499b0000000000000000000000001804c8ab1f12e6bbf3894d4083f33e07309d1f380000000000000000000000000000000000000000000000000000000000000001000000000000000000000000000000000000000000000000000000000000000a",
        "nonce": "0xf",
        "chainId": "0x13882"
      },
      "additionalContracts": [],
      "isFixedGasLimit": false
    }
  ],
  "receipts": [
    {
      "status": "0x1",
      "cumulativeGasUsed": "0x831f",
      "logs": [
        {
          "address": "0x0000000000000000000000000000000000001010",
          "topics": [
            "0xe6497e3ee548a3372136af2fcb0696db31fc6cf20260707645068bd3fe97f3c4",
            "0x0000000000000000000000000000000000000000000000000000000000001010",
            "0x0000000000000000000000003fdf7fd35f4e16afb548a79ab5ee40e8c344982d",
            "0x000000000000000000000000993a574175c8834e8838e85c30dd60633163edb4"
          ],
          "data": "0x000000000000000000000000000000000000000000000000002386f26fc1000000000000000000000000000000000000000000000000000002b5e7f15d5725e80000000000000000000000000000000000000000000000000000000000000000000000000000000000000000000000000000000000000000029260feed9625e8000000000000000000000000000000000000000000000000002386f26fc10000",
          "blockHash": "0xbd00bfd9a04c626d4306ecc35226d01f357f539630abe740d5f50f669d69e3c5",
          "blockNumber": "0xc42c93",
          "transactionHash": "0x360cc1960fe96f0d57a9008b08dae371d0a87ec3799ec80b8c87e4530f854581",
          "transactionIndex": "0x0",
          "logIndex": "0x0",
          "removed": false
        },
        {
          "address": "0x993a574175C8834e8838e85c30DD60633163EDB4",
          "topics": [
            "0xddf252ad1be2c89b69c2b068fc378daa952ba7f163c4a11628f55a4df523b3ef",
            "0x0000000000000000000000000000000000000000000000000000000000000000",
            "0x0000000000000000000000003fdf7fd35f4e16afb548a79ab5ee40e8c344982d"
          ],
          "data": "0x0000000000000000000000000000000000000000000000000de0b6b3a7640000",
          "blockHash": "0xbd00bfd9a04c626d4306ecc35226d01f357f539630abe740d5f50f669d69e3c5",
          "blockNumber": "0xc42c93",
          "transactionHash": "0x360cc1960fe96f0d57a9008b08dae371d0a87ec3799ec80b8c87e4530f854581",
          "transactionIndex": "0x0",
          "logIndex": "0x1",
          "removed": false
        },
        {
          "address": "0x0000000000000000000000000000000000001010",
          "topics": [
            "0x4dfe1bbbcf077ddc3e01291eea2d5c70c2b422b415d95645b9adcfd678cb1d63",
            "0x0000000000000000000000000000000000000000000000000000000000001010",
            "0x0000000000000000000000003fdf7fd35f4e16afb548a79ab5ee40e8c344982d",
            "0x0000000000000000000000006ab3d36c46ecfb9b9c0bd51cb1c3da5a2c81cea6"
          ],
          "data": "0x0000000000000000000000000000000000000000000000000008684b8c52660800000000000000000000000000000000000000000000000002c184b5a0a214a50000000000000000000000000000000000000000000002eb93afd3f0399c2aec00000000000000000000000000000000000000000000000002b91c6a144fae9d0000000000000000000000000000000000000000000002eb93b83c3bc5ee90f4",
          "blockHash": "0xbd00bfd9a04c626d4306ecc35226d01f357f539630abe740d5f50f669d69e3c5",
          "blockNumber": "0xc42c93",
          "transactionHash": "0x360cc1960fe96f0d57a9008b08dae371d0a87ec3799ec80b8c87e4530f854581",
          "transactionIndex": "0x0",
          "logIndex": "0x2",
          "removed": false
        }
      ],
      "logsBloom": "0x00000000080000000000000000000000000000000000000000000000000000000000000000000000000000100000000000008000000000000000000000000000000000088000000000000008000000c00000000000000000000100000000000000000000021000000000000000000800002000000000000080040010000000000000000000001000000000000000000000000000000000000000000000000000200000000000000000000000000000000000000000000000000000000000004002000002000000000001000000000000000000010000800002108000000020000000000000000000000000000000080000000000000000000000000000100000",
      "type": "0x2",
      "transactionHash": "0x360cc1960fe96f0d57a9008b08dae371d0a87ec3799ec80b8c87e4530f854581",
      "transactionIndex": "0x0",
      "blockHash": "0xbd00bfd9a04c626d4306ecc35226d01f357f539630abe740d5f50f669d69e3c5",
      "blockNumber": "0xc42c93",
      "gasUsed": "0x831f",
      "effectiveGasPrice": "0x106a20a107",
      "from": "0x3FDF7Fd35F4e16afB548a79AB5eE40E8C344982D",
      "to": "0x993a574175C8834e8838e85c30DD60633163EDB4",
      "contractAddress": null
    },
    {
      "status": "0x1",
      "cumulativeGasUsed": "0x1c725",
      "logs": [
        {
          "address": "0x0000000000000000000000000000000000001010",
          "topics": [
            "0xe6497e3ee548a3372136af2fcb0696db31fc6cf20260707645068bd3fe97f3c4",
            "0x0000000000000000000000000000000000000000000000000000000000001010",
            "0x0000000000000000000000003fdf7fd35f4e16afb548a79ab5ee40e8c344982d",
            "0x00000000000000000000000082aeecca746271569f06c232c980ad4096a3bd4d"
          ],
          "data": "0x000000000000000000000000000000000000000000000000002386f26fc100000000000000000000000000000000000000000000000000000278e30dcd4274ea000000000000000000000000000000000000000000000000006a94d74f43000000000000000000000000000000000000000000000000000002555c1b5d8174ea000000000000000000000000000000000000000000000000008e1bc9bf040000",
          "blockHash": "0xbd00bfd9a04c626d4306ecc35226d01f357f539630abe740d5f50f669d69e3c5",
          "blockNumber": "0xc42c93",
          "transactionHash": "0x8ef6ad3cadf5981a963b81800d03f849be7a379ff1ddc1781c7e5b62724b082c",
          "transactionIndex": "0x1",
          "logIndex": "0x3",
          "removed": false
        },
        {
          "address": "0x82AeECCa746271569f06c232c980ad4096a3bD4d",
          "topics": [
            "0xddf252ad1be2c89b69c2b068fc378daa952ba7f163c4a11628f55a4df523b3ef",
            "0x0000000000000000000000000000000000000000000000000000000000000000",
            "0x0000000000000000000000003fdf7fd35f4e16afb548a79ab5ee40e8c344982d",
            "0x0000000000000000000000000000000000000000000000000000000000000004"
          ],
          "data": "0x",
          "blockHash": "0xbd00bfd9a04c626d4306ecc35226d01f357f539630abe740d5f50f669d69e3c5",
          "blockNumber": "0xc42c93",
          "transactionHash": "0x8ef6ad3cadf5981a963b81800d03f849be7a379ff1ddc1781c7e5b62724b082c",
          "transactionIndex": "0x1",
          "logIndex": "0x4",
          "removed": false
        },
        {
          "address": "0x82AeECCa746271569f06c232c980ad4096a3bD4d",
          "topics": [
            "0xf8e1a15aba9398e019f0b49df1a4fde98ee17ae345cb5f6b5e2c27f5033e8ce7"
          ],
          "data": "0x0000000000000000000000000000000000000000000000000000000000000004",
          "blockHash": "0xbd00bfd9a04c626d4306ecc35226d01f357f539630abe740d5f50f669d69e3c5",
          "blockNumber": "0xc42c93",
          "transactionHash": "0x8ef6ad3cadf5981a963b81800d03f849be7a379ff1ddc1781c7e5b62724b082c",
          "transactionIndex": "0x1",
          "logIndex": "0x5",
          "removed": false
        },
        {
          "address": "0x0000000000000000000000000000000000001010",
          "topics": [
            "0x4dfe1bbbcf077ddc3e01291eea2d5c70c2b422b415d95645b9adcfd678cb1d63",
            "0x0000000000000000000000000000000000000000000000000000000000001010",
            "0x0000000000000000000000003fdf7fd35f4e16afb548a79ab5ee40e8c344982d",
            "0x0000000000000000000000006ab3d36c46ecfb9b9c0bd51cb1c3da5a2c81cea6"
          ],
          "data": "0x0000000000000000000000000000000000000000000000000014c6b3c87da5d000000000000000000000000000000000000000000000000002959577a486ffcc0000000000000000000000000000000000000000000002eb93b83c3bc5ee90f40000000000000000000000000000000000000000000000000280cec3dc0959fc0000000000000000000000000000000000000000000002eb93cd02ef8e6c36c4",
          "blockHash": "0xbd00bfd9a04c626d4306ecc35226d01f357f539630abe740d5f50f669d69e3c5",
          "blockNumber": "0xc42c93",
          "transactionHash": "0x8ef6ad3cadf5981a963b81800d03f849be7a379ff1ddc1781c7e5b62724b082c",
          "transactionIndex": "0x1",
          "logIndex": "0x6",
          "removed": false
        }
      ],
      "logsBloom": "0x00000000080000000000000000000000000000000000000000000000000000000000000000000000000000100200000000008000000000000000000000800000000000088000000000000008000000a0000000000000000000010000000000000800000002000000000000000000080000000000000000008004001000008000000000000100000000000000000000000000000000000000000000000000000020000000000000000000000000000000200000000000000000200000000000c000000002000000000001000000000000000000018000800002108000000020000080000000000000200000000000000000000000000000000000000000100000",
      "type": "0x2",
      "transactionHash": "0x8ef6ad3cadf5981a963b81800d03f849be7a379ff1ddc1781c7e5b62724b082c",
      "transactionIndex": "0x1",
      "blockHash": "0xbd00bfd9a04c626d4306ecc35226d01f357f539630abe740d5f50f669d69e3c5",
      "blockNumber": "0xc42c93",
      "gasUsed": "0x14406",
      "effectiveGasPrice": "0x106a20a107",
      "from": "0x3FDF7Fd35F4e16afB548a79AB5eE40E8C344982D",
      "to": "0x82AeECCa746271569f06c232c980ad4096a3bD4d",
      "contractAddress": null
    },
    {
      "status": "0x1",
      "cumulativeGasUsed": "0x294e0",
      "logs": [
        {
          "address": "0x0000000000000000000000000000000000001010",
          "topics": [
            "0xe6497e3ee548a3372136af2fcb0696db31fc6cf20260707645068bd3fe97f3c4",
            "0x0000000000000000000000000000000000000000000000000000000000001010",
            "0x0000000000000000000000003fdf7fd35f4e16afb548a79ab5ee40e8c344982d",
            "0x00000000000000000000000033d63df28f46dc37efbba55af25f734417dd1acb"
          ],
          "data": "0x000000000000000000000000000000000000000000000000016345785d8a00000000000000000000000000000000000000000000000000000249fd05e8d3a27b000000000000000000000000000000000000000000000000000000000000000000000000000000000000000000000000000000000000000000e6b78d8b49a27b000000000000000000000000000000000000000000000000016345785d8a0000",
          "blockHash": "0xbd00bfd9a04c626d4306ecc35226d01f357f539630abe740d5f50f669d69e3c5",
          "blockNumber": "0xc42c93",
          "transactionHash": "0x07d52e7b3b1c45377c72d3260ba0a372618c28fb33db8b21509f188e14f961b3",
          "transactionIndex": "0x2",
          "logIndex": "0x7",
          "removed": false
        },
        {
          "address": "0x33d63DF28F46dC37efbBA55AF25F734417Dd1Acb",
          "topics": [
            "0xc3d58168c5ae7397731d063d5bbf3d657854427343f4c083240f7aacaa2d0f62",
            "0x0000000000000000000000003fdf7fd35f4e16afb548a79ab5ee40e8c344982d",
            "0x0000000000000000000000000000000000000000000000000000000000000000",
            "0x0000000000000000000000001804c8ab1f12e6bbf3894d4083f33e07309d1f38"
          ],
          "data": "0x0000000000000000000000000000000000000000000000000000000000000001000000000000000000000000000000000000000000000000000000000000000a",
          "blockHash": "0xbd00bfd9a04c626d4306ecc35226d01f357f539630abe740d5f50f669d69e3c5",
          "blockNumber": "0xc42c93",
          "transactionHash": "0x07d52e7b3b1c45377c72d3260ba0a372618c28fb33db8b21509f188e14f961b3",
          "transactionIndex": "0x2",
          "logIndex": "0x8",
          "removed": false
        },
        {
          "address": "0x0000000000000000000000000000000000001010",
          "topics": [
            "0x4dfe1bbbcf077ddc3e01291eea2d5c70c2b422b415d95645b9adcfd678cb1d63",
            "0x0000000000000000000000000000000000000000000000000000000000001010",
            "0x0000000000000000000000003fdf7fd35f4e16afb548a79ab5ee40e8c344982d",
            "0x0000000000000000000000006ab3d36c46ecfb9b9c0bd51cb1c3da5a2c81cea6"
          ],
          "data": "0x000000000000000000000000000000000000000000000000000d30f9a6bc2d28000000000000000000000000000000000000000000000000025d47d16c355da20000000000000000000000000000000000000000000002eb93cd02ef8e6c36c4000000000000000000000000000000000000000000000000025016d7c579307a0000000000000000000000000000000000000000000002eb93da33e9352863ec",
          "blockHash": "0xbd00bfd9a04c626d4306ecc35226d01f357f539630abe740d5f50f669d69e3c5",
          "blockNumber": "0xc42c93",
          "transactionHash": "0x07d52e7b3b1c45377c72d3260ba0a372618c28fb33db8b21509f188e14f961b3",
          "transactionIndex": "0x2",
          "logIndex": "0x9",
          "removed": false
        }
      ],
      "logsBloom": "0x00000000080000000000000000000000000000000000000000000000000000000000000000000000000000100000000000008000000000200000000000002000000000088000000000000000000000800000000000000000000100000000000000000000020000000001000000000800080000000000000080040008000000000000000000000000000004000000000000000000004000000400000000000000200000000000000000000000000000000000000000000000000000000000004000000000000004000001000000000000000000010008800002108000000020000000000000000000000000000000000000000000000000002000080000100000",
      "type": "0x2",
      "transactionHash": "0x07d52e7b3b1c45377c72d3260ba0a372618c28fb33db8b21509f188e14f961b3",
      "transactionIndex": "0x2",
      "blockHash": "0xbd00bfd9a04c626d4306ecc35226d01f357f539630abe740d5f50f669d69e3c5",
      "blockNumber": "0xc42c93",
      "gasUsed": "0xcdbb",
      "effectiveGasPrice": "0x106a20a107",
      "from": "0x3FDF7Fd35F4e16afB548a79AB5eE40E8C344982D",
      "to": "0x33d63DF28F46dC37efbBA55AF25F734417Dd1Acb",
      "contractAddress": null
    }
  ],
  "libraries": [],
  "pending": [],
  "returns": {},
  "timestamp": 1728233145,
  "chain": 80002,
  "commit": "8f148fa"
}