{
  "transactions": [
    {
      "hash": "0x036c5d034d1c4c0c8402284ae051a18c7261ad7cba307f2217e4b9f3d6bac6eb",
      "transactionType": "CALL",
      "contractName": null,
      "contractAddress": "0xdBdF8c47C566A2656bFAE5c06FbF928174c4F1bf",
      "function": "buyToken()",
      "arguments": [],
      "transaction": {
        "from": "0x3FDF7Fd35F4e16afB548a79AB5eE40E8C344982D",
        "to": "0xdBdF8c47C566A2656bFAE5c06FbF928174c4F1bf",
        "gas": "0xb51b",
        "value": "0x470de4df820000",
        "input": "0xa4821719",
        "nonce": "0x18",
        "chainId": "0x13882"
      },
      "additionalContracts": [],
      "isFixedGasLimit": false
    },
    {
      "hash": "0x178f7b39452740f950731242043fb3026aa8b82a0d94e3dac926d9ba06923b0d",
      "transactionType": "CALL",
      "contractName": null,
      "contractAddress": "0xdBdF8c47C566A2656bFAE5c06FbF928174c4F1bf",
      "function": "transfer(address,uint256)",
      "arguments": [
        "0x8493a952bfD0EA51f30a2fE93994768e88505b48",
        "5000000000000000000"
      ],
      "transaction": {
        "from": "0x3FDF7Fd35F4e16afB548a79AB5eE40E8C344982D",
        "to": "0xdBdF8c47C566A2656bFAE5c06FbF928174c4F1bf",
        "gas": "0x13245",
        "value": "0x0",
        "input": "0xa9059cbb0000000000000000000000008493a952bfd0ea51f30a2fe93994768e88505b480000000000000000000000000000000000000000000000004563918244f40000",
        "nonce": "0x19",
        "chainId": "0x13882"
      },
      "additionalContracts": [],
      "isFixedGasLimit": false
    }
  ],
  "receipts": [
    {
      "status": "0x1",
      "cumulativeGasUsed": "0x831f",
      "logs": [
        {
          "address": "0x0000000000000000000000000000000000001010",
          "topics": [
            "0xe6497e3ee548a3372136af2fcb0696db31fc6cf20260707645068bd3fe97f3c4",
            "0x0000000000000000000000000000000000000000000000000000000000001010",
            "0x0000000000000000000000003fdf7fd35f4e16afb548a79ab5ee40e8c344982d",
            "0x000000000000000000000000dbdf8c47c566a2656bfae5c06fbf928174c4f1bf"
          ],
          "data": "0x00000000000000000000000000000000000000000000000000470de4df82000000000000000000000000000000000000000000000000000003c0bea8b0cd4bf100000000000000000000000000000000000000000000000000470de4df8200000000000000000000000000000000000000000000000000000379b0c3d14b4bf1000000000000000000000000000000000000000000000000008e1bc9bf040000",
          "blockHash": "0x350b6fd31fdfea5f0b3c3e05fc7984c9cefde9fb409fb9fbd09f41106362e041",
          "blockNumber": "0xc446e6",
          "transactionHash": "0x036c5d034d1c4c0c8402284ae051a18c7261ad7cba307f2217e4b9f3d6bac6eb",
          "transactionIndex": "0x0",
          "logIndex": "0x0",
          "removed": false
        },
        {
          "address": "0xdBdF8c47C566A2656bFAE5c06FbF928174c4F1bf",
          "topics": [
            "0xddf252ad1be2c89b69c2b068fc378daa952ba7f163c4a11628f55a4df523b3ef",
            "0x0000000000000000000000000000000000000000000000000000000000000000",
            "0x0000000000000000000000003fdf7fd35f4e16afb548a79ab5ee40e8c344982d"
          ],
          "data": "0x0000000000000000000000000000000000000000000000001bc16d674ec80000",
          "blockHash": "0x350b6fd31fdfea5f0b3c3e05fc7984c9cefde9fb409fb9fbd09f41106362e041",
          "blockNumber": "0xc446e6",
          "transactionHash": "0x036c5d034d1c4c0c8402284ae051a18c7261ad7cba307f2217e4b9f3d6bac6eb",
          "transactionIndex": "0x0",
          "logIndex": "0x1",
          "removed": false
        },
        {
          "address": "0x0000000000000000000000000000000000001010",
          "topics": [
            "0x4dfe1bbbcf077ddc3e01291eea2d5c70c2b422b415d95645b9adcfd678cb1d63",
            "0x0000000000000000000000000000000000000000000000000000000000001010",
            "0x0000000000000000000000003fdf7fd35f4e16afb548a79ab5ee40e8c344982d",
            "0x0000000000000000000000004ad84f7014b7b44f723f284a85b1662337971439"
          ],
          "data": "0x0000000000000000000000000000000000000000000000000005c0b82917d52f00000000000000000000000000000000000000000000000003c8b0ca53d4dff1000000000000000000000000000000000000000000000309a9c86a2664027c1700000000000000000000000000000000000000000000000003c2f0122abd0ac2000000000000000000000000000000000000000000000309a9ce2ade8d1a5146",
          "blockHash": "0x350b6fd31fdfea5f0b3c3e05fc7984c9cefde9fb409fb9fbd09f41106362e041",
          "blockNumber": "0xc446e6",
          "transactionHash": "0x036c5d034d1c4c0c8402284ae051a18c7261ad7cba307f2217e4b9f3d6bac6eb",
          "transactionIndex": "0x0",
          "logIndex": "0x2",
          "removed": false
        }
      ],
      "logsBloom": "0x00000000000000000000000000000000000000000000000000000000000000000000000000000000000000100000000000008000000000000000000000400000000000008000000000000008000004800000400000000000010100001000000000000000020000000000000000000800000000000000000080040010000000000000000000000000000000020000000000000001000000000000000000000000200000000000000000020000000000000000000000000000000000000000004000000002000000000001000000000000000000000000800002108000000020000000000000000000000000000000008000000000000000000000000000100000",
      "type": "0x2",
      "transactionHash": "0x036c5d034d1c4c0c8402284ae051a18c7261ad7cba307f2217e4b9f3d6bac6eb",
      "transactionIndex": "0x0",
      "blockHash": "0x350b6fd31fdfea5f0b3c3e05fc7984c9cefde9fb409fb9fbd09f41106362e041",
      "blockNumber": "0xc446e6",
      "gasUsed": "0x831f",
      "effectiveGasPrice": "0xb3b53fc00",
      "from": "0x3FDF7Fd35F4e16afB548a79AB5eE40E8C344982D",
      "to": "0xdBdF8c47C566A2656bFAE5c06FbF928174c4F1bf",
      "contractAddress": null
    },
    {
      "status": "0x1",
      "cumulativeGasUsed": "0x160dc",
      "logs": [
        {
          "address": "0xdBdF8c47C566A2656bFAE5c06FbF928174c4F1bf",
          "topics": [
            "0xddf252ad1be2c89b69c2b068fc378daa952ba7f163c4a11628f55a4df523b3ef",
            "0x0000000000000000000000003fdf7fd35f4e16afb548a79ab5ee40e8c344982d",
            "0x0000000000000000000000003fdf7fd35f4e16afb548a79ab5ee40e8c344982d"
          ],
          "data": "0x00000000000000000000000000000000000000000000000000b1a2bc2ec50000",
          "blockHash": "0x350b6fd31fdfea5f0b3c3e05fc7984c9cefde9fb409fb9fbd09f41106362e041",
          "blockNumber": "0xc446e6",
          "transactionHash": "0x178f7b39452740f950731242043fb3026aa8b82a0d94e3dac926d9ba06923b0d",
          "transactionIndex": "0x1",
          "logIndex": "0x3",
          "removed": false
        },
        {
          "address": "0xdBdF8c47C566A2656bFAE5c06FbF928174c4F1bf",
          "topics": [
            "0xddf252ad1be2c89b69c2b068fc378daa952ba7f163c4a11628f55a4df523b3ef",
            "0x0000000000000000000000003fdf7fd35f4e16afb548a79ab5ee40e8c344982d",
            "0x0000000000000000000000008493a952bfd0ea51f30a2fe93994768e88505b48"
          ],
          "data": "0x00000000000000000000000000000000000000000000000044b1eec6162f0000",
          "blockHash": "0x350b6fd31fdfea5f0b3c3e05fc7984c9cefde9fb409fb9fbd09f41106362e041",
          "blockNumber": "0xc446e6",
          "transactionHash": "0x178f7b39452740f950731242043fb3026aa8b82a0d94e3dac926d9ba06923b0d",
          "transactionIndex": "0x1",
          "logIndex": "0x4",
          "removed": false
        },
        {
          "address": "0x0000000000000000000000000000000000001010",
          "topics": [
            "0x4dfe1bbbcf077ddc3e01291eea2d5c70c2b422b415d95645b9adcfd678cb1d63",
            "0x0000000000000000000000000000000000000000000000000000000000001010",
            "0x0000000000000000000000003fdf7fd35f4e16afb548a79ab5ee40e8c344982d",
            "0x0000000000000000000000004ad84f7014b7b44f723f284a85b1662337971439"
          ],
          "data": "0x0000000000000000000000000000000000000000000000000009ba824d800ded000000000000000000000000000000000000000000000000037be22d4b335bf1000000000000000000000000000000000000000000000309a9ce2ade8d1a5146000000000000000000000000000000000000000000000000037227aafdb34e04000000000000000000000000000000000000000000000309a9d7e560da9a5f33",
          "blockHash": "0x350b6fd31fdfea5f0b3c3e05fc7984c9cefde9fb409fb9fbd09f41106362e041",
          "blockNumber": "0xc446e6",
          "transactionHash": "0x178f7b39452740f950731242043fb3026aa8b82a0d94e3dac926d9ba06923b0d",
          "transactionIndex": "0x1",
          "logIndex": "0x5",
          "removed": false
        }
      ],
      "logsBloom": "0x00000000000000000000000000000000000000000000000000000000000000000000000000000000000000000000000000008000000000000000000000400000000000008000000000000008000004800000000000000000000100001000000000000000000000000000000000000000000000000000000080040010000000000000000000000000400000000000000000000001000000000000000000000000200000000400000000020000000000000000000000000000000000000000004000000002000000000001000000000000000000000000000002100020000000000000000000000000000000000000008000000000000000000000000000100000",
      "type": "0x2",
      "transactionHash": "0x178f7b39452740f950731242043fb3026aa8b82a0d94e3dac926d9ba06923b0d",
      "transactionIndex": "0x1",
      "blockHash": "0x350b6fd31fdfea5f0b3c3e05fc7984c9cefde9fb409fb9fbd09f41106362e041",
      "blockNumber": "0xc446e6",
      "gasUsed": "0xddbd",
      "effectiveGasPrice": "0xb3b53fc00",
      "from": "0x3FDF7Fd35F4e16afB548a79AB5eE40E8C344982D",
      "to": "0xdBdF8c47C566A2656bFAE5c06FbF928174c4F1bf",
      "contractAddress": null
    }
  ],
  "libraries": [],
  "pending": [],
  "returns": {},
  "timestamp": 1728247467,
  "chain": 80002,
  "commit": "8f148fa"
}