{
  "transactions": [
    {
      "hash": "0x697957e8538fc641c78237583ee723e06fddd0a3e279e90fa5c936e01bdd6ef9",
      "transactionType": "CALL",
      "contractName": null,
      "contractAddress": "0x82AeECCa746271569f06c232c980ad4096a3bD4d",
      "function": "buyNFT(string)",
      "arguments": [
        "https://gold-near-fox-74.mypinata.cloud/ipfs/QmQywF3utJ8apWRTR5YkzYFwpmE5SUZZRQMdrdzTMwJ8Yu"
      ],
      "transaction": {
        "from": "0x3FDF7Fd35F4e16afB548a79AB5eE40E8C344982D",
        "to": "0x82AeECCa746271569f06c232c980ad4096a3bD4d",
        "gas": "0x35ca4",
        "value": "0x2386f26fc10000",
        "input": "0x8d0123000000000000000000000000000000000000000000000000000000000000000020000000000000000000000000000000000000000000000000000000000000005b68747470733a2f2f676f6c642d6e6561722d666f782d37342e6d7970696e6174612e636c6f75642f697066732f516d517977463375744a3861705752545235596b7a594677706d453553555a5a52514d6472647a544d774a3859750000000000",
        "nonce": "0x34",
        "chainId": "0x13882"
      },
      "additionalContracts": [],
      "isFixedGasLimit": false
    }
  ],
  "receipts": [
    {
      "status": "0x1",
      "cumulativeGasUsed": "0x29e81",
      "logs": [
        {
          "address": "0x0000000000000000000000000000000000001010",
          "topics": [
            "0xe6497e3ee548a3372136af2fcb0696db31fc6cf20260707645068bd3fe97f3c4",
            "0x0000000000000000000000000000000000000000000000000000000000001010",
            "0x0000000000000000000000003fdf7fd35f4e16afb548a79ab5ee40e8c344982d",
            "0x00000000000000000000000082aeecca746271569f06c232c980ad4096a3bd4d"
          ],
          "data": "0x000000000000000000000000000000000000000000000000002386f26fc1000000000000000000000000000000000000000000000000000003c6ca85e6c56a6100000000000000000000000000000000000000000000000000f8b0a10e47000000000000000000000000000000000000000000000000000003a3439377046a61000000000000000000000000000000000000000000000000011c37937e080000",
          "blockHash": "0x3bb5a7ccaa07fb4512265d4d48ce104c89cbe7d45e27ea5382e026aae214cc63",
          "blockNumber": "0xc4c56d",
          "transactionHash": "0x697957e8538fc641c78237583ee723e06fddd0a3e279e90fa5c936e01bdd6ef9",
          "transactionIndex": "0x1",
          "logIndex": "0x2",
          "removed": false
        },
        {
          "address": "0x82AeECCa746271569f06c232c980ad4096a3bD4d",
          "topics": [
            "0xddf252ad1be2c89b69c2b068fc378daa952ba7f163c4a11628f55a4df523b3ef",
            "0x0000000000000000000000000000000000000000000000000000000000000000",
            "0x0000000000000000000000003fdf7fd35f4e16afb548a79ab5ee40e8c344982d",
            "0x0000000000000000000000000000000000000000000000000000000000000008"
          ],
          "data": "0x",
          "blockHash": "0x3bb5a7ccaa07fb4512265d4d48ce104c89cbe7d45e27ea5382e026aae214cc63",
          "blockNumber": "0xc4c56d",
          "transactionHash": "0x697957e8538fc641c78237583ee723e06fddd0a3e279e90fa5c936e01bdd6ef9",
          "transactionIndex": "0x1",
          "logIndex": "0x3",
          "removed": false
        },
        {
          "address": "0x82AeECCa746271569f06c232c980ad4096a3bD4d",
          "topics": [
            "0xf8e1a15aba9398e019f0b49df1a4fde98ee17ae345cb5f6b5e2c27f5033e8ce7"
          ],
          "data": "0x0000000000000000000000000000000000000000000000000000000000000008",
          "blockHash": "0x3bb5a7ccaa07fb4512265d4d48ce104c89cbe7d45e27ea5382e026aae214cc63",
          "blockNumber": "0xc4c56d",
          "transactionHash": "0x697957e8538fc641c78237583ee723e06fddd0a3e279e90fa5c936e01bdd6ef9",
          "transactionIndex": "0x1",
          "logIndex": "0x4",
          "removed": false
        },
        {
          "address": "0x0000000000000000000000000000000000001010",
          "topics": [
            "0x4dfe1bbbcf077ddc3e01291eea2d5c70c2b422b415d95645b9adcfd678cb1d63",
            "0x0000000000000000000000000000000000000000000000000000000000001010",
            "0x0000000000000000000000003fdf7fd35f4e16afb548a79ab5ee40e8c344982d",
            "0x0000000000000000000000004631753190f2f5a15a7ba172bbac102b7d95fa22"
          ],
          "data": "0x0000000000000000000000000000000000000000000000000012bb81a093ae0000000000000000000000000000000000000000000000000003e22ff228690ffd000000000000000000000000000000000000000000000222fce632a9628df9b100000000000000000000000000000000000000000000000003cf747087d561fd000000000000000000000000000000000000000000000222fcf8ee2b0321a7b1",
          "blockHash": "0x3bb5a7ccaa07fb4512265d4d48ce104c89cbe7d45e27ea5382e026aae214cc63",
          "blockNumber": "0xc4c56d",
          "transactionHash": "0x697957e8538fc641c78237583ee723e06fddd0a3e279e90fa5c936e01bdd6ef9",
          "transactionIndex": "0x1",
          "logIndex": "0x5",
          "removed": false
        }
      ],
      "logsBloom": "0x00000000000000000000000000000000000000002000000000000000000000000000000000000000000000100200000000008000000080000000000040800000000000008000000000000008000000a0000000000000000000010000000000000000000002000010000000000000080000000000000000008004001000008000008000000100000000000000000000000000000000000000000000000000000020000000000000000000000000000000200000000000000000000000000000c040000002000000000001000000000000000000000000800002108000000020000080000000000000200000000000000000000000000000000000000000100000",
      "type": "0x2",
      "transactionHash": "0x697957e8538fc641c78237583ee723e06fddd0a3e279e90fa5c936e01bdd6ef9",
      "transactionIndex": "0x1",
      "blockHash": "0x3bb5a7ccaa07fb4512265d4d48ce104c89cbe7d45e27ea5382e026aae214cc63",
      "blockNumber": "0xc4c56d",
      "gasUsed": "0x24c79",
      "effectiveGasPrice": "0x826299e0f",
      "from": "0x3FDF7Fd35F4e16afB548a79AB5eE40E8C344982D",
      "to": "0x82AeECCa746271569f06c232c980ad4096a3bD4d",
      "contractAddress": null
    }
  ],
  "libraries": [],
  "pending": [],
  "returns": {},
  "timestamp": 1728317859,
  "chain": 80002,
  "commit": "442bd26"
}