{
  "transactions": [
    {
      "hash": "0xd403bc3b8a07a42de6e6cc04250a97ea9b3cdbd2d9c301810bebb18026466bde",
      "transactionType": "CALL",
      "contractName": null,
      "contractAddress": "0xdBdF8c47C566A2656bFAE5c06FbF928174c4F1bf",
      "function": "transfer(address,uint256)",
      "arguments": [
        "0x3FDF7Fd35F4e16afB548a79AB5eE40E8C344982D",
        "1000000000000000000"
      ],
      "transaction": {
        "from": "0x3FDF7Fd35F4e16afB548a79AB5eE40E8C344982D",
        "to": "0xdBdF8c47C566A2656bFAE5c06FbF928174c4F1bf",
        "gas": "0xb72e",
        "value": "0x0",
        "input": "0xa9059cbb0000000000000000000000003fdf7fd35f4e16afb548a79ab5ee40e8c344982d0000000000000000000000000000000000000000000000000de0b6b3a7640000",
        "nonce": "0x27",
        "chainId": "0x13882"
      },
      "additionalContracts": [],
      "isFixedGasLimit": false
    }
  ],
  "receipts": [
    {
      "status": "0x1",
      "cumulativeGasUsed": "0x2cf7d",
      "logs": [
        {
          "address": "0xdBdF8c47C566A2656bFAE5c06FbF928174c4F1bf",
          "topics": [
            "0xddf252ad1be2c89b69c2b068fc378daa952ba7f163c4a11628f55a4df523b3ef",
            "0x0000000000000000000000003fdf7fd35f4e16afb548a79ab5ee40e8c344982d",
            "0x0000000000000000000000003fdf7fd35f4e16afb548a79ab5ee40e8c344982d"
          ],
          "data": "0x000000000000000000000000000000000000000000000000002386f26fc10000",
          "blockHash": "0xdb15dd05b3cc0b7cdc546aca715940c4d3918b546777a735405d087dfe2ad04f",
          "blockNumber": "0xc45348",
          "transactionHash": "0xd403bc3b8a07a42de6e6cc04250a97ea9b3cdbd2d9c301810bebb18026466bde",
          "transactionIndex": "0x4",
          "logIndex": "0x4",
          "removed": false
        },
        {
          "address": "0xdBdF8c47C566A2656bFAE5c06FbF928174c4F1bf",
          "topics": [
            "0xddf252ad1be2c89b69c2b068fc378daa952ba7f163c4a11628f55a4df523b3ef",
            "0x0000000000000000000000003fdf7fd35f4e16afb548a79ab5ee40e8c344982d",
            "0x0000000000000000000000003fdf7fd35f4e16afb548a79ab5ee40e8c344982d"
          ],
          "data": "0x0000000000000000000000000000000000000000000000000dbd2fc137a30000",
          "blockHash": "0xdb15dd05b3cc0b7cdc546aca715940c4d3918b546777a735405d087dfe2ad04f",
          "blockNumber": "0xc45348",
          "transactionHash": "0xd403bc3b8a07a42de6e6cc04250a97ea9b3cdbd2d9c301810bebb18026466bde",
          "transactionIndex": "0x4",
          "logIndex": "0x5",
          "removed": false
        },
        {
          "address": "0x0000000000000000000000000000000000001010",
          "topics": [
            "0x4dfe1bbbcf077ddc3e01291eea2d5c70c2b422b415d95645b9adcfd678cb1d63",
            "0x0000000000000000000000000000000000000000000000000000000000001010",
            "0x0000000000000000000000003fdf7fd35f4e16afb548a79ab5ee40e8c344982d",
            "0x000000000000000000000000915a2284d28bd93de7d6f31173b981204bb666e6"
          ],
          "data": "0x00000000000000000000000000000000000000000000000000057d37751d0ac2000000000000000000000000000000000000000000000000031989737271ccd6000000000000000000000000000000000000000000000402b27feaee37bd297900000000000000000000000000000000000000000000000003140c3bfd54c214000000000000000000000000000000000000000000000402b2856825acda343b",
          "blockHash": "0xdb15dd05b3cc0b7cdc546aca715940c4d3918b546777a735405d087dfe2ad04f",
          "blockNumber": "0xc45348",
          "transactionHash": "0xd403bc3b8a07a42de6e6cc04250a97ea9b3cdbd2d9c301810bebb18026466bde",
          "transactionIndex": "0x4",
          "logIndex": "0x6",
          "removed": false
        }
      ],
      "logsBloom": "0x00000000000000000010000000000000000000000000000000000000000000000000000000000000000000000000000000008000000000000000000000000000000000008000000000000008000004800000000000000000000100000000000000000000000000000000000000000000000000000000000080040010000000000000000000000000000000000000000000000001000000000000000000000000200000000000000000020000000000000000000000000000000000000000004000000002000000000001000000000000000002000000000002100000000000000000000000000000000000000000000000000000400000000000000000100000",
      "type": "0x2",
      "transactionHash": "0xd403bc3b8a07a42de6e6cc04250a97ea9b3cdbd2d9c301810bebb18026466bde",
      "transactionIndex": "0x4",
      "blockHash": "0xdb15dd05b3cc0b7cdc546aca715940c4d3918b546777a735405d087dfe2ad04f",
      "blockNumber": "0xc45348",
      "gasUsed": "0x7d41",
      "effectiveGasPrice": "0xb380cc051",
      "from": "0x3FDF7Fd35F4e16afB548a79AB5eE40E8C344982D",
      "to": "0xdBdF8c47C566A2656bFAE5c06FbF928174c4F1bf",
      "contractAddress": null
    }
  ],
  "libraries": [],
  "pending": [],
  "returns": {},
  "timestamp": 1728254203,
  "chain": 80002,
  "commit": "8f148fa"
}