{
  "transactions": [
    {
      "hash": "0x8cc08320ff5890e376e3ce6bd1ad956b103c51f5f31936d7e83486ae756ad63b",
      "transactionType": "CALL",
      "contractName": null,
      "contractAddress": "0xdBdF8c47C566A2656bFAE5c06FbF928174c4F1bf",
      "function": "transfer(address,uint256)",
      "arguments": [
        "0x3FDF7Fd35F4e16afB548a79AB5eE40E8C344982D",
        "100000000000000000000"
      ],
      "transaction": {
        "from": "0x3FDF7Fd35F4e16afB548a79AB5eE40E8C344982D",
        "to": "0xdBdF8c47C566A2656bFAE5c06FbF928174c4F1bf",
        "gas": "0xad11",
        "value": "0x0",
        "input": "0xa9059cbb0000000000000000000000003fdf7fd35f4e16afb548a79ab5ee40e8c344982d0000000000000000000000000000000000000000000000056bc75e2d63100000",
        "nonce": "0x25",
        "chainId": "0x13882"
      },
      "additionalContracts": [],
      "isFixedGasLimit": false
    }
  ],
  "receipts": [
    {
      "status": "0x1",
      "cumulativeGasUsed": "0x7d4d",
      "logs": [
        {
          "address": "0xdBdF8c47C566A2656bFAE5c06FbF928174c4F1bf",
          "topics": [
            "0xddf252ad1be2c89b69c2b068fc378daa952ba7f163c4a11628f55a4df523b3ef",
            "0x0000000000000000000000003fdf7fd35f4e16afb548a79ab5ee40e8c344982d",
            "0x0000000000000000000000003fdf7fd35f4e16afb548a79ab5ee40e8c344982d"
          ],
          "data": "0x0000000000000000000000000000000000000000000000000de0b6b3a7640000",
          "blockHash": "0x4af9444ce52784eea6cf49bb88dbe3bc8ecc0f08aa721bd188ba3b3a66315926",
          "blockNumber": "0xc45136",
          "transactionHash": "0x8cc08320ff5890e376e3ce6bd1ad956b103c51f5f31936d7e83486ae756ad63b",
          "transactionIndex": "0x0",
          "logIndex": "0x0",
          "removed": false
        },
        {
          "address": "0xdBdF8c47C566A2656bFAE5c06FbF928174c4F1bf",
          "topics": [
            "0xddf252ad1be2c89b69c2b068fc378daa952ba7f163c4a11628f55a4df523b3ef",
            "0x0000000000000000000000003fdf7fd35f4e16afb548a79ab5ee40e8c344982d",
            "0x0000000000000000000000003fdf7fd35f4e16afb548a79ab5ee40e8c344982d"
          ],
          "data": "0x0000000000000000000000000000000000000000000000055de6a779bbac0000",
          "blockHash": "0x4af9444ce52784eea6cf49bb88dbe3bc8ecc0f08aa721bd188ba3b3a66315926",
          "blockNumber": "0xc45136",
          "transactionHash": "0x8cc08320ff5890e376e3ce6bd1ad956b103c51f5f31936d7e83486ae756ad63b",
          "transactionIndex": "0x0",
          "logIndex": "0x1",
          "removed": false
        },
        {
          "address": "0x0000000000000000000000000000000000001010",
          "topics": [
            "0x4dfe1bbbcf077ddc3e01291eea2d5c70c2b422b415d95645b9adcfd678cb1d63",
            "0x0000000000000000000000000000000000000000000000000000000000001010",
            "0x0000000000000000000000003fdf7fd35f4e16afb548a79ab5ee40e8c344982d",
            "0x000000000000000000000000915a2284d28bd93de7d6f31173b981204bb666e6"
          ],
          "data": "0x0000000000000000000000000000000000000000000000000004ebe07db3039f00000000000000000000000000000000000000000000000003245c9d568da9aa000000000000000000000000000000000000000000000402a60578911d0e54c2000000000000000000000000000000000000000000000000031f70bcd8daa60b000000000000000000000000000000000000000000000402a60a64719ac15861",
          "blockHash": "0x4af9444ce52784eea6cf49bb88dbe3bc8ecc0f08aa721bd188ba3b3a66315926",
          "blockNumber": "0xc45136",
          "transactionHash": "0x8cc08320ff5890e376e3ce6bd1ad956b103c51f5f31936d7e83486ae756ad63b",
          "transactionIndex": "0x0",
          "logIndex": "0x2",
          "removed": false
        }
      ],
      "logsBloom": "0x00000000000000000010000000000000000000000000000000000000000000000000000000000000000000000000000000008000000000000000000000000000000000008000000000000008000004800000000000000000000100000000000000000000000000000000000000000000000000000000000080040010000000000000000000000000000000000000000000000001000000000000000000000000200000000000000000020000000000000000000000000000000000000000004000000002000000000001000000000000000002000000000002100000000000000000000000000000000000000000000000000000400000000000000000100000",
      "type": "0x2",
      "transactionHash": "0x8cc08320ff5890e376e3ce6bd1ad956b103c51f5f31936d7e83486ae756ad63b",
      "transactionIndex": "0x0",
      "blockHash": "0x4af9444ce52784eea6cf49bb88dbe3bc8ecc0f08aa721bd188ba3b3a66315926",
      "blockNumber": "0xc45136",
      "gasUsed": "0x7d4d",
      "effectiveGasPrice": "0xa0e08beaa",
      "from": "0x3FDF7Fd35F4e16afB548a79AB5eE40E8C344982D",
      "to": "0xdBdF8c47C566A2656bFAE5c06FbF928174c4F1bf",
      "contractAddress": null
    }
  ],
  "libraries": [],
  "pending": [],
  "returns": {},
  "timestamp": 1728253078,
  "chain": 80002,
  "commit": "8f148fa"
}