{
  "transactions": [
    {
      "hash": "0x0b8961493da0636a0cc4e705aeaef69af56816c29b9ba3724b9495b528443e57",
      "transactionType": "CALL",
      "contractName": null,
      "contractAddress": "0xdBdF8c47C566A2656bFAE5c06FbF928174c4F1bf",
      "function": "transfer(address,uint256)",
      "arguments": [
        "0x3FDF7Fd35F4e16afB548a79AB5eE40E8C344982D",
        "1000000000000000000"
      ],
      "transaction": {
        "from": "0x3FDF7Fd35F4e16afB548a79AB5eE40E8C344982D",
        "to": "0xdBdF8c47C566A2656bFAE5c06FbF928174c4F1bf",
        "gas": "0xb72e",
        "value": "0x0",
        "input": "0xa9059cbb0000000000000000000000003fdf7fd35f4e16afb548a79ab5ee40e8c344982d0000000000000000000000000000000000000000000000000de0b6b3a7640000",
        "nonce": "0x26",
        "chainId": "0x13882"
      },
      "additionalContracts": [],
      "isFixedGasLimit": false
    }
  ],
  "receipts": [
    {
      "status": "0x1",
      "cumulativeGasUsed": "0x7d41",
      "logs": [
        {
          "address": "0xdBdF8c47C566A2656bFAE5c06FbF928174c4F1bf",
          "topics": [
            "0xddf252ad1be2c89b69c2b068fc378daa952ba7f163c4a11628f55a4df523b3ef",
            "0x0000000000000000000000003fdf7fd35f4e16afb548a79ab5ee40e8c344982d",
            "0x0000000000000000000000003fdf7fd35f4e16afb548a79ab5ee40e8c344982d"
          ],
          "data": "0x000000000000000000000000000000000000000000000000002386f26fc10000",
          "blockHash": "0xa45055e77e7f61fef0d75712d60149b30374d03457264e89a98437cd049430ba",
          "blockNumber": "0xc45301",
          "transactionHash": "0x0b8961493da0636a0cc4e705aeaef69af56816c29b9ba3724b9495b528443e57",
          "transactionIndex": "0x0",
          "logIndex": "0x0",
          "removed": false
        },
        {
          "address": "0xdBdF8c47C566A2656bFAE5c06FbF928174c4F1bf",
          "topics": [
            "0xddf252ad1be2c89b69c2b068fc378daa952ba7f163c4a11628f55a4df523b3ef",
            "0x0000000000000000000000003fdf7fd35f4e16afb548a79ab5ee40e8c344982d",
            "0x0000000000000000000000003fdf7fd35f4e16afb548a79ab5ee40e8c344982d"
          ],
          "data": "0x0000000000000000000000000000000000000000000000000dbd2fc137a30000",
          "blockHash": "0xa45055e77e7f61fef0d75712d60149b30374d03457264e89a98437cd049430ba",
          "blockNumber": "0xc45301",
          "transactionHash": "0x0b8961493da0636a0cc4e705aeaef69af56816c29b9ba3724b9495b528443e57",
          "transactionIndex": "0x0",
          "logIndex": "0x1",
          "removed": false
        },
        {
          "address": "0x0000000000000000000000000000000000001010",
          "topics": [
            "0x4dfe1bbbcf077ddc3e01291eea2d5c70c2b422b415d95645b9adcfd678cb1d63",
            "0x0000000000000000000000000000000000000000000000000000000000001010",
            "0x0000000000000000000000003fdf7fd35f4e16afb548a79ab5ee40e8c344982d",
            "0x00000000000000000000000009207a6efee346cb3e4a54ac18523e3715d38b3f"
          ],
          "data": "0x0000000000000000000000000000000000000000000000000005e749665a2ae3000000000000000000000000000000000000000000000000031f70bcd8d34e880000000000000000000000000000000000000000000002d8b5bacd056ac0b93300000000000000000000000000000000000000000000000003198973727923a50000000000000000000000000000000000000000000002d8b5c0b44ed11ae416",
          "blockHash": "0xa45055e77e7f61fef0d75712d60149b30374d03457264e89a98437cd049430ba",
          "blockNumber": "0xc45301",
          "transactionHash": "0x0b8961493da0636a0cc4e705aeaef69af56816c29b9ba3724b9495b528443e57",
          "transactionIndex": "0x0",
          "logIndex": "0x2",
          "removed": false
        }
      ],
      "logsBloom": "0x00000000000000000000000000000000000000000000000000000000000000000000000000000000000000000000000000008000000000000000010000000000000000008000000000000008000004800000000000000000000100000000000000000000000000000000000000000000000000000000000080040010000000000000000000000000000000000000000000004001000000000000000000000000200000000000000000020000000000000000000000000000000000000000004000000002000000000001000000000000000000000000000002100000000000000000000000000000000000010000000000000000000000000000000000100000",
      "type": "0x2",
      "transactionHash": "0x0b8961493da0636a0cc4e705aeaef69af56816c29b9ba3724b9495b528443e57",
      "transactionIndex": "0x0",
      "blockHash": "0xa45055e77e7f61fef0d75712d60149b30374d03457264e89a98437cd049430ba",
      "blockNumber": "0xc45301",
      "gasUsed": "0x7d41",
      "effectiveGasPrice": "0xc10d74b32",
      "from": "0x3FDF7Fd35F4e16afB548a79AB5eE40E8C344982D",
      "to": "0xdBdF8c47C566A2656bFAE5c06FbF928174c4F1bf",
      "contractAddress": null
    }
  ],
  "libraries": [],
  "pending": [],
  "returns": {},
  "timestamp": 1728254052,
  "chain": 80002,
  "commit": "8f148fa"
}